{
  "contractName": "CollaborativeMinter",
  "abi": [
    {
      "inputs": [
        {
          "internalType": "address[]",
          "name": "_owners",
          "type": "address[]"
        }
      ],
      "stateMutability": "nonpayable",
      "type": "constructor"
    },
    {
      "anonymous": false,
      "inputs": [
        {
          "indexed": true,
          "internalType": "address",
          "name": "owner",
          "type": "address"
        },
        {
          "indexed": true,
          "internalType": "address",
          "name": "approved",
          "type": "address"
        },
        {
          "indexed": true,
          "internalType": "uint256",
          "name": "tokenId",
          "type": "uint256"
        }
      ],
      "name": "Approval",
      "type": "event"
    },
    {
      "anonymous": false,
      "inputs": [
        {
          "indexed": true,
          "internalType": "address",
          "name": "owner",
          "type": "address"
        },
        {
          "indexed": true,
          "internalType": "address",
          "name": "operator",
          "type": "address"
        },
        {
          "indexed": false,
          "internalType": "bool",
          "name": "approved",
          "type": "bool"
        }
      ],
      "name": "ApprovalForAll",
      "type": "event"
    },
    {
      "anonymous": false,
      "inputs": [
        {
          "indexed": true,
          "internalType": "address",
          "name": "from",
          "type": "address"
        },
        {
          "indexed": true,
          "internalType": "address",
          "name": "to",
          "type": "address"
        },
        {
          "indexed": true,
          "internalType": "uint256",
          "name": "tokenId",
          "type": "uint256"
        }
      ],
      "name": "Transfer",
      "type": "event"
    },
    {
      "inputs": [
        {
          "internalType": "address",
          "name": "to",
          "type": "address"
        },
        {
          "internalType": "uint256",
          "name": "tokenId",
          "type": "uint256"
        }
      ],
      "name": "approve",
      "outputs": [],
      "stateMutability": "nonpayable",
      "type": "function"
    },
    {
      "inputs": [
        {
          "internalType": "address",
          "name": "owner",
          "type": "address"
        }
      ],
      "name": "balanceOf",
      "outputs": [
        {
          "internalType": "uint256",
          "name": "",
          "type": "uint256"
        }
      ],
      "stateMutability": "view",
      "type": "function"
    },
    {
      "inputs": [],
      "name": "currentOwner",
      "outputs": [
        {
          "internalType": "uint256",
          "name": "",
          "type": "uint256"
        }
      ],
      "stateMutability": "view",
      "type": "function"
    },
    {
      "inputs": [
        {
          "internalType": "uint256",
          "name": "tokenId",
          "type": "uint256"
        }
      ],
      "name": "getApproved",
      "outputs": [
        {
          "internalType": "address",
          "name": "",
          "type": "address"
        }
      ],
      "stateMutability": "view",
      "type": "function"
    },
    {
      "inputs": [
        {
          "internalType": "address",
          "name": "owner",
          "type": "address"
        },
        {
          "internalType": "address",
          "name": "operator",
          "type": "address"
        }
      ],
      "name": "isApprovedForAll",
      "outputs": [
        {
          "internalType": "bool",
          "name": "",
          "type": "bool"
        }
      ],
      "stateMutability": "view",
      "type": "function"
    },
    {
      "inputs": [
        {
          "internalType": "uint256",
          "name": "",
          "type": "uint256"
        },
        {
          "internalType": "address",
          "name": "",
          "type": "address"
        }
      ],
      "name": "isConfirmed",
      "outputs": [
        {
          "internalType": "bool",
          "name": "",
          "type": "bool"
        }
      ],
      "stateMutability": "view",
      "type": "function"
    },
    {
      "inputs": [],
      "name": "isMerged",
      "outputs": [
        {
          "internalType": "bool",
          "name": "",
          "type": "bool"
        }
      ],
      "stateMutability": "view",
      "type": "function"
    },
    {
      "inputs": [
        {
          "internalType": "address",
          "name": "",
          "type": "address"
        }
      ],
      "name": "isOwner",
      "outputs": [
        {
          "internalType": "bool",
          "name": "",
          "type": "bool"
        }
      ],
      "stateMutability": "view",
      "type": "function"
    },
    {
      "inputs": [],
      "name": "latestReceived",
      "outputs": [
        {
          "internalType": "uint256",
          "name": "",
          "type": "uint256"
        }
      ],
      "stateMutability": "view",
      "type": "function"
    },
    {
      "inputs": [],
      "name": "name",
      "outputs": [
        {
          "internalType": "string",
          "name": "",
          "type": "string"
        }
      ],
      "stateMutability": "view",
      "type": "function"
    },
    {
      "inputs": [],
      "name": "numberOfOwners",
      "outputs": [
        {
          "internalType": "uint256",
          "name": "",
          "type": "uint256"
        }
      ],
      "stateMutability": "view",
      "type": "function"
    },
    {
      "inputs": [
        {
          "internalType": "address",
          "name": "",
          "type": "address"
        },
        {
          "internalType": "address",
          "name": "",
          "type": "address"
        },
        {
          "internalType": "uint256",
          "name": "",
          "type": "uint256"
        },
        {
          "internalType": "bytes",
          "name": "",
          "type": "bytes"
        }
      ],
      "name": "onERC721Received",
      "outputs": [
        {
          "internalType": "bytes4",
          "name": "",
          "type": "bytes4"
        }
      ],
      "stateMutability": "nonpayable",
      "type": "function"
    },
    {
      "inputs": [
        {
          "internalType": "uint256",
          "name": "tokenId",
          "type": "uint256"
        }
      ],
      "name": "ownerOf",
      "outputs": [
        {
          "internalType": "address",
          "name": "",
          "type": "address"
        }
      ],
      "stateMutability": "view",
      "type": "function"
    },
    {
      "inputs": [
        {
          "internalType": "uint256",
          "name": "",
          "type": "uint256"
        }
      ],
      "name": "owners",
      "outputs": [
        {
          "internalType": "address",
          "name": "",
          "type": "address"
        }
      ],
      "stateMutability": "view",
      "type": "function"
    },
    {
      "inputs": [
        {
          "internalType": "uint256",
          "name": "",
          "type": "uint256"
        }
      ],
      "name": "salesTransactions",
      "outputs": [
        {
          "internalType": "address",
          "name": "from",
          "type": "address"
        },
        {
          "internalType": "address",
          "name": "to",
          "type": "address"
        },
        {
          "internalType": "uint256",
          "name": "value",
          "type": "uint256"
        },
        {
          "internalType": "bool",
          "name": "secondarySale",
          "type": "bool"
        },
        {
          "internalType": "bool",
          "name": "revoked",
          "type": "bool"
        },
        {
          "internalType": "bool",
          "name": "executed",
          "type": "bool"
        },
        {
          "internalType": "bool",
          "name": "executing",
          "type": "bool"
        },
        {
          "internalType": "bool",
          "name": "modifying",
          "type": "bool"
        },
        {
          "internalType": "uint256",
          "name": "numConfirmations",
          "type": "uint256"
        }
      ],
      "stateMutability": "view",
      "type": "function"
    },
    {
      "inputs": [
        {
          "internalType": "address",
          "name": "operator",
          "type": "address"
        },
        {
          "internalType": "bool",
          "name": "approved",
          "type": "bool"
        }
      ],
      "name": "setApprovalForAll",
      "outputs": [],
      "stateMutability": "nonpayable",
      "type": "function"
    },
    {
      "inputs": [
        {
          "internalType": "bytes4",
          "name": "interfaceId",
          "type": "bytes4"
        }
      ],
      "name": "supportsInterface",
      "outputs": [
        {
          "internalType": "bool",
          "name": "",
          "type": "bool"
        }
      ],
      "stateMutability": "view",
      "type": "function"
    },
    {
      "inputs": [],
      "name": "symbol",
      "outputs": [
        {
          "internalType": "string",
          "name": "",
          "type": "string"
        }
      ],
      "stateMutability": "view",
      "type": "function"
    },
    {
      "inputs": [],
      "name": "tokenCounter",
      "outputs": [
        {
          "internalType": "uint256",
          "name": "",
          "type": "uint256"
        }
      ],
      "stateMutability": "view",
      "type": "function"
    },
    {
      "inputs": [
        {
          "internalType": "uint256",
          "name": "tokenId",
          "type": "uint256"
        }
      ],
      "name": "tokenURI",
      "outputs": [
        {
          "internalType": "string",
          "name": "",
          "type": "string"
        }
      ],
      "stateMutability": "view",
      "type": "function"
    },
    {
      "stateMutability": "payable",
      "type": "receive"
    },
    {
      "inputs": [
        {
          "internalType": "string",
          "name": "_tokenURI",
          "type": "string"
        }
      ],
      "name": "collaborativeMint",
      "outputs": [
        {
          "internalType": "uint256",
          "name": "",
          "type": "uint256"
        }
      ],
      "stateMutability": "nonpayable",
      "type": "function"
    },
    {
      "inputs": [
        {
          "internalType": "string",
          "name": "_tokenURI",
          "type": "string"
        }
      ],
      "name": "mergeCollaborativeMint",
      "outputs": [
        {
          "internalType": "bool",
          "name": "",
          "type": "bool"
        }
      ],
      "stateMutability": "nonpayable",
      "type": "function"
    },
    {
      "inputs": [
        {
          "internalType": "address",
          "name": "_account",
          "type": "address"
        },
        {
          "internalType": "uint256",
          "name": "_tokenId",
          "type": "uint256"
        }
      ],
      "name": "isApprovedOrOwner",
      "outputs": [
        {
          "internalType": "bool",
          "name": "",
          "type": "bool"
        }
      ],
      "stateMutability": "view",
      "type": "function"
    },
    {
      "inputs": [
        {
          "internalType": "uint256",
          "name": "_txIndex",
          "type": "uint256"
        },
        {
          "internalType": "address",
          "name": "_from",
          "type": "address"
        },
        {
          "internalType": "address",
          "name": "_to",
          "type": "address"
        },
        {
          "internalType": "uint256",
          "name": "_tokenId",
          "type": "uint256"
        }
      ],
      "name": "executingTransfer",
      "outputs": [
        {
          "internalType": "bool",
          "name": "",
          "type": "bool"
        }
      ],
      "stateMutability": "nonpayable",
      "type": "function"
    },
    {
      "inputs": [
        {
          "internalType": "address",
          "name": "_from",
          "type": "address"
        },
        {
          "internalType": "address",
          "name": "_to",
          "type": "address"
        },
        {
          "internalType": "uint256",
          "name": "_tokenId",
          "type": "uint256"
        }
      ],
      "name": "safeTransferFrom",
      "outputs": [],
      "stateMutability": "nonpayable",
      "type": "function"
    },
    {
      "inputs": [
        {
          "internalType": "address",
          "name": "_from",
          "type": "address"
        },
        {
          "internalType": "address",
          "name": "_to",
          "type": "address"
        },
        {
          "internalType": "uint256",
          "name": "_tokenId",
          "type": "uint256"
        },
        {
          "internalType": "bytes",
          "name": "_data",
          "type": "bytes"
        }
      ],
      "name": "safeTransferFrom",
      "outputs": [],
      "stateMutability": "nonpayable",
      "type": "function"
    },
    {
      "inputs": [
        {
          "internalType": "address",
          "name": "_from",
          "type": "address"
        },
        {
          "internalType": "address",
          "name": "_to",
          "type": "address"
        },
        {
          "internalType": "uint256",
          "name": "_tokenId",
          "type": "uint256"
        }
      ],
      "name": "transferFrom",
      "outputs": [],
      "stateMutability": "nonpayable",
      "type": "function"
    },
    {
      "inputs": [
        {
          "internalType": "address",
          "name": "_to",
          "type": "address"
        },
        {
          "internalType": "uint256[]",
          "name": "_tokenIds",
          "type": "uint256[]"
        }
      ],
      "name": "submitSalesTransaction",
      "outputs": [],
      "stateMutability": "payable",
      "type": "function"
    },
    {
      "inputs": [
        {
          "internalType": "uint256",
          "name": "_txIndex",
          "type": "uint256"
        }
      ],
      "name": "approveSalesTransaction",
      "outputs": [
        {
          "internalType": "bool",
          "name": "",
          "type": "bool"
        }
      ],
      "stateMutability": "nonpayable",
      "type": "function"
    },
    {
      "inputs": [
        {
          "internalType": "uint256",
          "name": "_txIndex",
          "type": "uint256"
        }
      ],
      "name": "denySalesTransaction",
      "outputs": [
        {
          "internalType": "bool",
          "name": "",
          "type": "bool"
        }
      ],
      "stateMutability": "nonpayable",
      "type": "function"
    },
    {
      "inputs": [
        {
          "internalType": "uint256",
          "name": "_txIndex",
          "type": "uint256"
        }
      ],
      "name": "revokeSalesTransaction",
      "outputs": [
        {
          "internalType": "bool",
          "name": "",
          "type": "bool"
        }
      ],
      "stateMutability": "nonpayable",
      "type": "function"
    },
    {
      "inputs": [
        {
          "internalType": "uint256",
          "name": "_txIndex",
          "type": "uint256"
        }
      ],
      "name": "getSalesTransaction",
      "outputs": [
        {
          "components": [
            {
              "internalType": "address",
              "name": "from",
              "type": "address"
            },
            {
              "internalType": "address",
              "name": "to",
              "type": "address"
            },
            {
              "internalType": "uint256[]",
              "name": "tokenIds",
              "type": "uint256[]"
            },
            {
              "internalType": "uint256",
              "name": "value",
              "type": "uint256"
            },
            {
              "internalType": "bool",
              "name": "secondarySale",
              "type": "bool"
            },
            {
              "internalType": "bool",
              "name": "revoked",
              "type": "bool"
            },
            {
              "internalType": "bool",
              "name": "executed",
              "type": "bool"
            },
            {
              "internalType": "bool",
              "name": "executing",
              "type": "bool"
            },
            {
              "internalType": "bool",
              "name": "modifying",
              "type": "bool"
            },
            {
              "internalType": "uint256",
              "name": "numConfirmations",
              "type": "uint256"
            }
          ],
          "internalType": "struct CollaborativeMinterHolder.SalesTransaction",
          "name": "",
          "type": "tuple"
        }
      ],
      "stateMutability": "view",
      "type": "function"
    },
    {
      "inputs": [
        {
          "internalType": "uint256",
          "name": "_txIndex",
          "type": "uint256"
        },
        {
          "internalType": "address",
          "name": "_owner",
          "type": "address"
        }
      ],
      "name": "getConfirmation",
      "outputs": [
        {
          "internalType": "bool",
          "name": "",
          "type": "bool"
        }
      ],
      "stateMutability": "view",
      "type": "function"
    },
    {
      "inputs": [
        {
          "internalType": "uint256",
          "name": "_txIndex",
          "type": "uint256"
        },
        {
          "internalType": "address",
          "name": "_owner",
          "type": "address"
        },
        {
          "internalType": "bool",
          "name": "value",
          "type": "bool"
        }
      ],
      "name": "setConfirmation",
      "outputs": [
        {
          "internalType": "bool",
          "name": "",
          "type": "bool"
        }
      ],
      "stateMutability": "nonpayable",
      "type": "function"
    }
  ],
  "bytecode": "0x60806040523480156200001157600080fd5b506040516200511a3803806200511a8339818101604052810190620000379190620003e6565b6040518060400160405280601281526020017f436f6c6c61626f726174697665204d696e7400000000000000000000000000008152506040518060400160405280600681526020017f434f4d494e5400000000000000000000000000000000000000000000000000008152508160009080519060200190620000bb92919062000271565b508060019080519060200190620000d492919062000271565b50505060008151116200011e576040517f08c379a000000000000000000000000000000000000000000000000000000000815260040162000115906200045e565b60405180910390fd5b6000600781905550805160098190555060006008819055506000600a60006101000a81548160ff02191690831515021790555060005b81518110156200026957600b8282815181106200017657620001756200063f565b5b60200260200101519080600181540180825580915050600190039060005260206000200160009091909190916101000a81548173ffffffffffffffffffffffffffffffffffffffff021916908373ffffffffffffffffffffffffffffffffffffffff1602179055506001600c6000848481518110620001fa57620001f96200063f565b5b602002602001015173ffffffffffffffffffffffffffffffffffffffff1673ffffffffffffffffffffffffffffffffffffffff16815260200190815260200160002060006101000a81548160ff0219169083151502179055508080620002609062000593565b91505062000154565b505062000705565b8280546200027f9062000527565b90600052602060002090601f016020900481019282620002a35760008555620002ef565b82601f10620002be57805160ff1916838001178555620002ef565b82800160010185558215620002ef579182015b82811115620002ee578251825591602001919060010190620002d1565b5b509050620002fe919062000302565b5090565b5b808211156200031d57600081600090555060010162000303565b5090565b6000620003386200033284620004a9565b62000480565b905080838252602082019050828560208602820111156200035e576200035d620006a2565b5b60005b858110156200039257816200037788826200039c565b84526020840193506020830192505060018101905062000361565b5050509392505050565b600081519050620003ad81620006eb565b92915050565b600082601f830112620003cb57620003ca6200069d565b5b8151620003dd84826020860162000321565b91505092915050565b600060208284031215620003ff57620003fe620006ac565b5b600082015167ffffffffffffffff81111562000420576200041f620006a7565b5b6200042e84828501620003b3565b91505092915050565b600062000446600f83620004d8565b91506200045382620006c2565b602082019050919050565b60006020820190508181036000830152620004798162000437565b9050919050565b60006200048c6200049f565b90506200049a82826200055d565b919050565b6000604051905090565b600067ffffffffffffffff821115620004c757620004c66200066e565b5b602082029050602081019050919050565b600082825260208201905092915050565b6000620004f682620004fd565b9050919050565b600073ffffffffffffffffffffffffffffffffffffffff82169050919050565b6000819050919050565b600060028204905060018216806200054057607f821691505b6020821081141562000557576200055662000610565b5b50919050565b6200056882620006b1565b810181811067ffffffffffffffff821117156200058a57620005896200066e565b5b80604052505050565b6000620005a0826200051d565b91507fffffffffffffffffffffffffffffffffffffffffffffffffffffffffffffffff821415620005d657620005d5620005e1565b5b600182019050919050565b7f4e487b7100000000000000000000000000000000000000000000000000000000600052601160045260246000fd5b7f4e487b7100000000000000000000000000000000000000000000000000000000600052602260045260246000fd5b7f4e487b7100000000000000000000000000000000000000000000000000000000600052603260045260246000fd5b7f4e487b7100000000000000000000000000000000000000000000000000000000600052604160045260246000fd5b600080fd5b600080fd5b600080fd5b600080fd5b6000601f19601f8301169050919050565b7f6f776e6572732072657175697265640000000000000000000000000000000000600082015250565b620006f681620004e9565b81146200070257600080fd5b50565b614a0580620007156000396000f3fe6080604052600436106101fd5760003560e01c80636f7153d81161010d578063ad4297fb116100a0578063c87b56dd1161006f578063c87b56dd14610822578063d0192e371461085f578063d082e3811461089c578063d80fef14146108c7578063e985e9c5146108f25761020b565b8063ad4297fb14610754578063b387ef9214610791578063b88d4fde146107bc578063bc66416c146107e55761020b565b806380f59a65116100dc57806380f59a651461069857806393fd1844146106d557806395d89b4114610700578063a22cb4651461072b5761020b565b80636f7153d8146105c557806370a08231146106025780637724a6921461063f578063799863761461067c5761020b565b806326b4d3cd11610190578063430c20811161015f578063430c20811461049e5780634ed09fc5146104db5780636352211e14610520578063649c059b1461055d5780636b75c4f9146105885761020b565b806326b4d3cd146103be5780632d84d08a146103fb5780632f54bf6e1461043857806342842e0e146104755761020b565b8063095ea7b3116101cc578063095ea7b3146102f2578063150b7a021461031b5780631cf6079b1461035857806323b872dd146103955761020b565b806301ffc9a714610210578063025e7c271461024d57806306fdde031461028a578063081812fc146102b55761020b565b3661020b5734600d81905550005b600080fd5b34801561021c57600080fd5b506102376004803603810190610232919061315c565b61092f565b6040516102449190613b4b565b60405180910390f35b34801561025957600080fd5b50610274600480360381019061026f91906131ff565b610a11565b604051610281919061398e565b60405180910390f35b34801561029657600080fd5b5061029f610a50565b6040516102ac9190613b81565b60405180910390f35b3480156102c157600080fd5b506102dc60048036038101906102d791906131ff565b610ae2565b6040516102e9919061398e565b60405180910390f35b3480156102fe57600080fd5b50610319600480360381019061031491906130ef565b610b67565b005b34801561032757600080fd5b50610342600480360381019061033d9190612fd0565b610c7f565b60405161034f9190613b66565b60405180910390f35b34801561036457600080fd5b5061037f600480360381019061037a91906131ff565b610c93565b60405161038c9190613b4b565b60405180910390f35b3480156103a157600080fd5b506103bc60048036038101906103b79190612f7d565b610d2b565b005b3480156103ca57600080fd5b506103e560048036038101906103e091906131ff565b610da4565b6040516103f29190613b4b565b60405180910390f35b34801561040757600080fd5b50610422600480360381019061041d91906131b6565b610e3a565b60405161042f9190613b4b565b60405180910390f35b34801561044457600080fd5b5061045f600480360381019061045a9190612f10565b61101f565b60405161046c9190613b4b565b60405180910390f35b34801561048157600080fd5b5061049c60048036038101906104979190612f7d565b61103f565b005b3480156104aa57600080fd5b506104c560048036038101906104c091906130ef565b6110b8565b6040516104d29190613b4b565b60405180910390f35b3480156104e757600080fd5b5061050260048036038101906104fd91906131ff565b6110cc565b60405161051799989796959493929190613a11565b60405180910390f35b34801561052c57600080fd5b50610547600480360381019061054291906131ff565b6111ab565b604051610554919061398e565b60405180910390f35b34801561056957600080fd5b5061057261125d565b60405161057f9190613e85565b60405180910390f35b34801561059457600080fd5b506105af60048036038101906105aa9190613300565b611263565b6040516105bc9190613b4b565b60405180910390f35b3480156105d157600080fd5b506105ec60048036038101906105e791906131ff565b61134c565b6040516105f99190613b4b565b60405180910390f35b34801561060e57600080fd5b5061062960048036038101906106249190612f10565b6113e4565b6040516106369190613e85565b60405180910390f35b34801561064b57600080fd5b50610666600480360381019061066191906131b6565b61149c565b6040516106739190613e85565b60405180910390f35b61069660048036038101906106919190613053565b611600565b005b3480156106a457600080fd5b506106bf60048036038101906106ba9190613259565b611697565b6040516106cc9190613b4b565b60405180910390f35b3480156106e157600080fd5b506106ea6116c6565b6040516106f79190613e85565b60405180910390f35b34801561070c57600080fd5b506107156116cc565b6040516107229190613b81565b60405180910390f35b34801561073757600080fd5b50610752600480360381019061074d91906130af565b61175e565b005b34801561076057600080fd5b5061077b60048036038101906107769190613299565b6118df565b6040516107889190613b4b565b60405180910390f35b34801561079d57600080fd5b506107a661197c565b6040516107b39190613e85565b60405180910390f35b3480156107c857600080fd5b506107e360048036038101906107de9190612fd0565b611982565b005b3480156107f157600080fd5b5061080c600480360381019061080791906131ff565b6119fc565b6040516108199190613e63565b60405180910390f35b34801561082e57600080fd5b50610849600480360381019061084491906131ff565b611bd8565b6040516108569190613b81565b60405180910390f35b34801561086b57600080fd5b5061088660048036038101906108819190613259565b611d2a565b6040516108939190613b4b565b60405180910390f35b3480156108a857600080fd5b506108b1611d92565b6040516108be9190613e85565b60405180910390f35b3480156108d357600080fd5b506108dc611d98565b6040516108e99190613b4b565b60405180910390f35b3480156108fe57600080fd5b5061091960048036038101906109149190612f3d565b611dab565b6040516109269190613b4b565b60405180910390f35b60007f80ac58cd000000000000000000000000000000000000000000000000000000007bffffffffffffffffffffffffffffffffffffffffffffffffffffffff1916827bffffffffffffffffffffffffffffffffffffffffffffffffffffffff191614806109fa57507f5b5e139f000000000000000000000000000000000000000000000000000000007bffffffffffffffffffffffffffffffffffffffffffffffffffffffff1916827bffffffffffffffffffffffffffffffffffffffffffffffffffffffff1916145b80610a0a5750610a0982611e3f565b5b9050919050565b600b8181548110610a2157600080fd5b906000526020600020016000915054906101000a900473ffffffffffffffffffffffffffffffffffffffff1681565b606060008054610a5f906141e7565b80601f0160208091040260200160405190810160405280929190818152602001828054610a8b906141e7565b8015610ad85780601f10610aad57610100808354040283529160200191610ad8565b820191906000526020600020905b815481529060010190602001808311610abb57829003601f168201915b5050505050905090565b6000610aed82611ea9565b610b2c576040517f08c379a0000000000000000000000000000000000000000000000000000000008152600401610b2390613d63565b60405180910390fd5b6004600083815260200190815260200160002060009054906101000a900473ffffffffffffffffffffffffffffffffffffffff169050919050565b6000610b72826111ab565b90508073ffffffffffffffffffffffffffffffffffffffff168373ffffffffffffffffffffffffffffffffffffffff161415610be3576040517f08c379a0000000000000000000000000000000000000000000000000000000008152600401610bda90613e03565b60405180910390fd5b8073ffffffffffffffffffffffffffffffffffffffff16610c02611f15565b73ffffffffffffffffffffffffffffffffffffffff161480610c315750610c3081610c2b611f15565b611dab565b5b610c70576040517f08c379a0000000000000000000000000000000000000000000000000000000008152600401610c6790613c83565b60405180910390fd5b610c7a8383611f1d565b505050565b600063150b7a0260e01b9050949350505050565b600073__CollaborativeMinterHolder_____________63a5cdf75a83600e306040518463ffffffff1660e01b8152600401610cd193929190613ec9565b60206040518083038186803b158015610ce957600080fd5b505af4158015610cfd573d6000803e3d6000fd5b505050506040513d601f19601f82011682018060405250810190610d21919061312f565b5060019050919050565b73__CollaborativeMinterHolder_____________6323264178848484600d54600e306040518763ffffffff1660e01b8152600401610d6f96959493929190613aea565b60006040518083038186803b158015610d8757600080fd5b505af4158015610d9b573d6000803e3d6000fd5b50505050505050565b600073__CollaborativeMinterHolder_____________63ae41112e83600e6040518363ffffffff1660e01b8152600401610de0929190613ea0565b60206040518083038186803b158015610df857600080fd5b505af4158015610e0c573d6000803e3d6000fd5b505050506040513d601f19601f82011682018060405250810190610e30919061312f565b5060019050919050565b6000600c60003373ffffffffffffffffffffffffffffffffffffffff1673ffffffffffffffffffffffffffffffffffffffff16815260200190815260200160002060009054906101000a900460ff16610ec8576040517f08c379a0000000000000000000000000000000000000000000000000000000008152600401610ebf90613e23565b60405180910390fd5b600060075411610f0d576040517f08c379a0000000000000000000000000000000000000000000000000000000008152600401610f0490613de3565b60405180910390fd5b600a60009054906101000a900460ff1615610f5d576040517f08c379a0000000000000000000000000000000000000000000000000000000008152600401610f5490613d23565b60405180910390fd5b60005b600754811015610fc657610f743082611fd6565b610fb3576040517f08c379a0000000000000000000000000000000000000000000000000000000008152600401610faa90613d83565b60405180910390fd5b8080610fbe9061424a565b915050610f60565b506001600a60006101000a81548160ff02191690831515021790555060005b60075481101561100b57610ff8816120b4565b80806110039061424a565b915050610fe5565b5061101582612107565b5060019050919050565b600c6020528060005260406000206000915054906101000a900460ff1681565b73__CollaborativeMinterHolder_____________6323264178848484600d54600e306040518763ffffffff1660e01b815260040161108396959493929190613aea565b60006040518083038186803b15801561109b57600080fd5b505af41580156110af573d6000803e3d6000fd5b50505050505050565b60006110c48383611fd6565b905092915050565b600e81815481106110dc57600080fd5b90600052602060002090600602016000915090508060000160009054906101000a900473ffffffffffffffffffffffffffffffffffffffff16908060010160009054906101000a900473ffffffffffffffffffffffffffffffffffffffff16908060030154908060040160009054906101000a900460ff16908060040160019054906101000a900460ff16908060040160029054906101000a900460ff16908060040160039054906101000a900460ff16908060040160049054906101000a900460ff16908060050154905089565b6000806002600084815260200190815260200160002060009054906101000a900473ffffffffffffffffffffffffffffffffffffffff169050600073ffffffffffffffffffffffffffffffffffffffff168173ffffffffffffffffffffffffffffffffffffffff161415611254576040517f08c379a000000000000000000000000000000000000000000000000000000000815260040161124b90613cc3565b60405180910390fd5b80915050919050565b600d5481565b600083600e818154811061127a57611279614351565b5b906000526020600020906006020160040160049054906101000a900460ff166112d8576040517f08c379a00000000000000000000000000000000000000000000000000000000081526004016112cf90613ba3565b60405180910390fd5b82600f600087815260200190815260200160002060008673ffffffffffffffffffffffffffffffffffffffff1673ffffffffffffffffffffffffffffffffffffffff16815260200190815260200160002060006101000a81548160ff02191690831515021790555060019150509392505050565b600073__CollaborativeMinterHolder_____________63604b5dbd83600e306040518463ffffffff1660e01b815260040161138a93929190613ec9565b60206040518083038186803b1580156113a257600080fd5b505af41580156113b6573d6000803e3d6000fd5b505050506040513d601f19601f820116820180604052508101906113da919061312f565b5060019050919050565b60008073ffffffffffffffffffffffffffffffffffffffff168273ffffffffffffffffffffffffffffffffffffffff161415611455576040517f08c379a000000000000000000000000000000000000000000000000000000000815260040161144c90613ca3565b60405180910390fd5b600360008373ffffffffffffffffffffffffffffffffffffffff1673ffffffffffffffffffffffffffffffffffffffff168152602001908152602001600020549050919050565b6000600b600854815481106114b4576114b3614351565b5b9060005260206000200160009054906101000a900473ffffffffffffffffffffffffffffffffffffffff1673ffffffffffffffffffffffffffffffffffffffff163373ffffffffffffffffffffffffffffffffffffffff161461154c576040517f08c379a000000000000000000000000000000000000000000000000000000000815260040161154390613e43565b60405180910390fd5b600a60009054906101000a900460ff161561159c576040517f08c379a000000000000000000000000000000000000000000000000000000000815260040161159390613d23565b60405180910390fd5b600060075490506115ad3082612141565b6115b7818461215f565b60016007546115c69190614040565b6007819055506000600b8054905060016008546115e39190614040565b6115ed9190614293565b9050806008819055508192505050919050565b73__CollaborativeMinterHolder_____________63032882ce33848434600e306040518763ffffffff1660e01b8152600401611642969594939291906139a9565b60206040518083038186803b15801561165a57600080fd5b505af415801561166e573d6000803e3d6000fd5b505050506040513d601f19601f82011682018060405250810190611692919061322c565b505050565b600f6020528160005260406000206020528060005260406000206000915091509054906101000a900460ff1681565b60095481565b6060600180546116db906141e7565b80601f0160208091040260200160405190810160405280929190818152602001828054611707906141e7565b80156117545780601f1061172957610100808354040283529160200191611754565b820191906000526020600020905b81548152906001019060200180831161173757829003601f168201915b5050505050905090565b611766611f15565b73ffffffffffffffffffffffffffffffffffffffff168273ffffffffffffffffffffffffffffffffffffffff1614156117d4576040517f08c379a00000000000000000000000000000000000000000000000000000000081526004016117cb90613c23565b60405180910390fd5b80600560006117e1611f15565b73ffffffffffffffffffffffffffffffffffffffff1673ffffffffffffffffffffffffffffffffffffffff16815260200190815260200160002060008473ffffffffffffffffffffffffffffffffffffffff1673ffffffffffffffffffffffffffffffffffffffff16815260200190815260200160002060006101000a81548160ff0219169083151502179055508173ffffffffffffffffffffffffffffffffffffffff1661188e611f15565b73ffffffffffffffffffffffffffffffffffffffff167f17307eab39ab6107e8899845ad3d59bd9653f200f220920489ca2b5937696c31836040516118d39190613b4b565b60405180910390a35050565b600084600e81815481106118f6576118f5614351565b5b906000526020600020906006020160040160039054906101000a900460ff16611954576040517f08c379a000000000000000000000000000000000000000000000000000000000815260040161194b90613c63565b60405180910390fd5b61196f858585604051806020016040528060008152506121d3565b6001915050949350505050565b60085481565b73__CollaborativeMinterHolder_____________6323264178858585600d54600e306040518763ffffffff1660e01b81526004016119c696959493929190613aea565b60006040518083038186803b1580156119de57600080fd5b505af41580156119f2573d6000803e3d6000fd5b5050505050505050565b611a04612b93565b600e8281548110611a1857611a17614351565b5b9060005260206000209060060201604051806101400160405290816000820160009054906101000a900473ffffffffffffffffffffffffffffffffffffffff1673ffffffffffffffffffffffffffffffffffffffff1673ffffffffffffffffffffffffffffffffffffffff1681526020016001820160009054906101000a900473ffffffffffffffffffffffffffffffffffffffff1673ffffffffffffffffffffffffffffffffffffffff1673ffffffffffffffffffffffffffffffffffffffff16815260200160028201805480602002602001604051908101604052809291908181526020018280548015611b2d57602002820191906000526020600020905b815481526020019060010190808311611b19575b50505050508152602001600382015481526020016004820160009054906101000a900460ff161515151581526020016004820160019054906101000a900460ff161515151581526020016004820160029054906101000a900460ff161515151581526020016004820160039054906101000a900460ff161515151581526020016004820160049054906101000a900460ff161515151581526020016005820154815250509050919050565b6060611be382611ea9565b611c22576040517f08c379a0000000000000000000000000000000000000000000000000000000008152600401611c1990613d43565b60405180910390fd5b6000600660008481526020019081526020016000208054611c42906141e7565b80601f0160208091040260200160405190810160405280929190818152602001828054611c6e906141e7565b8015611cbb5780601f10611c9057610100808354040283529160200191611cbb565b820191906000526020600020905b815481529060010190602001808311611c9e57829003601f168201915b505050505090506000611ccc61222f565b9050600081511415611ce2578192505050611d25565b600082511115611d17578082604051602001611cff92919061396a565b60405160208183030381529060405292505050611d25565b611d2084612246565b925050505b919050565b6000600f600084815260200190815260200160002060008373ffffffffffffffffffffffffffffffffffffffff1673ffffffffffffffffffffffffffffffffffffffff16815260200190815260200160002060009054906101000a900460ff16905092915050565b60075481565b600a60009054906101000a900460ff1681565b6000600560008473ffffffffffffffffffffffffffffffffffffffff1673ffffffffffffffffffffffffffffffffffffffff16815260200190815260200160002060008373ffffffffffffffffffffffffffffffffffffffff1673ffffffffffffffffffffffffffffffffffffffff16815260200190815260200160002060009054906101000a900460ff16905092915050565b60007f01ffc9a7000000000000000000000000000000000000000000000000000000007bffffffffffffffffffffffffffffffffffffffffffffffffffffffff1916827bffffffffffffffffffffffffffffffffffffffffffffffffffffffff1916149050919050565b60008073ffffffffffffffffffffffffffffffffffffffff166002600084815260200190815260200160002060009054906101000a900473ffffffffffffffffffffffffffffffffffffffff1673ffffffffffffffffffffffffffffffffffffffff1614159050919050565b600033905090565b816004600083815260200190815260200160002060006101000a81548173ffffffffffffffffffffffffffffffffffffffff021916908373ffffffffffffffffffffffffffffffffffffffff160217905550808273ffffffffffffffffffffffffffffffffffffffff16611f90836111ab565b73ffffffffffffffffffffffffffffffffffffffff167f8c5be1e5ebec7d5bd14f71427d1e84f3dd0314c0f7b2291e5b200ac8c7c3b92560405160405180910390a45050565b6000611fe182611ea9565b612020576040517f08c379a000000000000000000000000000000000000000000000000000000000815260040161201790613c43565b60405180910390fd5b600061202b836111ab565b90508073ffffffffffffffffffffffffffffffffffffffff168473ffffffffffffffffffffffffffffffffffffffff16148061209a57508373ffffffffffffffffffffffffffffffffffffffff1661208284610ae2565b73ffffffffffffffffffffffffffffffffffffffff16145b806120ab57506120aa8185611dab565b5b91505092915050565b6120bd816122ed565b60006006600083815260200190815260200160002080546120dd906141e7565b905014612104576006600082815260200190815260200160002060006121039190612c1c565b5b50565b60008060075490506121193082612141565b612123818461215f565b60016007546121329190614040565b60078190555080915050919050565b61215b8282604051806020016040528060008152506123fe565b5050565b61216882611ea9565b6121a7576040517f08c379a000000000000000000000000000000000000000000000000000000000815260040161219e90613ce3565b60405180910390fd5b806006600084815260200190815260200160002090805190602001906121ce929190612c5c565b505050565b6121de848484612459565b6121ea848484846126b5565b612229576040517f08c379a000000000000000000000000000000000000000000000000000000000815260040161222090613bc3565b60405180910390fd5b50505050565b606060405180602001604052806000815250905090565b606061225182611ea9565b612290576040517f08c379a000000000000000000000000000000000000000000000000000000000815260040161228790613dc3565b60405180910390fd5b600061229a61222f565b905060008151116122ba57604051806020016040528060008152506122e5565b806122c48461284c565b6040516020016122d592919061396a565b6040516020818303038152906040525b915050919050565b60006122f8826111ab565b9050612306816000846129ad565b612311600083611f1d565b6001600360008373ffffffffffffffffffffffffffffffffffffffff1673ffffffffffffffffffffffffffffffffffffffff168152602001908152602001600020600082825461236191906140c7565b925050819055506002600083815260200190815260200160002060006101000a81549073ffffffffffffffffffffffffffffffffffffffff021916905581600073ffffffffffffffffffffffffffffffffffffffff168273ffffffffffffffffffffffffffffffffffffffff167fddf252ad1be2c89b69c2b068fc378daa952ba7f163c4a11628f55a4df523b3ef60405160405180910390a45050565b61240883836129b2565b61241560008484846126b5565b612454576040517f08c379a000000000000000000000000000000000000000000000000000000000815260040161244b90613bc3565b60405180910390fd5b505050565b8273ffffffffffffffffffffffffffffffffffffffff16612479826111ab565b73ffffffffffffffffffffffffffffffffffffffff16146124cf576040517f08c379a00000000000000000000000000000000000000000000000000000000081526004016124c690613da3565b60405180910390fd5b600073ffffffffffffffffffffffffffffffffffffffff168273ffffffffffffffffffffffffffffffffffffffff16141561253f576040517f08c379a000000000000000000000000000000000000000000000000000000000815260040161253690613c03565b60405180910390fd5b61254a8383836129ad565b612555600082611f1d565b6001600360008573ffffffffffffffffffffffffffffffffffffffff1673ffffffffffffffffffffffffffffffffffffffff16815260200190815260200160002060008282546125a591906140c7565b925050819055506001600360008473ffffffffffffffffffffffffffffffffffffffff1673ffffffffffffffffffffffffffffffffffffffff16815260200190815260200160002060008282546125fc9190614040565b92505081905550816002600083815260200190815260200160002060006101000a81548173ffffffffffffffffffffffffffffffffffffffff021916908373ffffffffffffffffffffffffffffffffffffffff160217905550808273ffffffffffffffffffffffffffffffffffffffff168473ffffffffffffffffffffffffffffffffffffffff167fddf252ad1be2c89b69c2b068fc378daa952ba7f163c4a11628f55a4df523b3ef60405160405180910390a4505050565b60006126d68473ffffffffffffffffffffffffffffffffffffffff16612b80565b1561283f578373ffffffffffffffffffffffffffffffffffffffff1663150b7a026126ff611f15565b8786866040518563ffffffff1660e01b81526004016127219493929190613a9e565b602060405180830381600087803b15801561273b57600080fd5b505af192505050801561276c57506040513d601f19601f820116820180604052508101906127699190613189565b60015b6127ef573d806000811461279c576040519150601f19603f3d011682016040523d82523d6000602084013e6127a1565b606091505b506000815114156127e7576040517f08c379a00000000000000000000000000000000000000000000000000000000081526004016127de90613bc3565b60405180910390fd5b805181602001fd5b63150b7a0260e01b7bffffffffffffffffffffffffffffffffffffffffffffffffffffffff1916817bffffffffffffffffffffffffffffffffffffffffffffffffffffffff191614915050612844565b600190505b949350505050565b60606000821415612894576040518060400160405280600181526020017f300000000000000000000000000000000000000000000000000000000000000081525090506129a8565b600082905060005b600082146128c65780806128af9061424a565b915050600a826128bf9190614096565b915061289c565b60008167ffffffffffffffff8111156128e2576128e1614380565b5b6040519080825280601f01601f1916602001820160405280156129145781602001600182028036833780820191505090505b5090505b600085146129a15760018261292d91906140c7565b9150600a8561293c9190614293565b60306129489190614040565b60f81b81838151811061295e5761295d614351565b5b60200101907effffffffffffffffffffffffffffffffffffffffffffffffffffffffffffff1916908160001a905350600a8561299a9190614096565b9450612918565b8093505050505b919050565b505050565b600073ffffffffffffffffffffffffffffffffffffffff168273ffffffffffffffffffffffffffffffffffffffff161415612a22576040517f08c379a0000000000000000000000000000000000000000000000000000000008152600401612a1990613d03565b60405180910390fd5b612a2b81611ea9565b15612a6b576040517f08c379a0000000000000000000000000000000000000000000000000000000008152600401612a6290613be3565b60405180910390fd5b612a77600083836129ad565b6001600360008473ffffffffffffffffffffffffffffffffffffffff1673ffffffffffffffffffffffffffffffffffffffff1681526020019081526020016000206000828254612ac79190614040565b92505081905550816002600083815260200190815260200160002060006101000a81548173ffffffffffffffffffffffffffffffffffffffff021916908373ffffffffffffffffffffffffffffffffffffffff160217905550808273ffffffffffffffffffffffffffffffffffffffff16600073ffffffffffffffffffffffffffffffffffffffff167fddf252ad1be2c89b69c2b068fc378daa952ba7f163c4a11628f55a4df523b3ef60405160405180910390a45050565b600080823b905060008111915050919050565b604051806101400160405280600073ffffffffffffffffffffffffffffffffffffffff168152602001600073ffffffffffffffffffffffffffffffffffffffff1681526020016060815260200160008152602001600015158152602001600015158152602001600015158152602001600015158152602001600015158152602001600081525090565b508054612c28906141e7565b6000825580601f10612c3a5750612c59565b601f016020900490600052602060002090810190612c589190612ce2565b5b50565b828054612c68906141e7565b90600052602060002090601f016020900481019282612c8a5760008555612cd1565b82601f10612ca357805160ff1916838001178555612cd1565b82800160010185558215612cd1579182015b82811115612cd0578251825591602001919060010190612cb5565b5b509050612cde9190612ce2565b5090565b5b80821115612cfb576000816000905550600101612ce3565b5090565b6000612d12612d0d84613f25565b613f00565b90508083825260208201905082856020860282011115612d3557612d346143b4565b5b60005b85811015612d655781612d4b8882612ee6565b845260208401935060208301925050600181019050612d38565b5050509392505050565b6000612d82612d7d84613f51565b613f00565b905082815260208101848484011115612d9e57612d9d6143b9565b5b612da98482856141a5565b509392505050565b6000612dc4612dbf84613f82565b613f00565b905082815260208101848484011115612de057612ddf6143b9565b5b612deb8482856141a5565b509392505050565b600081359050612e0281614973565b92915050565b600082601f830112612e1d57612e1c6143af565b5b8135612e2d848260208601612cff565b91505092915050565b600081359050612e458161498a565b92915050565b600081519050612e5a8161498a565b92915050565b600081359050612e6f816149a1565b92915050565b600081519050612e84816149a1565b92915050565b600082601f830112612e9f57612e9e6143af565b5b8135612eaf848260208601612d6f565b91505092915050565b600082601f830112612ecd57612ecc6143af565b5b8135612edd848260208601612db1565b91505092915050565b600081359050612ef5816149b8565b92915050565b600081519050612f0a816149b8565b92915050565b600060208284031215612f2657612f256143c3565b5b6000612f3484828501612df3565b91505092915050565b60008060408385031215612f5457612f536143c3565b5b6000612f6285828601612df3565b9250506020612f7385828601612df3565b9150509250929050565b600080600060608486031215612f9657612f956143c3565b5b6000612fa486828701612df3565b9350506020612fb586828701612df3565b9250506040612fc686828701612ee6565b9150509250925092565b60008060008060808587031215612fea57612fe96143c3565b5b6000612ff887828801612df3565b945050602061300987828801612df3565b935050604061301a87828801612ee6565b925050606085013567ffffffffffffffff81111561303b5761303a6143be565b5b61304787828801612e8a565b91505092959194509250565b6000806040838503121561306a576130696143c3565b5b600061307885828601612df3565b925050602083013567ffffffffffffffff811115613099576130986143be565b5b6130a585828601612e08565b9150509250929050565b600080604083850312156130c6576130c56143c3565b5b60006130d485828601612df3565b92505060206130e585828601612e36565b9150509250929050565b60008060408385031215613106576131056143c3565b5b600061311485828601612df3565b925050602061312585828601612ee6565b9150509250929050565b600060208284031215613145576131446143c3565b5b600061315384828501612e4b565b91505092915050565b600060208284031215613172576131716143c3565b5b600061318084828501612e60565b91505092915050565b60006020828403121561319f5761319e6143c3565b5b60006131ad84828501612e75565b91505092915050565b6000602082840312156131cc576131cb6143c3565b5b600082013567ffffffffffffffff8111156131ea576131e96143be565b5b6131f684828501612eb8565b91505092915050565b600060208284031215613215576132146143c3565b5b600061322384828501612ee6565b91505092915050565b600060208284031215613242576132416143c3565b5b600061325084828501612efb565b91505092915050565b600080604083850312156132705761326f6143c3565b5b600061327e85828601612ee6565b925050602061328f85828601612df3565b9150509250929050565b600080600080608085870312156132b3576132b26143c3565b5b60006132c187828801612ee6565b94505060206132d287828801612df3565b93505060406132e387828801612df3565b92505060606132f487828801612ee6565b91505092959194509250565b600080600060608486031215613319576133186143c3565b5b600061332786828701612ee6565b935050602061333886828701612df3565b925050604061334986828701612e36565b9150509250925092565b600061335f838361392e565b60208301905092915050565b6000613377838361395b565b60208301905092915050565b61338c816140fb565b82525050565b61339b816140fb565b82525050565b6133aa816140fb565b82525050565b8082525050565b60006133c282613fc3565b6133cc8185613ff1565b93506133d783613fb3565b8060005b838110156134085781516133ef8882613353565b97506133fa83613fe4565b9250506001810190506133db565b5085935050505092915050565b600061342082613fc3565b61342a8185614002565b935061343583613fb3565b8060005b8381101561346657815161344d888261336b565b975061345883613fe4565b925050600181019050613439565b5085935050505092915050565b61347c8161410d565b82525050565b61348b8161410d565b82525050565b61349a81614119565b82525050565b60006134ab82613fce565b6134b58185614013565b93506134c58185602086016141b4565b6134ce816143c8565b840191505092915050565b6134e28161416f565b82525050565b60006134f382613fd9565b6134fd8185614024565b935061350d8185602086016141b4565b613516816143c8565b840191505092915050565b600061352c82613fd9565b6135368185614035565b93506135468185602086016141b4565b80840191505092915050565b600061355f602283614024565b915061356a826143d9565b604082019050919050565b6000613582603283614024565b915061358d82614428565b604082019050919050565b60006135a5601c83614024565b91506135b082614477565b602082019050919050565b60006135c8602483614024565b91506135d3826144a0565b604082019050919050565b60006135eb601983614024565b91506135f6826144ef565b602082019050919050565b600061360e602c83614024565b915061361982614518565b604082019050919050565b6000613631602783614024565b915061363c82614567565b604082019050919050565b6000613654603883614024565b915061365f826145b6565b604082019050919050565b6000613677602a83614024565b915061368282614605565b604082019050919050565b600061369a602983614024565b91506136a582614654565b604082019050919050565b60006136bd602e83614024565b91506136c8826146a3565b604082019050919050565b60006136e0602083614024565b91506136eb826146f2565b602082019050919050565b6000613703601c83614024565b915061370e8261471b565b602082019050919050565b6000613726603183614024565b915061373182614744565b604082019050919050565b6000613749602c83614024565b915061375482614793565b604082019050919050565b600061376c602083614024565b9150613777826147e2565b602082019050919050565b600061378f602983614024565b915061379a8261480b565b604082019050919050565b60006137b2602f83614024565b91506137bd8261485a565b604082019050919050565b60006137d5601883614024565b91506137e0826148a9565b602082019050919050565b60006137f8602183614024565b9150613803826148d2565b604082019050919050565b600061381b600c83614024565b915061382682614921565b602082019050919050565b600061383e600d83614024565b91506138498261494a565b602082019050919050565b60006101408301600083015161386d6000860182613383565b5060208301516138806020860182613383565b506040830151848203604086015261389882826133b7565b91505060608301516138ad606086018261392e565b5060808301516138c06080860182613473565b5060a08301516138d360a0860182613473565b5060c08301516138e660c0860182613473565b5060e08301516138f960e0860182613473565b5061010083015161390e610100860182613473565b5061012083015161392361012086018261392e565b508091505092915050565b61393781614165565b82525050565b61394681614165565b82525050565b61395581614165565b82525050565b61396481614165565b82525050565b60006139768285613521565b91506139828284613521565b91508190509392505050565b60006020820190506139a36000830184613392565b92915050565b600060c0820190506139be60008301896133a1565b6139cb60208301886133a1565b81810360408301526139dd8187613415565b90506139ec606083018661394c565b6139f960808301856133b0565b613a0660a08301846134d9565b979650505050505050565b600061012082019050613a27600083018c613392565b613a34602083018b613392565b613a41604083018a61393d565b613a4e6060830189613482565b613a5b6080830188613482565b613a6860a0830187613482565b613a7560c0830186613482565b613a8260e0830185613482565b613a9061010083018461393d565b9a9950505050505050505050565b6000608082019050613ab36000830187613392565b613ac06020830186613392565b613acd604083018561393d565b8181036060830152613adf81846134a0565b905095945050505050565b600060c082019050613aff60008301896133a1565b613b0c60208301886133a1565b613b19604083018761394c565b613b26606083018661394c565b613b3360808301856133b0565b613b4060a08301846134d9565b979650505050505050565b6000602082019050613b606000830184613482565b92915050565b6000602082019050613b7b6000830184613491565b92915050565b60006020820190508181036000830152613b9b81846134e8565b905092915050565b60006020820190508181036000830152613bbc81613552565b9050919050565b60006020820190508181036000830152613bdc81613575565b9050919050565b60006020820190508181036000830152613bfc81613598565b9050919050565b60006020820190508181036000830152613c1c816135bb565b9050919050565b60006020820190508181036000830152613c3c816135de565b9050919050565b60006020820190508181036000830152613c5c81613601565b9050919050565b60006020820190508181036000830152613c7c81613624565b9050919050565b60006020820190508181036000830152613c9c81613647565b9050919050565b60006020820190508181036000830152613cbc8161366a565b9050919050565b60006020820190508181036000830152613cdc8161368d565b9050919050565b60006020820190508181036000830152613cfc816136b0565b9050919050565b60006020820190508181036000830152613d1c816136d3565b9050919050565b60006020820190508181036000830152613d3c816136f6565b9050919050565b60006020820190508181036000830152613d5c81613719565b9050919050565b60006020820190508181036000830152613d7c8161373c565b9050919050565b60006020820190508181036000830152613d9c8161375f565b9050919050565b60006020820190508181036000830152613dbc81613782565b9050919050565b60006020820190508181036000830152613ddc816137a5565b9050919050565b60006020820190508181036000830152613dfc816137c8565b9050919050565b60006020820190508181036000830152613e1c816137eb565b9050919050565b60006020820190508181036000830152613e3c8161380e565b9050919050565b60006020820190508181036000830152613e5c81613831565b9050919050565b60006020820190508181036000830152613e7d8184613854565b905092915050565b6000602082019050613e9a600083018461393d565b92915050565b6000604082019050613eb5600083018561394c565b613ec260208301846133b0565b9392505050565b6000606082019050613ede600083018661394c565b613eeb60208301856133b0565b613ef860408301846134d9565b949350505050565b6000613f0a613f1b565b9050613f168282614219565b919050565b6000604051905090565b600067ffffffffffffffff821115613f4057613f3f614380565b5b602082029050602081019050919050565b600067ffffffffffffffff821115613f6c57613f6b614380565b5b613f75826143c8565b9050602081019050919050565b600067ffffffffffffffff821115613f9d57613f9c614380565b5b613fa6826143c8565b9050602081019050919050565b6000819050602082019050919050565b600081519050919050565b600081519050919050565b600081519050919050565b6000602082019050919050565b600082825260208201905092915050565b600082825260208201905092915050565b600082825260208201905092915050565b600082825260208201905092915050565b600081905092915050565b600061404b82614165565b915061405683614165565b9250827fffffffffffffffffffffffffffffffffffffffffffffffffffffffffffffffff0382111561408b5761408a6142c4565b5b828201905092915050565b60006140a182614165565b91506140ac83614165565b9250826140bc576140bb6142f3565b5b828204905092915050565b60006140d282614165565b91506140dd83614165565b9250828210156140f0576140ef6142c4565b5b828203905092915050565b600061410682614145565b9050919050565b60008115159050919050565b60007fffffffff0000000000000000000000000000000000000000000000000000000082169050919050565b600073ffffffffffffffffffffffffffffffffffffffff82169050919050565b6000819050919050565b600061417a82614181565b9050919050565b600061418c82614193565b9050919050565b600061419e82614145565b9050919050565b82818337600083830152505050565b60005b838110156141d25780820151818401526020810190506141b7565b838111156141e1576000848401525b50505050565b600060028204905060018216806141ff57607f821691505b6020821081141561421357614212614322565b5b50919050565b614222826143c8565b810181811067ffffffffffffffff8211171561424157614240614380565b5b80604052505050565b600061425582614165565b91507fffffffffffffffffffffffffffffffffffffffffffffffffffffffffffffffff821415614288576142876142c4565b5b600182019050919050565b600061429e82614165565b91506142a983614165565b9250826142b9576142b86142f3565b5b828206905092915050565b7f4e487b7100000000000000000000000000000000000000000000000000000000600052601160045260246000fd5b7f4e487b7100000000000000000000000000000000000000000000000000000000600052601260045260246000fd5b7f4e487b7100000000000000000000000000000000000000000000000000000000600052602260045260246000fd5b7f4e487b7100000000000000000000000000000000000000000000000000000000600052603260045260246000fd5b7f4e487b7100000000000000000000000000000000000000000000000000000000600052604160045260246000fd5b600080fd5b600080fd5b600080fd5b600080fd5b600080fd5b6000601f19601f8301169050919050565b7f7472616e73616374696f6e206d757374206265206265696e67206d6f6469666960008201527f6564000000000000000000000000000000000000000000000000000000000000602082015250565b7f4552433732313a207472616e7366657220746f206e6f6e20455243373231526560008201527f63656976657220696d706c656d656e7465720000000000000000000000000000602082015250565b7f4552433732313a20746f6b656e20616c7265616479206d696e74656400000000600082015250565b7f4552433732313a207472616e7366657220746f20746865207a65726f2061646460008201527f7265737300000000000000000000000000000000000000000000000000000000602082015250565b7f4552433732313a20617070726f766520746f2063616c6c657200000000000000600082015250565b7f4552433732313a206f70657261746f7220717565727920666f72206e6f6e657860008201527f697374656e7420746f6b656e0000000000000000000000000000000000000000602082015250565b7f7472616e73616374696f6e206d7573742062652063757272656e746c7920657860008201527f65637574696e6700000000000000000000000000000000000000000000000000602082015250565b7f4552433732313a20617070726f76652063616c6c6572206973206e6f74206f7760008201527f6e6572206e6f7220617070726f76656420666f7220616c6c0000000000000000602082015250565b7f4552433732313a2062616c616e636520717565727920666f7220746865207a6560008201527f726f206164647265737300000000000000000000000000000000000000000000602082015250565b7f4552433732313a206f776e657220717565727920666f72206e6f6e657869737460008201527f656e7420746f6b656e0000000000000000000000000000000000000000000000602082015250565b7f45524337323155524953746f726167653a2055524920736574206f66206e6f6e60008201527f6578697374656e7420746f6b656e000000000000000000000000000000000000602082015250565b7f4552433732313a206d696e7420746f20746865207a65726f2061646472657373600082015250565b7f4e4654206973206120636f6d706c6574656420636f6d706f7369746500000000600082015250565b7f45524337323155524953746f726167653a2055524920717565727920666f722060008201527f6e6f6e6578697374656e7420746f6b656e000000000000000000000000000000602082015250565b7f4552433732313a20617070726f76656420717565727920666f72206e6f6e657860008201527f697374656e7420746f6b656e0000000000000000000000000000000000000000602082015250565b7f6e6f7420616c6c20746f6b656e73206f776e656420627920636f6e7472616374600082015250565b7f4552433732313a207472616e73666572206f6620746f6b656e2074686174206960008201527f73206e6f74206f776e0000000000000000000000000000000000000000000000602082015250565b7f4552433732314d657461646174613a2055524920717565727920666f72206e6f60008201527f6e6578697374656e7420746f6b656e0000000000000000000000000000000000602082015250565b7f6e6f204e4654732068617665206265656e206d696e7465640000000000000000600082015250565b7f4552433732313a20617070726f76616c20746f2063757272656e74206f776e6560008201527f7200000000000000000000000000000000000000000000000000000000000000602082015250565b7f6e6f7420616e206f776e65720000000000000000000000000000000000000000600082015250565b7f6e6f7420796f7572207475726e00000000000000000000000000000000000000600082015250565b61497c816140fb565b811461498757600080fd5b50565b6149938161410d565b811461499e57600080fd5b50565b6149aa81614119565b81146149b557600080fd5b50565b6149c181614165565b81146149cc57600080fd5b5056fea2646970667358221220e2b5474109097953b4024a09b58a2959acf86adc4a98e615bcf7bcbf5282f20064736f6c63430008070033",
  "immutableReferences": {},
  "source": "// SPDX-License-Identifier: MIT\r\npragma solidity ^0.8.0;\r\n\r\n// ERC721URIStorage allows you to set tokenURI after minting\r\n// ERC721Holder ensures that a smart contract can hold NFTs\r\nimport \"@openzeppelin/contracts/token/ERC721/extensions/ERC721URIStorage.sol\";\r\nimport \"@openzeppelin/contracts/token/ERC721/utils/ERC721Holder.sol\";\r\n\r\nlibrary CollaborativeMinterHolder {\r\n\r\n    struct SalesTransaction {\r\n      address from; // buyer\r\n      address to; // recipient of token\r\n      uint256[] tokenIds; // tokens for sale\r\n      uint256 value; // price for token\r\n      bool secondarySale; // check if we have a secondary sale\r\n      bool revoked;\r\n      bool executed;\r\n      bool executing; // check if library is executing transation\r\n      bool modifying; // check if transaction is being modified\r\n      uint256 numConfirmations;\r\n    }\r\n\r\n    modifier onlyOwner(CollaborativeMinter _collaborativeMinter) { // restrict to only owners\r\n      require(_collaborativeMinter.isOwner(msg.sender),'not an owner');\r\n      _;\r\n    }\r\n\r\n    // restrict only to transactions that exist\r\n    modifier salesTransactionExists(uint256 _txIndex, SalesTransaction[] storage _salesTransactions) {\r\n      require(_txIndex < _salesTransactions.length, \"sales transaction does not exist\");\r\n      _;\r\n    }\r\n\r\n    // restrict only to transactions that are not executed\r\n    modifier salesTransactionNotExecuted(uint256 _txIndex, SalesTransaction[] storage _salesTransactions) {\r\n      require(!_salesTransactions[_txIndex].executed, \"sales transaction is already executed\");\r\n      _;\r\n    }\r\n\r\n    // restrict only to transactions that are not confirmed by caller\r\n    modifier salesTransactionNotConfirmed(uint256 _txIndex, CollaborativeMinter _collaborativeMinter) {\r\n      require(!_collaborativeMinter.getConfirmation(_txIndex, msg.sender), \"sales transaction is already confirmed\");\r\n      _;\r\n    }\r\n\r\n    // restrict only to transactions that are not revoked by original buyer\r\n    modifier salesTransactionNotRevoked(uint256 _txIndex, SalesTransaction[] storage _salesTransactions) {\r\n      require(!_salesTransactions[_txIndex].revoked, \"sales transaction is already revoked\");\r\n      _;\r\n    }\r\n\r\n    // restrict to the sender of the sales transaction\r\n    modifier onlySalesTransactionSender(uint256 _txIndex, SalesTransaction[] storage _salesTransactions) {\r\n      require(_salesTransactions[_txIndex].from == msg.sender, \"not the sales transaction sender\");\r\n      _;\r\n    }\r\n\r\n    // check if token IDs are valid and are owned by contract\r\n    modifier ownedByContract(uint256[] memory _tokenIds, CollaborativeMinter _collaborativeMinter) {\r\n      for(uint256 i = 0; i < _tokenIds.length; i++){\r\n        require(_tokenIds[i] < _collaborativeMinter.tokenCounter(), \"invalid token ID\");\r\n        require(_collaborativeMinter.isApprovedOrOwner(address(_collaborativeMinter),_tokenIds[i]),\"token not owned by contract\");\r\n      }\r\n      _;\r\n    }\r\n\r\n    modifier allOwnedByContract(CollaborativeMinter _collaborativeMinter) { // check if all NFTs are owned by the contract\r\n      for(uint256 i = 0; i < _collaborativeMinter.tokenCounter(); i++){\r\n        require(_collaborativeMinter.isApprovedOrOwner(address(_collaborativeMinter),i),\"not all tokens owned by contract\");\r\n      }\r\n      _;\r\n    }\r\n\r\n    function submitSalesTransaction(address _from, address _to, uint256[] memory _tokenIds, uint256 _value,\r\n      SalesTransaction[] storage _salesTransactions, CollaborativeMinter _collaborativeMinter)\r\n      ownedByContract(_tokenIds, _collaborativeMinter) public returns (uint256)\r\n    { // buyer sends sales transaction, returns transaction index\r\n      uint256 txIndex = _salesTransactions.length;\r\n\r\n      _salesTransactions.push(SalesTransaction({\r\n        from: _from,\r\n        to: _to,\r\n        tokenIds: _tokenIds,\r\n        value: _value,\r\n        secondarySale: false,\r\n        revoked: false,\r\n        executed: false,\r\n        executing: false,\r\n        modifying: false,\r\n        numConfirmations: 0\r\n      }));\r\n\r\n      return txIndex;\r\n    }\r\n\r\n    function submitSecondarySalesTransaction(address _from, address _to, uint256[] memory _tokenIds, uint256 _value,\r\n      SalesTransaction[] storage _salesTransactions)\r\n      public returns (uint256)\r\n    { // buyer sends sales transaction, returns transaction index\r\n      uint256 txIndex = _salesTransactions.length;\r\n\r\n      _salesTransactions.push(SalesTransaction({\r\n        from: _from,\r\n        to: _to,\r\n        tokenIds: _tokenIds,\r\n        value: _value,\r\n        secondarySale: true,\r\n        revoked: false,\r\n        executed: false,\r\n        executing: false,\r\n        modifying: false,\r\n        numConfirmations: 0\r\n      }));\r\n\r\n      return txIndex;\r\n    }\r\n\r\n    function approveSalesTransaction(uint256 _txIndex, SalesTransaction[] storage _salesTransactions,\r\n      CollaborativeMinter _collaborativeMinter)\r\n      onlyOwner(_collaborativeMinter)\r\n      salesTransactionExists(_txIndex, _salesTransactions)\r\n      salesTransactionNotExecuted(_txIndex, _salesTransactions)\r\n      salesTransactionNotConfirmed(_txIndex, _collaborativeMinter)\r\n      salesTransactionNotRevoked(_txIndex, _salesTransactions)\r\n      public returns (bool)\r\n    { // owner approves sales transaction\r\n      // update confirmations and number of confirmations\r\n      _salesTransactions[_txIndex].modifying = true;\r\n      _collaborativeMinter.setConfirmation(_txIndex, msg.sender, true);\r\n      _salesTransactions[_txIndex].modifying = false;\r\n      _salesTransactions[_txIndex].numConfirmations += 1;\r\n\r\n      if(_salesTransactions[_txIndex].numConfirmations == _collaborativeMinter.numberOfOwners()){ // execute if approved by all owners\r\n        _salesTransactions[_txIndex].executing = true;\r\n        executeSalesTransaction(_txIndex, _salesTransactions, _collaborativeMinter);\r\n        _salesTransactions[_txIndex].executing = false;\r\n      }\r\n      return true;\r\n    }\r\n\r\n    function denySalesTransaction(uint256 _txIndex, SalesTransaction[] storage _salesTransactions,\r\n      CollaborativeMinter _collaborativeMinter)\r\n      onlyOwner(_collaborativeMinter)\r\n      salesTransactionExists(_txIndex, _salesTransactions)\r\n      salesTransactionNotExecuted(_txIndex, _salesTransactions)\r\n      salesTransactionNotRevoked(_txIndex, _salesTransactions)\r\n      public returns (bool)\r\n    { // owner denies sales transaction\r\n      // update confirmations and number of confirmations\r\n      require(_collaborativeMinter.getConfirmation(_txIndex,msg.sender), \"sales transaction not approved by owner\");\r\n      _salesTransactions[_txIndex].modifying = true;\r\n      _collaborativeMinter.setConfirmation(_txIndex, msg.sender, false);\r\n      _salesTransactions[_txIndex].modifying = false;\r\n      _salesTransactions[_txIndex].numConfirmations -= 1;\r\n      return true;\r\n    }\r\n\r\n    // sender revoke sales transaction to get ETH back\r\n    function revokeSalesTransaction(uint256 _txIndex, SalesTransaction[] storage _salesTransactions) public\r\n      salesTransactionExists(_txIndex, _salesTransactions)\r\n      salesTransactionNotExecuted(_txIndex, _salesTransactions)\r\n      salesTransactionNotRevoked(_txIndex, _salesTransactions)\r\n      returns (bool)\r\n    {\r\n      require(_salesTransactions[_txIndex].from == msg.sender, \"must be account that submitted sales transaction\");\r\n      uint256 amountToPay = _salesTransactions[_txIndex].value;\r\n      bool success;\r\n      (success, ) = _salesTransactions[_txIndex].from.call{value: amountToPay}(\"\");\r\n      require(success, \"Transfer failed.\");\r\n      _salesTransactions[_txIndex].revoked = true;\r\n      return true;\r\n    }\r\n\r\n    function executeSalesTransaction(uint _txIndex, SalesTransaction[] storage _salesTransactions,\r\n      CollaborativeMinter _collaborativeMinter) internal returns (bool) {\r\n      uint256[] memory tokens = _salesTransactions[_txIndex].tokenIds;\r\n\r\n      if(_salesTransactions[_txIndex].secondarySale == false) { // initial sale\r\n        // send ETH to each owner\r\n        uint256 amountToPay = _salesTransactions[_txIndex].value / _collaborativeMinter.numberOfOwners();\r\n        bool success;\r\n        // pay each owner\r\n        for(uint256 i = 0; i < _collaborativeMinter.numberOfOwners(); i++){\r\n          (success, ) = _collaborativeMinter.owners(i).call{value:amountToPay}(\"\");\r\n          require(success, \"Transfer failed.\");\r\n        }\r\n      }\r\n      else { // secondary sale\r\n        // apply secondary sale fee and send ETH to each owner\r\n        uint256 secondarySaleValue = _salesTransactions[_txIndex].value / 10; // 10% goes to owners\r\n        uint256 amountToPay = secondarySaleValue / _collaborativeMinter.numberOfOwners();\r\n        bool success;\r\n        // pay each owner\r\n        for(uint256 i = 0; i < _collaborativeMinter.numberOfOwners(); i++){\r\n          (success, ) = _collaborativeMinter.owners(i).call{value:amountToPay}(\"\");\r\n          require(success, \"Transfer failed.\");\r\n        }\r\n      }\r\n\r\n      // send each NFT from the smart contract to the new owner\r\n      for(uint256 i = 0; i < tokens.length; i++){\r\n      _collaborativeMinter.executingTransfer(_txIndex, address(_collaborativeMinter), _salesTransactions[_txIndex].to, tokens[i]);\r\n      }\r\n\r\n      _salesTransactions[_txIndex].executed = true;\r\n      return true;\r\n    }\r\n\r\n    function safeTransferFrom(address _from, address _to, uint256 _tokenId, uint256 _latestReceived,\r\n      SalesTransaction[] storage _salesTransactions, CollaborativeMinter _collaborativeMinter) public {\r\n      require(_collaborativeMinter.isApprovedOrOwner(_from, _tokenId), \"ERC721: transfer caller is not owner nor approved\");\r\n      // create a secondary sales transaction, send NFT to contract, execute secondary sale\r\n      uint256[] memory tokenIdArray = new uint256[](1);\r\n      tokenIdArray[0] = _tokenId;\r\n      uint256 secondarySaleId = submitSecondarySalesTransaction(_from, _to, tokenIdArray, _latestReceived, _salesTransactions);\r\n      _salesTransactions[secondarySaleId].executing = true;\r\n      _collaborativeMinter.executingTransfer(secondarySaleId, _from, address(_collaborativeMinter), _tokenId);\r\n      executeSalesTransaction(secondarySaleId, _salesTransactions, _collaborativeMinter);\r\n      _salesTransactions[secondarySaleId].executing = false;\r\n    }\r\n\r\n}\r\n\r\n// NFT Smart Contract Constructor\r\ncontract CollaborativeMinter is ERC721URIStorage, ERC721Holder{\r\n    uint256 public tokenCounter;\r\n    uint256 public currentOwner; // define whose turn it is at the current time with owners index\\\r\n    uint256 public numberOfOwners;\r\n    bool public isMerged; // defines whether we have a composite NFT\r\n    address[] public owners; // keep track of all owners of the NFT\r\n    mapping(address => bool) public isOwner; // used to check if someone is an owner\r\n\r\n    uint256 public latestReceived; // used to get the msg.value for secondary sales\r\n\r\n    // create structs for use with CollaborativeMinterHolder library\r\n    using CollaborativeMinterHolder for CollaborativeMinterHolder.SalesTransaction;\r\n    CollaborativeMinterHolder.SalesTransaction[] public salesTransactions;\r\n\r\n    mapping(uint => mapping(address => bool)) public isConfirmed;\r\n\r\n    constructor (address[] memory _owners) ERC721 (\"Collaborative Mint\", \"COMINT\"){\r\n      require(_owners.length > 0, \"owners required\");\r\n      tokenCounter = 0;\r\n      numberOfOwners = _owners.length;\r\n      currentOwner = 0; // define the first owner to have an active turn\r\n      isMerged = false;\r\n      for(uint256 i = 0; i < _owners.length; i++){ // define the owners\r\n        owners.push(_owners[i]);\r\n        isOwner[_owners[i]] = true;\r\n      }\r\n    }\r\n\r\n    modifier onlyCurrentOwner { // restrict to only the active owner\r\n      require(msg.sender == owners[currentOwner], \"not your turn\");\r\n      _;\r\n    }\r\n\r\n    modifier onlyOwner { // restrict to only owners\r\n      require(isOwner[msg.sender],'not an owner');\r\n      _;\r\n    }\r\n\r\n    modifier isNotMerged() { // check if we have a composite NFT\r\n      require(!isMerged, \"NFT is a completed composite\");\r\n      _;\r\n    }\r\n\r\n    modifier hasBeenMinted(){ // check if an NFT has been minted\r\n      require(tokenCounter > 0, \"no NFTs have been minted\");\r\n      _;\r\n    }\r\n\r\n    modifier allOwnedByContract() { // check if all NFTs are owned by the contract\r\n      for(uint256 i = 0; i < tokenCounter; i++) {\r\n        require(_isApprovedOrOwner(address(this),i),\"not all tokens owned by contract\");\r\n      }\r\n      _;\r\n    }\r\n\r\n    modifier currentlyExecuting(uint256 _txIndex) { // check if the transaction is currently executing\r\n      require(salesTransactions[_txIndex].executing,\"transaction must be currently executing\");\r\n      _;\r\n    }\r\n\r\n    modifier currentlyModifying(uint256 _txIndex) { // check if the transaction is currently being modified\r\n      require(salesTransactions[_txIndex].modifying,\"transaction must be being modified\");\r\n      _;\r\n    }\r\n\r\n    receive() external payable {\r\n      latestReceived = msg.value;\r\n    }\r\n\r\n    // NFT minting function where only the current owner can mint. Smart contract holds NFTs upon minting\r\n    function collaborativeMint(string memory _tokenURI) public onlyCurrentOwner isNotMerged returns (uint256) {\r\n      uint256 newItemId = tokenCounter;\r\n      _safeMint(address(this), newItemId); // the owner of the NFT is the holder smart contract\r\n      _setTokenURI(newItemId, _tokenURI);\r\n      tokenCounter = tokenCounter + 1;\r\n      uint256 nextOwnerId = (currentOwner + 1) % owners.length; // set up the next turn by getting the following ID\r\n      currentOwner = nextOwnerId; // update whose turn it is\r\n      return newItemId;\r\n    }\r\n\r\n    // NFT minting function where only the current owner can mint. Smart contract holds NFTs upon minting\r\n    function _collaborativeMint(string memory _tokenURI) private returns (uint256) {\r\n      uint256 newItemId = tokenCounter;\r\n      _safeMint(address(this), newItemId); // the owner of the NFT is the holder smart contract\r\n      _setTokenURI(newItemId, _tokenURI);\r\n      tokenCounter = tokenCounter + 1;\r\n      return newItemId;\r\n    }\r\n\r\n    // merge all collaborative mints and create a composite NFT\r\n    function mergeCollaborativeMint(string memory _tokenURI) public onlyOwner\r\n      hasBeenMinted\r\n      isNotMerged\r\n      allOwnedByContract\r\n      returns (bool)\r\n    {\r\n      isMerged = true;\r\n\r\n      // burn all collaborative mints\r\n      for(uint256 i = 0; i < tokenCounter; i++) {\r\n        _burn(i);\r\n      }\r\n\r\n      // create a composite NFT\r\n      _collaborativeMint(_tokenURI);\r\n      return true;\r\n    }\r\n\r\n    function isApprovedOrOwner(address _account, uint256 _tokenId) public view returns (bool) {\r\n      return _isApprovedOrOwner(_account, _tokenId);\r\n    }\r\n\r\n    // used to transfer NFTs while a transaction is being executed\r\n    function executingTransfer(uint256 _txIndex, address _from, address _to, uint256 _tokenId)\r\n      currentlyExecuting(_txIndex) public returns (bool) {\r\n      _safeTransfer(_from, _to, _tokenId, \"\");\r\n      return true;\r\n    }\r\n\r\n    // Override safeTransferFrom to allow for royalties from secondary sales\r\n    function safeTransferFrom(address _from, address _to, uint256 _tokenId) public virtual override {\r\n      CollaborativeMinterHolder.safeTransferFrom(_from, _to, _tokenId, latestReceived, salesTransactions, this);\r\n    }\r\n\r\n    // Override safeTransferFrom to allow for royalties from secondary sales\r\n    function safeTransferFrom(address _from, address _to, uint256 _tokenId, bytes memory _data) public virtual override {\r\n      CollaborativeMinterHolder.safeTransferFrom(_from, _to, _tokenId, latestReceived, salesTransactions, this);\r\n    }\r\n\r\n    // Override transferFrom to allow for royalties from secondary sales\r\n    function transferFrom(address _from, address _to, uint256 _tokenId) public virtual override {\r\n      CollaborativeMinterHolder.safeTransferFrom(_from, _to, _tokenId, latestReceived, salesTransactions, this);\r\n    }\r\n\r\n    // submit a sales transaction\r\n    function submitSalesTransaction(address _to, uint256[] memory _tokenIds) payable public {\r\n      CollaborativeMinterHolder.submitSalesTransaction(msg.sender, _to, _tokenIds, msg.value, salesTransactions, this);\r\n    }\r\n\r\n    function approveSalesTransaction(uint256 _txIndex) public returns (bool) {\r\n      CollaborativeMinterHolder.approveSalesTransaction(_txIndex, salesTransactions, this);\r\n      return true;\r\n    }\r\n\r\n    function denySalesTransaction(uint256 _txIndex) public returns (bool) {\r\n      CollaborativeMinterHolder.denySalesTransaction(_txIndex, salesTransactions, this);\r\n      return true;\r\n    }\r\n\r\n    function revokeSalesTransaction(uint256 _txIndex) public returns (bool) {\r\n      CollaborativeMinterHolder.revokeSalesTransaction(_txIndex, salesTransactions);\r\n      return true;\r\n    }\r\n\r\n    // Retreive the sales transaction data\r\n    function getSalesTransaction(uint256 _txIndex) public view returns (CollaborativeMinterHolder.SalesTransaction memory) {\r\n        return salesTransactions[_txIndex];\r\n    }\r\n\r\n    function getConfirmation(uint256 _txIndex, address _owner) public view returns (bool) {\r\n      return isConfirmed[_txIndex][_owner];\r\n    }\r\n\r\n    function setConfirmation(uint256 _txIndex, address _owner, bool value)\r\n      currentlyModifying(_txIndex) public returns (bool) {\r\n      isConfirmed[_txIndex][_owner] = value;\r\n      return true;\r\n    }\r\n\r\n\r\n\r\n}\r\n",
  "sourcePath": "C:\\Users\\Gilberto Guadiana\\Desktop\\BlockchainSummerResearch\\SummerResearchGithub\\CollaborativeMinter\\src\\contracts\\CollaborativeMinter.sol",
  "compiler": {
    "name": "solc",
    "version": "0.8.7+commit.e28d00a7.Emscripten.clang"
  },
  "schemaVersion": "3.4.1",
  "updatedAt": "2021-09-07T16:13:10.537Z",
  "devdoc": {
    "kind": "dev",
    "methods": {
      "approve(address,uint256)": {
        "details": "See {IERC721-approve}."
      },
      "balanceOf(address)": {
        "details": "See {IERC721-balanceOf}."
      },
      "getApproved(uint256)": {
        "details": "See {IERC721-getApproved}."
      },
      "isApprovedForAll(address,address)": {
        "details": "See {IERC721-isApprovedForAll}."
      },
      "name()": {
        "details": "See {IERC721Metadata-name}."
      },
      "onERC721Received(address,address,uint256,bytes)": {
        "details": "See {IERC721Receiver-onERC721Received}. Always returns `IERC721Receiver.onERC721Received.selector`."
      },
      "ownerOf(uint256)": {
        "details": "See {IERC721-ownerOf}."
      },
      "setApprovalForAll(address,bool)": {
        "details": "See {IERC721-setApprovalForAll}."
      },
      "supportsInterface(bytes4)": {
        "details": "See {IERC165-supportsInterface}."
      },
      "symbol()": {
        "details": "See {IERC721Metadata-symbol}."
      },
      "tokenURI(uint256)": {
        "details": "See {IERC721Metadata-tokenURI}."
      }
    },
    "version": 1
  },
  "userdoc": {
    "kind": "user",
    "methods": {},
    "version": 1
  }
}