{
  "contractName": "CollaborativeMinterFactory",
  "abi": [
    {
      "inputs": [],
      "stateMutability": "nonpayable",
      "type": "constructor"
    },
    {
      "inputs": [
        {
          "internalType": "address",
          "name": "",
          "type": "address"
        },
        {
          "internalType": "uint256",
          "name": "",
          "type": "uint256"
        }
      ],
      "name": "accountToCominters",
      "outputs": [
        {
          "internalType": "uint256",
          "name": "",
          "type": "uint256"
        }
      ],
      "stateMutability": "view",
      "type": "function"
    },
    {
      "inputs": [
        {
          "internalType": "uint256",
          "name": "",
          "type": "uint256"
        }
      ],
      "name": "collaborativeMinters",
      "outputs": [
        {
          "internalType": "address",
          "name": "",
          "type": "address"
        }
      ],
      "stateMutability": "view",
      "type": "function"
    },
    {
      "inputs": [
        {
          "internalType": "address[]",
          "name": "_owners",
          "type": "address[]"
        }
      ],
      "name": "createCollaborativeMinter",
      "outputs": [
        {
          "internalType": "address",
          "name": "",
          "type": "address"
        }
      ],
      "stateMutability": "nonpayable",
      "type": "function"
    },
    {
      "inputs": [
        {
          "internalType": "address",
          "name": "_account",
          "type": "address"
        }
      ],
      "name": "getNumberOfCollaborativeMinters",
      "outputs": [
        {
          "internalType": "uint256",
          "name": "",
          "type": "uint256"
        }
      ],
      "stateMutability": "view",
      "type": "function"
    }
  ],
  "bytecode": "0x608060405234801561001057600080fd5b50616922806100206000396000f3fe60806040523480156200001157600080fd5b5060043610620000525760003560e01c8063431ba6921462000057578063891b26b9146200008d578063a3db713114620000c3578063b120e7e214620000f9575b600080fd5b6200007560048036038101906200006f919062000559565b6200012f565b60405162000084919062000642565b60405180910390f35b620000ab6004803603810190620000a5919062000508565b6200016f565b604051620000ba919062000642565b60405180910390f35b620000e16004803603810190620000db9190620004c1565b62000327565b604051620000f0919062000683565b60405180910390f35b6200011760048036038101906200011191906200048f565b62000359565b60405162000126919062000683565b60405180910390f35b600081815481106200014057600080fd5b906000526020600020016000915054906101000a900473ffffffffffffffffffffffffffffffffffffffff1681565b600080826040516200018190620003a5565b6200018d91906200065f565b604051809103906000f080158015620001aa573d6000803e3d6000fd5b5090506000819080600181540180825580915050600190039060005260206000200160009091909190916101000a81548173ffffffffffffffffffffffffffffffffffffffff021916908373ffffffffffffffffffffffffffffffffffffffff16021790555060005b8351811015620002c957600160008583815181106200023757620002366200085d565b5b602002602001015173ffffffffffffffffffffffffffffffffffffffff1673ffffffffffffffffffffffffffffffffffffffff16815260200190815260200160002060016000805490506200028d919062000731565b90806001815401808255809150506001900390600052602060002001600090919091909150558080620002c090620007e0565b91505062000213565b5060006001600080549050620002e0919062000731565b81548110620002f457620002f36200085d565b5b9060005260206000200160009054906101000a900473ffffffffffffffffffffffffffffffffffffffff16915050919050565b600160205281600052604060002081815481106200034457600080fd5b90600052602060002001600091509150505481565b6000600160008373ffffffffffffffffffffffffffffffffffffffff1673ffffffffffffffffffffffffffffffffffffffff168152602001908152602001600020805490509050919050565b615fd8806200091583390190565b6000620003ca620003c484620006c9565b620006a0565b90508083825260208201905082856020860282011115620003f057620003ef620008c0565b5b60005b858110156200042457816200040988826200042e565b845260208401935060208301925050600181019050620003f3565b5050509392505050565b6000813590506200043f81620008e0565b92915050565b600082601f8301126200045d576200045c620008bb565b5b81356200046f848260208601620003b3565b91505092915050565b6000813590506200048981620008fa565b92915050565b600060208284031215620004a857620004a7620008ca565b5b6000620004b8848285016200042e565b91505092915050565b60008060408385031215620004db57620004da620008ca565b5b6000620004eb858286016200042e565b9250506020620004fe8582860162000478565b9150509250929050565b600060208284031215620005215762000520620008ca565b5b600082013567ffffffffffffffff811115620005425762000541620008c5565b5b620005508482850162000445565b91505092915050565b600060208284031215620005725762000571620008ca565b5b6000620005828482850162000478565b91505092915050565b6000620005998383620005a5565b60208301905092915050565b620005b0816200076c565b82525050565b620005c1816200076c565b82525050565b6000620005d48262000708565b620005e0818562000720565b9350620005ed83620006f8565b8060005b83811015620006245781516200060888826200058b565b9750620006158362000713565b925050600181019050620005f1565b5085935050505092915050565b6200063c81620007a0565b82525050565b6000602082019050620006596000830184620005b6565b92915050565b600060208201905081810360008301526200067b8184620005c7565b905092915050565b60006020820190506200069a600083018462000631565b92915050565b6000620006ac620006bf565b9050620006ba8282620007aa565b919050565b6000604051905090565b600067ffffffffffffffff821115620006e757620006e66200088c565b5b602082029050602081019050919050565b6000819050602082019050919050565b600081519050919050565b6000602082019050919050565b600082825260208201905092915050565b60006200073e82620007a0565b91506200074b83620007a0565b9250828210156200076157620007606200082e565b5b828203905092915050565b6000620007798262000780565b9050919050565b600073ffffffffffffffffffffffffffffffffffffffff82169050919050565b6000819050919050565b620007b582620008cf565b810181811067ffffffffffffffff82111715620007d757620007d66200088c565b5b80604052505050565b6000620007ed82620007a0565b91507fffffffffffffffffffffffffffffffffffffffffffffffffffffffffffffffff8214156200082357620008226200082e565b5b600182019050919050565b7f4e487b7100000000000000000000000000000000000000000000000000000000600052601160045260246000fd5b7f4e487b7100000000000000000000000000000000000000000000000000000000600052603260045260246000fd5b7f4e487b7100000000000000000000000000000000000000000000000000000000600052604160045260246000fd5b600080fd5b600080fd5b600080fd5b600080fd5b6000601f19601f8301169050919050565b620008eb816200076c565b8114620008f757600080fd5b50565b6200090581620007a0565b81146200091157600080fd5b5056fe60806040523480156200001157600080fd5b5060405162005fd838038062005fd88339818101604052810190620000379190620003e6565b6040518060400160405280601281526020017f436f6c6c61626f726174697665204d696e7400000000000000000000000000008152506040518060400160405280600681526020017f434f4d494e5400000000000000000000000000000000000000000000000000008152508160009080519060200190620000bb92919062000271565b508060019080519060200190620000d492919062000271565b50505060008151116200011e576040517f08c379a000000000000000000000000000000000000000000000000000000000815260040162000115906200045e565b60405180910390fd5b6000600781905550805160098190555060006008819055506000600a60006101000a81548160ff02191690831515021790555060005b81518110156200026957600b8282815181106200017657620001756200063f565b5b60200260200101519080600181540180825580915050600190039060005260206000200160009091909190916101000a81548173ffffffffffffffffffffffffffffffffffffffff021916908373ffffffffffffffffffffffffffffffffffffffff1602179055506001600c6000848481518110620001fa57620001f96200063f565b5b602002602001015173ffffffffffffffffffffffffffffffffffffffff1673ffffffffffffffffffffffffffffffffffffffff16815260200190815260200160002060006101000a81548160ff0219169083151502179055508080620002609062000593565b91505062000154565b505062000705565b8280546200027f9062000527565b90600052602060002090601f016020900481019282620002a35760008555620002ef565b82601f10620002be57805160ff1916838001178555620002ef565b82800160010185558215620002ef579182015b82811115620002ee578251825591602001919060010190620002d1565b5b509050620002fe919062000302565b5090565b5b808211156200031d57600081600090555060010162000303565b5090565b6000620003386200033284620004a9565b62000480565b905080838252602082019050828560208602820111156200035e576200035d620006a2565b5b60005b858110156200039257816200037788826200039c565b84526020840193506020830192505060018101905062000361565b5050509392505050565b600081519050620003ad81620006eb565b92915050565b600082601f830112620003cb57620003ca6200069d565b5b8151620003dd84826020860162000321565b91505092915050565b600060208284031215620003ff57620003fe620006ac565b5b600082015167ffffffffffffffff81111562000420576200041f620006a7565b5b6200042e84828501620003b3565b91505092915050565b600062000446600f83620004d8565b91506200045382620006c2565b602082019050919050565b60006020820190508181036000830152620004798162000437565b9050919050565b60006200048c6200049f565b90506200049a82826200055d565b919050565b6000604051905090565b600067ffffffffffffffff821115620004c757620004c66200066e565b5b602082029050602081019050919050565b600082825260208201905092915050565b6000620004f682620004fd565b9050919050565b600073ffffffffffffffffffffffffffffffffffffffff82169050919050565b6000819050919050565b600060028204905060018216806200054057607f821691505b6020821081141562000557576200055662000610565b5b50919050565b6200056882620006b1565b810181811067ffffffffffffffff821117156200058a57620005896200066e565b5b80604052505050565b6000620005a0826200051d565b91507fffffffffffffffffffffffffffffffffffffffffffffffffffffffffffffffff821415620005d657620005d5620005e1565b5b600182019050919050565b7f4e487b7100000000000000000000000000000000000000000000000000000000600052601160045260246000fd5b7f4e487b7100000000000000000000000000000000000000000000000000000000600052602260045260246000fd5b7f4e487b7100000000000000000000000000000000000000000000000000000000600052603260045260246000fd5b7f4e487b7100000000000000000000000000000000000000000000000000000000600052604160045260246000fd5b600080fd5b600080fd5b600080fd5b600080fd5b6000601f19601f8301169050919050565b7f6f776e6572732072657175697265640000000000000000000000000000000000600082015250565b620006f681620004e9565b81146200070257600080fd5b50565b6158c380620007156000396000f3fe6080604052600436106101c65760003560e01c80636352211e116100f7578063a22cb46511610095578063c87b56dd11610064578063c87b56dd1461071b578063d082e38114610758578063d80fef1414610783578063e985e9c5146107ae576101d4565b8063a22cb46514610661578063b387ef921461068a578063b88d4fde146106b5578063bc66416c146106de576101d4565b80637724a692116100d15780637724a6921461059e57806379986376146105db57806393fd18441461060b57806395d89b4114610636576101d4565b80636352211e146104e75780636f7153d81461052457806370a0823114610561576101d4565b806323b872dd116101645780632f54bf6e1161013e5780632f54bf6e1461040157806342842e0e1461043e5780634ed09fc5146104675780635ddc9110146104aa576101d4565b806323b872dd1461035e57806326b4d3cd146103875780632d84d08a146103c4576101d4565b8063081812fc116101a0578063081812fc1461027e578063095ea7b3146102bb578063150b7a02146102e45780631cf6079b14610321576101d4565b806301ffc9a7146101d9578063025e7c271461021657806306fdde0314610253576101d4565b366101d45734600d81905550005b600080fd5b3480156101e557600080fd5b5061020060048036038101906101fb9190613f74565b6107eb565b60405161020d91906147c2565b60405180910390f35b34801561022257600080fd5b5061023d60048036038101906102389190614017565b6108cd565b60405161024a91906146ec565b60405180910390f35b34801561025f57600080fd5b5061026861090c565b60405161027591906147f8565b60405180910390f35b34801561028a57600080fd5b506102a560048036038101906102a09190614017565b61099e565b6040516102b291906146ec565b60405180910390f35b3480156102c757600080fd5b506102e260048036038101906102dd9190613f34565b610a23565b005b3480156102f057600080fd5b5061030b60048036038101906103069190613da6565b610b3b565b60405161031891906147dd565b60405180910390f35b34801561032d57600080fd5b5061034860048036038101906103439190614017565b610b4f565b60405161035591906147c2565b60405180910390f35b34801561036a57600080fd5b5061038560048036038101906103809190613d53565b610e5c565b005b34801561039357600080fd5b506103ae60048036038101906103a99190614017565b610f58565b6040516103bb91906147c2565b60405180910390f35b3480156103d057600080fd5b506103eb60048036038101906103e69190613fce565b6112a6565b6040516103f891906147c2565b60405180910390f35b34801561040d57600080fd5b5061042860048036038101906104239190613ce6565b61148b565b60405161043591906147c2565b60405180910390f35b34801561044a57600080fd5b5061046560048036038101906104609190613d53565b6114ab565b005b34801561047357600080fd5b5061048e60048036038101906104899190614017565b6115a7565b6040516104a19796959493929190614707565b60405180910390f35b3480156104b657600080fd5b506104d160048036038101906104cc9190613e85565b611660565b6040516104de9190614bfc565b60405180910390f35b3480156104f357600080fd5b5061050e60048036038101906105099190614017565b611832565b60405161051b91906146ec565b60405180910390f35b34801561053057600080fd5b5061054b60048036038101906105469190614017565b6118e4565b60405161055891906147c2565b60405180910390f35b34801561056d57600080fd5b5061058860048036038101906105839190613ce6565b611c2e565b6040516105959190614bfc565b60405180910390f35b3480156105aa57600080fd5b506105c560048036038101906105c09190613fce565b611ce6565b6040516105d29190614bfc565b60405180910390f35b6105f560048036038101906105f09190613e29565b611e4a565b6040516106029190614bfc565b60405180910390f35b34801561061757600080fd5b506106206120ff565b60405161062d9190614bfc565b60405180910390f35b34801561064257600080fd5b5061064b612105565b60405161065891906147f8565b60405180910390f35b34801561066d57600080fd5b5061068860048036038101906106839190613ef4565b612197565b005b34801561069657600080fd5b5061069f612318565b6040516106ac9190614bfc565b60405180910390f35b3480156106c157600080fd5b506106dc60048036038101906106d79190613da6565b61231e565b005b3480156106ea57600080fd5b5061070560048036038101906107009190614017565b61241b565b6040516107129190614bda565b60405180910390f35b34801561072757600080fd5b50610742600480360381019061073d9190614017565b6125c1565b60405161074f91906147f8565b60405180910390f35b34801561076457600080fd5b5061076d612713565b60405161077a9190614bfc565b60405180910390f35b34801561078f57600080fd5b50610798612719565b6040516107a591906147c2565b60405180910390f35b3480156107ba57600080fd5b506107d560048036038101906107d09190613d13565b61272c565b6040516107e291906147c2565b60405180910390f35b60007f80ac58cd000000000000000000000000000000000000000000000000000000007bffffffffffffffffffffffffffffffffffffffffffffffffffffffff1916827bffffffffffffffffffffffffffffffffffffffffffffffffffffffff191614806108b657507f5b5e139f000000000000000000000000000000000000000000000000000000007bffffffffffffffffffffffffffffffffffffffffffffffffffffffff1916827bffffffffffffffffffffffffffffffffffffffffffffffffffffffff1916145b806108c657506108c5826127c0565b5b9050919050565b600b81815481106108dd57600080fd5b906000526020600020016000915054906101000a900473ffffffffffffffffffffffffffffffffffffffff1681565b60606000805461091b90614ec2565b80601f016020809104026020016040519081016040528092919081815260200182805461094790614ec2565b80156109945780601f1061096957610100808354040283529160200191610994565b820191906000526020600020905b81548152906001019060200180831161097757829003601f168201915b5050505050905090565b60006109a98261282a565b6109e8576040517f08c379a00000000000000000000000000000000000000000000000000000000081526004016109df90614a3a565b60405180910390fd5b6004600083815260200190815260200160002060009054906101000a900473ffffffffffffffffffffffffffffffffffffffff169050919050565b6000610a2e82611832565b90508073ffffffffffffffffffffffffffffffffffffffff168373ffffffffffffffffffffffffffffffffffffffff161415610a9f576040517f08c379a0000000000000000000000000000000000000000000000000000000008152600401610a9690614afa565b60405180910390fd5b8073ffffffffffffffffffffffffffffffffffffffff16610abe612896565b73ffffffffffffffffffffffffffffffffffffffff161480610aed5750610aec81610ae7612896565b61272c565b5b610b2c576040517f08c379a0000000000000000000000000000000000000000000000000000000008152600401610b239061493a565b60405180910390fd5b610b36838361289e565b505050565b600063150b7a0260e01b9050949350505050565b6000600c60003373ffffffffffffffffffffffffffffffffffffffff1673ffffffffffffffffffffffffffffffffffffffff16815260200190815260200160002060009054906101000a900460ff16610bdd576040517f08c379a0000000000000000000000000000000000000000000000000000000008152600401610bd490614b5a565b60405180910390fd5b81600e805490508110610c25576040517f08c379a0000000000000000000000000000000000000000000000000000000008152600401610c1c9061483a565b60405180910390fd5b82600e8181548110610c3a57610c3961502c565b5b906000526020600020906006020160040160029054906101000a900460ff1615610c99576040517f08c379a0000000000000000000000000000000000000000000000000000000008152600401610c909061495a565b60405180910390fd5b83600e8181548110610cae57610cad61502c565b5b906000526020600020906006020160040160019054906101000a900460ff1615610d0d576040517f08c379a0000000000000000000000000000000000000000000000000000000008152600401610d049061487a565b60405180910390fd5b600f600086815260200190815260200160002060003373ffffffffffffffffffffffffffffffffffffffff1673ffffffffffffffffffffffffffffffffffffffff16815260200190815260200160002060009054906101000a900460ff16610daa576040517f08c379a0000000000000000000000000000000000000000000000000000000008152600401610da190614b7a565b60405180910390fd5b6000600f600087815260200190815260200160002060003373ffffffffffffffffffffffffffffffffffffffff1673ffffffffffffffffffffffffffffffffffffffff16815260200190815260200160002060006101000a81548160ff0219169083151502179055506001600e8681548110610e2957610e2861502c565b5b90600052602060002090600602016005016000828254610e499190614dd8565b9250508190555060019350505050919050565b610e6d610e67612896565b82612957565b610eac576040517f08c379a0000000000000000000000000000000000000000000000000000000008152600401610ea390614b3a565b60405180910390fd5b6000600167ffffffffffffffff811115610ec957610ec861505b565b5b604051908082528060200260200182016040528015610ef75781602001602082028036833780820191505090505b5090508181600081518110610f0f57610f0e61502c565b5b6020026020010181815250506000610f2a8483600d54611660565b9050610f478530856040518060200160405280600081525061231e565b610f5081612a35565b505050505050565b600081600e805490508110610fa2576040517f08c379a0000000000000000000000000000000000000000000000000000000008152600401610f999061483a565b60405180910390fd5b82600e8181548110610fb757610fb661502c565b5b906000526020600020906006020160040160029054906101000a900460ff1615611016576040517f08c379a000000000000000000000000000000000000000000000000000000000815260040161100d9061495a565b60405180910390fd5b83600e818154811061102b5761102a61502c565b5b906000526020600020906006020160040160019054906101000a900460ff161561108a576040517f08c379a00000000000000000000000000000000000000000000000000000000081526004016110819061487a565b60405180910390fd5b3373ffffffffffffffffffffffffffffffffffffffff16600e86815481106110b5576110b461502c565b5b906000526020600020906006020160000160009054906101000a900473ffffffffffffffffffffffffffffffffffffffff1673ffffffffffffffffffffffffffffffffffffffff161461113d576040517f08c379a0000000000000000000000000000000000000000000000000000000008152600401611134906148da565b60405180910390fd5b6000600e86815481106111535761115261502c565b5b90600052602060002090600602016003015490506000600e878154811061117d5761117c61502c565b5b906000526020600020906006020160000160009054906101000a900473ffffffffffffffffffffffffffffffffffffffff1673ffffffffffffffffffffffffffffffffffffffff16826040516111d2906146d7565b60006040518083038185875af1925050503d806000811461120f576040519150601f19603f3d011682016040523d82523d6000602084013e611214565b606091505b5050809150508061125a576040517f08c379a000000000000000000000000000000000000000000000000000000000815260040161125190614b1a565b60405180910390fd5b6001600e88815481106112705761126f61502c565b5b906000526020600020906006020160040160016101000a81548160ff021916908315150217905550600195505050505050919050565b6000600c60003373ffffffffffffffffffffffffffffffffffffffff1673ffffffffffffffffffffffffffffffffffffffff16815260200190815260200160002060009054906101000a900460ff16611334576040517f08c379a000000000000000000000000000000000000000000000000000000000815260040161132b90614b5a565b60405180910390fd5b600060075411611379576040517f08c379a000000000000000000000000000000000000000000000000000000000815260040161137090614ada565b60405180910390fd5b600a60009054906101000a900460ff16156113c9576040517f08c379a00000000000000000000000000000000000000000000000000000000081526004016113c0906149fa565b60405180910390fd5b60005b600754811015611432576113e03082612957565b61141f576040517f08c379a000000000000000000000000000000000000000000000000000000000815260040161141690614a5a565b60405180910390fd5b808061142a90614f25565b9150506113cc565b506001600a60006101000a81548160ff02191690831515021790555060005b6007548110156114775761146481612e79565b808061146f90614f25565b915050611451565b5061148182612ecc565b5060019050919050565b600c6020528060005260406000206000915054906101000a900460ff1681565b6114bc6114b6612896565b82612957565b6114fb576040517f08c379a00000000000000000000000000000000000000000000000000000000081526004016114f290614b3a565b60405180910390fd5b6000600167ffffffffffffffff8111156115185761151761505b565b5b6040519080825280602002602001820160405280156115465781602001602082028036833780820191505090505b509050818160008151811061155e5761155d61502c565b5b60200260200101818152505060006115798483600d54611660565b90506115968530856040518060200160405280600081525061231e565b61159f81612a35565b505050505050565b600e81815481106115b757600080fd5b90600052602060002090600602016000915090508060000160009054906101000a900473ffffffffffffffffffffffffffffffffffffffff16908060010160009054906101000a900473ffffffffffffffffffffffffffffffffffffffff16908060030154908060040160009054906101000a900460ff16908060040160019054906101000a900460ff16908060040160029054906101000a900460ff16908060050154905087565b600080600e805490509050600e6040518061010001604052803373ffffffffffffffffffffffffffffffffffffffff1681526020018773ffffffffffffffffffffffffffffffffffffffff1681526020018681526020018581526020016001151581526020016000151581526020016000151581526020016000815250908060018154018082558091505060019003906000526020600020906006020160009091909190915060008201518160000160006101000a81548173ffffffffffffffffffffffffffffffffffffffff021916908373ffffffffffffffffffffffffffffffffffffffff16021790555060208201518160010160006101000a81548173ffffffffffffffffffffffffffffffffffffffff021916908373ffffffffffffffffffffffffffffffffffffffff16021790555060408201518160020190805190602001906117b0929190613958565b506060820151816003015560808201518160040160006101000a81548160ff02191690831515021790555060a08201518160040160016101000a81548160ff02191690831515021790555060c08201518160040160026101000a81548160ff02191690831515021790555060e082015181600501555050809150509392505050565b6000806002600084815260200190815260200160002060009054906101000a900473ffffffffffffffffffffffffffffffffffffffff169050600073ffffffffffffffffffffffffffffffffffffffff168173ffffffffffffffffffffffffffffffffffffffff1614156118db576040517f08c379a00000000000000000000000000000000000000000000000000000000081526004016118d29061499a565b60405180910390fd5b80915050919050565b6000600c60003373ffffffffffffffffffffffffffffffffffffffff1673ffffffffffffffffffffffffffffffffffffffff16815260200190815260200160002060009054906101000a900460ff16611972576040517f08c379a000000000000000000000000000000000000000000000000000000000815260040161196990614b5a565b60405180910390fd5b81600e8054905081106119ba576040517f08c379a00000000000000000000000000000000000000000000000000000000081526004016119b19061483a565b60405180910390fd5b82600e81815481106119cf576119ce61502c565b5b906000526020600020906006020160040160029054906101000a900460ff1615611a2e576040517f08c379a0000000000000000000000000000000000000000000000000000000008152600401611a259061495a565b60405180910390fd5b83600f600082815260200190815260200160002060003373ffffffffffffffffffffffffffffffffffffffff1673ffffffffffffffffffffffffffffffffffffffff16815260200190815260200160002060009054906101000a900460ff1615611acd576040517f08c379a0000000000000000000000000000000000000000000000000000000008152600401611ac49061491a565b60405180910390fd5b84600e8181548110611ae257611ae161502c565b5b906000526020600020906006020160040160019054906101000a900460ff1615611b41576040517f08c379a0000000000000000000000000000000000000000000000000000000008152600401611b389061487a565b60405180910390fd5b6001600f600088815260200190815260200160002060003373ffffffffffffffffffffffffffffffffffffffff1673ffffffffffffffffffffffffffffffffffffffff16815260200190815260200160002060006101000a81548160ff0219169083151502179055506001600e8781548110611bc057611bbf61502c565b5b90600052602060002090600602016005016000828254611be09190614d51565b92505081905550600954600e8781548110611bfe57611bfd61502c565b5b9060005260206000209060060201600501541415611c2157611c1f86612a35565b505b6001945050505050919050565b60008073ffffffffffffffffffffffffffffffffffffffff168273ffffffffffffffffffffffffffffffffffffffff161415611c9f576040517f08c379a0000000000000000000000000000000000000000000000000000000008152600401611c969061497a565b60405180910390fd5b600360008373ffffffffffffffffffffffffffffffffffffffff1673ffffffffffffffffffffffffffffffffffffffff168152602001908152602001600020549050919050565b6000600b60085481548110611cfe57611cfd61502c565b5b9060005260206000200160009054906101000a900473ffffffffffffffffffffffffffffffffffffffff1673ffffffffffffffffffffffffffffffffffffffff163373ffffffffffffffffffffffffffffffffffffffff1614611d96576040517f08c379a0000000000000000000000000000000000000000000000000000000008152600401611d8d90614b9a565b60405180910390fd5b600a60009054906101000a900460ff1615611de6576040517f08c379a0000000000000000000000000000000000000000000000000000000008152600401611ddd906149fa565b60405180910390fd5b60006007549050611df73082612f06565b611e018184612f24565b6001600754611e109190614d51565b6007819055506000600b805490506001600854611e2d9190614d51565b611e379190614f6e565b9050806008819055508192505050919050565b60008160005b8151811015611f2d57600754828281518110611e6f57611e6e61502c565b5b602002602001015110611eb7576040517f08c379a0000000000000000000000000000000000000000000000000000000008152600401611eae90614aba565b60405180910390fd5b611edb30838381518110611ece57611ecd61502c565b5b6020026020010151612957565b611f1a576040517f08c379a0000000000000000000000000000000000000000000000000000000008152600401611f1190614bba565b60405180910390fd5b8080611f2590614f25565b915050611e50565b506000600e805490509050600e6040518061010001604052803373ffffffffffffffffffffffffffffffffffffffff1681526020018773ffffffffffffffffffffffffffffffffffffffff1681526020018681526020013481526020016000151581526020016000151581526020016000151581526020016000815250908060018154018082558091505060019003906000526020600020906006020160009091909190915060008201518160000160006101000a81548173ffffffffffffffffffffffffffffffffffffffff021916908373ffffffffffffffffffffffffffffffffffffffff16021790555060208201518160010160006101000a81548173ffffffffffffffffffffffffffffffffffffffff021916908373ffffffffffffffffffffffffffffffffffffffff160217905550604082015181600201908051906020019061207d929190613958565b506060820151816003015560808201518160040160006101000a81548160ff02191690831515021790555060a08201518160040160016101000a81548160ff02191690831515021790555060c08201518160040160026101000a81548160ff02191690831515021790555060e082015181600501555050809250505092915050565b60095481565b60606001805461211490614ec2565b80601f016020809104026020016040519081016040528092919081815260200182805461214090614ec2565b801561218d5780601f106121625761010080835404028352916020019161218d565b820191906000526020600020905b81548152906001019060200180831161217057829003601f168201915b5050505050905090565b61219f612896565b73ffffffffffffffffffffffffffffffffffffffff168273ffffffffffffffffffffffffffffffffffffffff16141561220d576040517f08c379a0000000000000000000000000000000000000000000000000000000008152600401612204906148ba565b60405180910390fd5b806005600061221a612896565b73ffffffffffffffffffffffffffffffffffffffff1673ffffffffffffffffffffffffffffffffffffffff16815260200190815260200160002060008473ffffffffffffffffffffffffffffffffffffffff1673ffffffffffffffffffffffffffffffffffffffff16815260200190815260200160002060006101000a81548160ff0219169083151502179055508173ffffffffffffffffffffffffffffffffffffffff166122c7612896565b73ffffffffffffffffffffffffffffffffffffffff167f17307eab39ab6107e8899845ad3d59bd9653f200f220920489ca2b5937696c318360405161230c91906147c2565b60405180910390a35050565b60085481565b61232f612329612896565b83612957565b61236e576040517f08c379a000000000000000000000000000000000000000000000000000000000815260040161236590614b3a565b60405180910390fd5b6000600167ffffffffffffffff81111561238b5761238a61505b565b5b6040519080825280602002602001820160405280156123b95781602001602082028036833780820191505090505b50905082816000815181106123d1576123d061502c565b5b60200260200101818152505060006123ec8583600d54611660565b90506124098630866040518060200160405280600081525061231e565b61241281612a35565b50505050505050565b6124236139a5565b600e82815481106124375761243661502c565b5b9060005260206000209060060201604051806101000160405290816000820160009054906101000a900473ffffffffffffffffffffffffffffffffffffffff1673ffffffffffffffffffffffffffffffffffffffff1673ffffffffffffffffffffffffffffffffffffffff1681526020016001820160009054906101000a900473ffffffffffffffffffffffffffffffffffffffff1673ffffffffffffffffffffffffffffffffffffffff1673ffffffffffffffffffffffffffffffffffffffff1681526020016002820180548060200260200160405190810160405280929190818152602001828054801561254c57602002820191906000526020600020905b815481526020019060010190808311612538575b50505050508152602001600382015481526020016004820160009054906101000a900460ff161515151581526020016004820160019054906101000a900460ff161515151581526020016004820160029054906101000a900460ff161515151581526020016005820154815250509050919050565b60606125cc8261282a565b61260b576040517f08c379a000000000000000000000000000000000000000000000000000000000815260040161260290614a1a565b60405180910390fd5b600060066000848152602001908152602001600020805461262b90614ec2565b80601f016020809104026020016040519081016040528092919081815260200182805461265790614ec2565b80156126a45780601f10612679576101008083540402835291602001916126a4565b820191906000526020600020905b81548152906001019060200180831161268757829003601f168201915b5050505050905060006126b5612f98565b90506000815114156126cb57819250505061270e565b6000825111156127005780826040516020016126e89291906146b3565b6040516020818303038152906040529250505061270e565b61270984612faf565b925050505b919050565b60075481565b600a60009054906101000a900460ff1681565b6000600560008473ffffffffffffffffffffffffffffffffffffffff1673ffffffffffffffffffffffffffffffffffffffff16815260200190815260200160002060008373ffffffffffffffffffffffffffffffffffffffff1673ffffffffffffffffffffffffffffffffffffffff16815260200190815260200160002060009054906101000a900460ff16905092915050565b60007f01ffc9a7000000000000000000000000000000000000000000000000000000007bffffffffffffffffffffffffffffffffffffffffffffffffffffffff1916827bffffffffffffffffffffffffffffffffffffffffffffffffffffffff1916149050919050565b60008073ffffffffffffffffffffffffffffffffffffffff166002600084815260200190815260200160002060009054906101000a900473ffffffffffffffffffffffffffffffffffffffff1673ffffffffffffffffffffffffffffffffffffffff1614159050919050565b600033905090565b816004600083815260200190815260200160002060006101000a81548173ffffffffffffffffffffffffffffffffffffffff021916908373ffffffffffffffffffffffffffffffffffffffff160217905550808273ffffffffffffffffffffffffffffffffffffffff1661291183611832565b73ffffffffffffffffffffffffffffffffffffffff167f8c5be1e5ebec7d5bd14f71427d1e84f3dd0314c0f7b2291e5b200ac8c7c3b92560405160405180910390a45050565b60006129628261282a565b6129a1576040517f08c379a0000000000000000000000000000000000000000000000000000000008152600401612998906148fa565b60405180910390fd5b60006129ac83611832565b90508073ffffffffffffffffffffffffffffffffffffffff168473ffffffffffffffffffffffffffffffffffffffff161480612a1b57508373ffffffffffffffffffffffffffffffffffffffff16612a038461099e565b73ffffffffffffffffffffffffffffffffffffffff16145b80612a2c5750612a2b818561272c565b5b91505092915050565b600080600e8381548110612a4c57612a4b61502c565b5b9060005260206000209060060201600201805480602002602001604051908101604052809291908181526020018280548015612aa757602002820191906000526020600020905b815481526020019060010190808311612a93575b5050505050905060001515600e8481548110612ac657612ac561502c565b5b906000526020600020906006020160040160009054906101000a900460ff1615151415612c3b576000600954600e8581548110612b0657612b0561502c565b5b906000526020600020906006020160030154612b229190614da7565b9050600080600090505b600954811015612c3357600b8181548110612b4a57612b4961502c565b5b9060005260206000200160009054906101000a900473ffffffffffffffffffffffffffffffffffffffff1673ffffffffffffffffffffffffffffffffffffffff1683604051612b98906146d7565b60006040518083038185875af1925050503d8060008114612bd5576040519150601f19603f3d011682016040523d82523d6000602084013e612bda565b606091505b50508092505081612c20576040517f08c379a0000000000000000000000000000000000000000000000000000000008152600401612c1790614b1a565b60405180910390fd5b8080612c2b90614f25565b915050612b2c565b505050612d97565b6000600a600e8581548110612c5357612c5261502c565b5b906000526020600020906006020160030154612c6f9190614da7565b9050600060095482612c819190614da7565b9050600080600090505b600954811015612d9257600b8181548110612ca957612ca861502c565b5b9060005260206000200160009054906101000a900473ffffffffffffffffffffffffffffffffffffffff1673ffffffffffffffffffffffffffffffffffffffff1683604051612cf7906146d7565b60006040518083038185875af1925050503d8060008114612d34576040519150601f19603f3d011682016040523d82523d6000602084013e612d39565b606091505b50508092505081612d7f576040517f08c379a0000000000000000000000000000000000000000000000000000000008152600401612d7690614b1a565b60405180910390fd5b8080612d8a90614f25565b915050612c8b565b505050505b60005b8151811015612e3057612e1d30600e8681548110612dbb57612dba61502c565b5b906000526020600020906006020160010160009054906101000a900473ffffffffffffffffffffffffffffffffffffffff16848481518110612e0057612dff61502c565b5b602002602001015160405180602001604052806000815250613056565b8080612e2890614f25565b915050612d9a565b506001600e8481548110612e4757612e4661502c565b5b906000526020600020906006020160040160026101000a81548160ff0219169083151502179055506001915050919050565b612e82816130b2565b6000600660008381526020019081526020016000208054612ea290614ec2565b905014612ec957600660008281526020019081526020016000206000612ec89190613a1c565b5b50565b6000806007549050612ede3082612f06565b612ee88184612f24565b6001600754612ef79190614d51565b60078190555080915050919050565b612f208282604051806020016040528060008152506131c3565b5050565b612f2d8261282a565b612f6c576040517f08c379a0000000000000000000000000000000000000000000000000000000008152600401612f63906149ba565b60405180910390fd5b80600660008481526020019081526020016000209080519060200190612f93929190613a5c565b505050565b606060405180602001604052806000815250905090565b6060612fba8261282a565b612ff9576040517f08c379a0000000000000000000000000000000000000000000000000000000008152600401612ff090614a9a565b60405180910390fd5b6000613003612f98565b90506000815111613023576040518060200160405280600081525061304e565b8061302d8461321e565b60405160200161303e9291906146b3565b6040516020818303038152906040525b915050919050565b61306184848461337f565b61306d848484846135db565b6130ac576040517f08c379a00000000000000000000000000000000000000000000000000000000081526004016130a39061481a565b60405180910390fd5b50505050565b60006130bd82611832565b90506130cb81600084613772565b6130d660008361289e565b6001600360008373ffffffffffffffffffffffffffffffffffffffff1673ffffffffffffffffffffffffffffffffffffffff16815260200190815260200160002060008282546131269190614dd8565b925050819055506002600083815260200190815260200160002060006101000a81549073ffffffffffffffffffffffffffffffffffffffff021916905581600073ffffffffffffffffffffffffffffffffffffffff168273ffffffffffffffffffffffffffffffffffffffff167fddf252ad1be2c89b69c2b068fc378daa952ba7f163c4a11628f55a4df523b3ef60405160405180910390a45050565b6131cd8383613777565b6131da60008484846135db565b613219576040517f08c379a00000000000000000000000000000000000000000000000000000000081526004016132109061481a565b60405180910390fd5b505050565b60606000821415613266576040518060400160405280600181526020017f3000000000000000000000000000000000000000000000000000000000000000815250905061337a565b600082905060005b6000821461329857808061328190614f25565b915050600a826132919190614da7565b915061326e565b60008167ffffffffffffffff8111156132b4576132b361505b565b5b6040519080825280601f01601f1916602001820160405280156132e65781602001600182028036833780820191505090505b5090505b60008514613373576001826132ff9190614dd8565b9150600a8561330e9190614f6e565b603061331a9190614d51565b60f81b8183815181106133305761332f61502c565b5b60200101907effffffffffffffffffffffffffffffffffffffffffffffffffffffffffffff1916908160001a905350600a8561336c9190614da7565b94506132ea565b8093505050505b919050565b8273ffffffffffffffffffffffffffffffffffffffff1661339f82611832565b73ffffffffffffffffffffffffffffffffffffffff16146133f5576040517f08c379a00000000000000000000000000000000000000000000000000000000081526004016133ec90614a7a565b60405180910390fd5b600073ffffffffffffffffffffffffffffffffffffffff168273ffffffffffffffffffffffffffffffffffffffff161415613465576040517f08c379a000000000000000000000000000000000000000000000000000000000815260040161345c9061489a565b60405180910390fd5b613470838383613772565b61347b60008261289e565b6001600360008573ffffffffffffffffffffffffffffffffffffffff1673ffffffffffffffffffffffffffffffffffffffff16815260200190815260200160002060008282546134cb9190614dd8565b925050819055506001600360008473ffffffffffffffffffffffffffffffffffffffff1673ffffffffffffffffffffffffffffffffffffffff16815260200190815260200160002060008282546135229190614d51565b92505081905550816002600083815260200190815260200160002060006101000a81548173ffffffffffffffffffffffffffffffffffffffff021916908373ffffffffffffffffffffffffffffffffffffffff160217905550808273ffffffffffffffffffffffffffffffffffffffff168473ffffffffffffffffffffffffffffffffffffffff167fddf252ad1be2c89b69c2b068fc378daa952ba7f163c4a11628f55a4df523b3ef60405160405180910390a4505050565b60006135fc8473ffffffffffffffffffffffffffffffffffffffff16613945565b15613765578373ffffffffffffffffffffffffffffffffffffffff1663150b7a02613625612896565b8786866040518563ffffffff1660e01b81526004016136479493929190614776565b602060405180830381600087803b15801561366157600080fd5b505af192505050801561369257506040513d601f19601f8201168201806040525081019061368f9190613fa1565b60015b613715573d80600081146136c2576040519150601f19603f3d011682016040523d82523d6000602084013e6136c7565b606091505b5060008151141561370d576040517f08c379a00000000000000000000000000000000000000000000000000000000081526004016137049061481a565b60405180910390fd5b805181602001fd5b63150b7a0260e01b7bffffffffffffffffffffffffffffffffffffffffffffffffffffffff1916817bffffffffffffffffffffffffffffffffffffffffffffffffffffffff19161491505061376a565b600190505b949350505050565b505050565b600073ffffffffffffffffffffffffffffffffffffffff168273ffffffffffffffffffffffffffffffffffffffff1614156137e7576040517f08c379a00000000000000000000000000000000000000000000000000000000081526004016137de906149da565b60405180910390fd5b6137f08161282a565b15613830576040517f08c379a00000000000000000000000000000000000000000000000000000000081526004016138279061485a565b60405180910390fd5b61383c60008383613772565b6001600360008473ffffffffffffffffffffffffffffffffffffffff1673ffffffffffffffffffffffffffffffffffffffff168152602001908152602001600020600082825461388c9190614d51565b92505081905550816002600083815260200190815260200160002060006101000a81548173ffffffffffffffffffffffffffffffffffffffff021916908373ffffffffffffffffffffffffffffffffffffffff160217905550808273ffffffffffffffffffffffffffffffffffffffff16600073ffffffffffffffffffffffffffffffffffffffff167fddf252ad1be2c89b69c2b068fc378daa952ba7f163c4a11628f55a4df523b3ef60405160405180910390a45050565b600080823b905060008111915050919050565b828054828255906000526020600020908101928215613994579160200282015b82811115613993578251825591602001919060010190613978565b5b5090506139a19190613ae2565b5090565b604051806101000160405280600073ffffffffffffffffffffffffffffffffffffffff168152602001600073ffffffffffffffffffffffffffffffffffffffff1681526020016060815260200160008152602001600015158152602001600015158152602001600015158152602001600081525090565b508054613a2890614ec2565b6000825580601f10613a3a5750613a59565b601f016020900490600052602060002090810190613a589190613ae2565b5b50565b828054613a6890614ec2565b90600052602060002090601f016020900481019282613a8a5760008555613ad1565b82601f10613aa357805160ff1916838001178555613ad1565b82800160010185558215613ad1579182015b82811115613ad0578251825591602001919060010190613ab5565b5b509050613ade9190613ae2565b5090565b5b80821115613afb576000816000905550600101613ae3565b5090565b6000613b12613b0d84614c3c565b614c17565b90508083825260208201905082856020860282011115613b3557613b3461508f565b5b60005b85811015613b655781613b4b8882613cd1565b845260208401935060208301925050600181019050613b38565b5050509392505050565b6000613b82613b7d84614c68565b614c17565b905082815260208101848484011115613b9e57613b9d615094565b5b613ba9848285614e80565b509392505050565b6000613bc4613bbf84614c99565b614c17565b905082815260208101848484011115613be057613bdf615094565b5b613beb848285614e80565b509392505050565b600081359050613c0281615831565b92915050565b600082601f830112613c1d57613c1c61508a565b5b8135613c2d848260208601613aff565b91505092915050565b600081359050613c4581615848565b92915050565b600081359050613c5a8161585f565b92915050565b600081519050613c6f8161585f565b92915050565b600082601f830112613c8a57613c8961508a565b5b8135613c9a848260208601613b6f565b91505092915050565b600082601f830112613cb857613cb761508a565b5b8135613cc8848260208601613bb1565b91505092915050565b600081359050613ce081615876565b92915050565b600060208284031215613cfc57613cfb61509e565b5b6000613d0a84828501613bf3565b91505092915050565b60008060408385031215613d2a57613d2961509e565b5b6000613d3885828601613bf3565b9250506020613d4985828601613bf3565b9150509250929050565b600080600060608486031215613d6c57613d6b61509e565b5b6000613d7a86828701613bf3565b9350506020613d8b86828701613bf3565b9250506040613d9c86828701613cd1565b9150509250925092565b60008060008060808587031215613dc057613dbf61509e565b5b6000613dce87828801613bf3565b9450506020613ddf87828801613bf3565b9350506040613df087828801613cd1565b925050606085013567ffffffffffffffff811115613e1157613e10615099565b5b613e1d87828801613c75565b91505092959194509250565b60008060408385031215613e4057613e3f61509e565b5b6000613e4e85828601613bf3565b925050602083013567ffffffffffffffff811115613e6f57613e6e615099565b5b613e7b85828601613c08565b9150509250929050565b600080600060608486031215613e9e57613e9d61509e565b5b6000613eac86828701613bf3565b935050602084013567ffffffffffffffff811115613ecd57613ecc615099565b5b613ed986828701613c08565b9250506040613eea86828701613cd1565b9150509250925092565b60008060408385031215613f0b57613f0a61509e565b5b6000613f1985828601613bf3565b9250506020613f2a85828601613c36565b9150509250929050565b60008060408385031215613f4b57613f4a61509e565b5b6000613f5985828601613bf3565b9250506020613f6a85828601613cd1565b9150509250929050565b600060208284031215613f8a57613f8961509e565b5b6000613f9884828501613c4b565b91505092915050565b600060208284031215613fb757613fb661509e565b5b6000613fc584828501613c60565b91505092915050565b600060208284031215613fe457613fe361509e565b5b600082013567ffffffffffffffff81111561400257614001615099565b5b61400e84828501613ca3565b91505092915050565b60006020828403121561402d5761402c61509e565b5b600061403b84828501613cd1565b91505092915050565b60006140508383614695565b60208301905092915050565b61406581614e0c565b82525050565b61407481614e0c565b82525050565b600061408582614cda565b61408f8185614d08565b935061409a83614cca565b8060005b838110156140cb5781516140b28882614044565b97506140bd83614cfb565b92505060018101905061409e565b5085935050505092915050565b6140e181614e1e565b82525050565b6140f081614e1e565b82525050565b6140ff81614e2a565b82525050565b600061411082614ce5565b61411a8185614d19565b935061412a818560208601614e8f565b614133816150a3565b840191505092915050565b600061414982614cf0565b6141538185614d35565b9350614163818560208601614e8f565b61416c816150a3565b840191505092915050565b600061418282614cf0565b61418c8185614d46565b935061419c818560208601614e8f565b80840191505092915050565b60006141b5603283614d35565b91506141c0826150b4565b604082019050919050565b60006141d8602083614d35565b91506141e382615103565b602082019050919050565b60006141fb601c83614d35565b91506142068261512c565b602082019050919050565b600061421e602483614d35565b915061422982615155565b604082019050919050565b6000614241602483614d35565b915061424c826151a4565b604082019050919050565b6000614264601983614d35565b915061426f826151f3565b602082019050919050565b6000614287603083614d35565b91506142928261521c565b604082019050919050565b60006142aa602c83614d35565b91506142b58261526b565b604082019050919050565b60006142cd602683614d35565b91506142d8826152ba565b604082019050919050565b60006142f0603883614d35565b91506142fb82615309565b604082019050919050565b6000614313602583614d35565b915061431e82615358565b604082019050919050565b6000614336602a83614d35565b9150614341826153a7565b604082019050919050565b6000614359602983614d35565b9150614364826153f6565b604082019050919050565b600061437c602e83614d35565b915061438782615445565b604082019050919050565b600061439f602083614d35565b91506143aa82615494565b602082019050919050565b60006143c2601c83614d35565b91506143cd826154bd565b602082019050919050565b60006143e5603183614d35565b91506143f0826154e6565b604082019050919050565b6000614408602c83614d35565b915061441382615535565b604082019050919050565b600061442b602083614d35565b915061443682615584565b602082019050919050565b600061444e602983614d35565b9150614459826155ad565b604082019050919050565b6000614471602f83614d35565b915061447c826155fc565b604082019050919050565b6000614494601083614d35565b915061449f8261564b565b602082019050919050565b60006144b7601883614d35565b91506144c282615674565b602082019050919050565b60006144da602183614d35565b91506144e58261569d565b604082019050919050565b60006144fd600083614d2a565b9150614508826156ec565b600082019050919050565b6000614520601083614d35565b915061452b826156ef565b602082019050919050565b6000614543603183614d35565b915061454e82615718565b604082019050919050565b6000614566600c83614d35565b915061457182615767565b602082019050919050565b6000614589602783614d35565b915061459482615790565b604082019050919050565b60006145ac600d83614d35565b91506145b7826157df565b602082019050919050565b60006145cf601b83614d35565b91506145da82615808565b602082019050919050565b6000610100830160008301516145fe600086018261405c565b506020830151614611602086018261405c565b5060408301518482036040860152614629828261407a565b915050606083015161463e6060860182614695565b50608083015161465160808601826140d8565b5060a083015161466460a08601826140d8565b5060c083015161467760c08601826140d8565b5060e083015161468a60e0860182614695565b508091505092915050565b61469e81614e76565b82525050565b6146ad81614e76565b82525050565b60006146bf8285614177565b91506146cb8284614177565b91508190509392505050565b60006146e2826144f0565b9150819050919050565b6000602082019050614701600083018461406b565b92915050565b600060e08201905061471c600083018a61406b565b614729602083018961406b565b61473660408301886146a4565b61474360608301876140e7565b61475060808301866140e7565b61475d60a08301856140e7565b61476a60c08301846146a4565b98975050505050505050565b600060808201905061478b600083018761406b565b614798602083018661406b565b6147a560408301856146a4565b81810360608301526147b78184614105565b905095945050505050565b60006020820190506147d760008301846140e7565b92915050565b60006020820190506147f260008301846140f6565b92915050565b60006020820190508181036000830152614812818461413e565b905092915050565b60006020820190508181036000830152614833816141a8565b9050919050565b60006020820190508181036000830152614853816141cb565b9050919050565b60006020820190508181036000830152614873816141ee565b9050919050565b6000602082019050818103600083015261489381614211565b9050919050565b600060208201905081810360008301526148b381614234565b9050919050565b600060208201905081810360008301526148d381614257565b9050919050565b600060208201905081810360008301526148f38161427a565b9050919050565b600060208201905081810360008301526149138161429d565b9050919050565b60006020820190508181036000830152614933816142c0565b9050919050565b60006020820190508181036000830152614953816142e3565b9050919050565b6000602082019050818103600083015261497381614306565b9050919050565b6000602082019050818103600083015261499381614329565b9050919050565b600060208201905081810360008301526149b38161434c565b9050919050565b600060208201905081810360008301526149d38161436f565b9050919050565b600060208201905081810360008301526149f381614392565b9050919050565b60006020820190508181036000830152614a13816143b5565b9050919050565b60006020820190508181036000830152614a33816143d8565b9050919050565b60006020820190508181036000830152614a53816143fb565b9050919050565b60006020820190508181036000830152614a738161441e565b9050919050565b60006020820190508181036000830152614a9381614441565b9050919050565b60006020820190508181036000830152614ab381614464565b9050919050565b60006020820190508181036000830152614ad381614487565b9050919050565b60006020820190508181036000830152614af3816144aa565b9050919050565b60006020820190508181036000830152614b13816144cd565b9050919050565b60006020820190508181036000830152614b3381614513565b9050919050565b60006020820190508181036000830152614b5381614536565b9050919050565b60006020820190508181036000830152614b7381614559565b9050919050565b60006020820190508181036000830152614b938161457c565b9050919050565b60006020820190508181036000830152614bb38161459f565b9050919050565b60006020820190508181036000830152614bd3816145c2565b9050919050565b60006020820190508181036000830152614bf481846145e5565b905092915050565b6000602082019050614c1160008301846146a4565b92915050565b6000614c21614c32565b9050614c2d8282614ef4565b919050565b6000604051905090565b600067ffffffffffffffff821115614c5757614c5661505b565b5b602082029050602081019050919050565b600067ffffffffffffffff821115614c8357614c8261505b565b5b614c8c826150a3565b9050602081019050919050565b600067ffffffffffffffff821115614cb457614cb361505b565b5b614cbd826150a3565b9050602081019050919050565b6000819050602082019050919050565b600081519050919050565b600081519050919050565b600081519050919050565b6000602082019050919050565b600082825260208201905092915050565b600082825260208201905092915050565b600081905092915050565b600082825260208201905092915050565b600081905092915050565b6000614d5c82614e76565b9150614d6783614e76565b9250827fffffffffffffffffffffffffffffffffffffffffffffffffffffffffffffffff03821115614d9c57614d9b614f9f565b5b828201905092915050565b6000614db282614e76565b9150614dbd83614e76565b925082614dcd57614dcc614fce565b5b828204905092915050565b6000614de382614e76565b9150614dee83614e76565b925082821015614e0157614e00614f9f565b5b828203905092915050565b6000614e1782614e56565b9050919050565b60008115159050919050565b60007fffffffff0000000000000000000000000000000000000000000000000000000082169050919050565b600073ffffffffffffffffffffffffffffffffffffffff82169050919050565b6000819050919050565b82818337600083830152505050565b60005b83811015614ead578082015181840152602081019050614e92565b83811115614ebc576000848401525b50505050565b60006002820490506001821680614eda57607f821691505b60208210811415614eee57614eed614ffd565b5b50919050565b614efd826150a3565b810181811067ffffffffffffffff82111715614f1c57614f1b61505b565b5b80604052505050565b6000614f3082614e76565b91507fffffffffffffffffffffffffffffffffffffffffffffffffffffffffffffffff821415614f6357614f62614f9f565b5b600182019050919050565b6000614f7982614e76565b9150614f8483614e76565b925082614f9457614f93614fce565b5b828206905092915050565b7f4e487b7100000000000000000000000000000000000000000000000000000000600052601160045260246000fd5b7f4e487b7100000000000000000000000000000000000000000000000000000000600052601260045260246000fd5b7f4e487b7100000000000000000000000000000000000000000000000000000000600052602260045260246000fd5b7f4e487b7100000000000000000000000000000000000000000000000000000000600052603260045260246000fd5b7f4e487b7100000000000000000000000000000000000000000000000000000000600052604160045260246000fd5b600080fd5b600080fd5b600080fd5b600080fd5b600080fd5b6000601f19601f8301169050919050565b7f4552433732313a207472616e7366657220746f206e6f6e20455243373231526560008201527f63656976657220696d706c656d656e7465720000000000000000000000000000602082015250565b7f73616c6573207472616e73616374696f6e20646f6573206e6f74206578697374600082015250565b7f4552433732313a20746f6b656e20616c7265616479206d696e74656400000000600082015250565b7f73616c6573207472616e73616374696f6e20697320616c72656164792072657660008201527f6f6b656400000000000000000000000000000000000000000000000000000000602082015250565b7f4552433732313a207472616e7366657220746f20746865207a65726f2061646460008201527f7265737300000000000000000000000000000000000000000000000000000000602082015250565b7f4552433732313a20617070726f766520746f2063616c6c657200000000000000600082015250565b7f6d757374206265206163636f756e742074686174207375626d6974746564207360008201527f616c6573207472616e73616374696f6e00000000000000000000000000000000602082015250565b7f4552433732313a206f70657261746f7220717565727920666f72206e6f6e657860008201527f697374656e7420746f6b656e0000000000000000000000000000000000000000602082015250565b7f73616c6573207472616e73616374696f6e20697320616c726561647920636f6e60008201527f6669726d65640000000000000000000000000000000000000000000000000000602082015250565b7f4552433732313a20617070726f76652063616c6c6572206973206e6f74206f7760008201527f6e6572206e6f7220617070726f76656420666f7220616c6c0000000000000000602082015250565b7f73616c6573207472616e73616374696f6e20697320616c72656164792065786560008201527f6375746564000000000000000000000000000000000000000000000000000000602082015250565b7f4552433732313a2062616c616e636520717565727920666f7220746865207a6560008201527f726f206164647265737300000000000000000000000000000000000000000000602082015250565b7f4552433732313a206f776e657220717565727920666f72206e6f6e657869737460008201527f656e7420746f6b656e0000000000000000000000000000000000000000000000602082015250565b7f45524337323155524953746f726167653a2055524920736574206f66206e6f6e60008201527f6578697374656e7420746f6b656e000000000000000000000000000000000000602082015250565b7f4552433732313a206d696e7420746f20746865207a65726f2061646472657373600082015250565b7f4e4654206973206120636f6d706c6574656420636f6d706f7369746500000000600082015250565b7f45524337323155524953746f726167653a2055524920717565727920666f722060008201527f6e6f6e6578697374656e7420746f6b656e000000000000000000000000000000602082015250565b7f4552433732313a20617070726f76656420717565727920666f72206e6f6e657860008201527f697374656e7420746f6b656e0000000000000000000000000000000000000000602082015250565b7f6e6f7420616c6c20746f6b656e73206f776e656420627920636f6e7472616374600082015250565b7f4552433732313a207472616e73666572206f6620746f6b656e2074686174206960008201527f73206e6f74206f776e0000000000000000000000000000000000000000000000602082015250565b7f4552433732314d657461646174613a2055524920717565727920666f72206e6f60008201527f6e6578697374656e7420746f6b656e0000000000000000000000000000000000602082015250565b7f696e76616c696420746f6b656e20494400000000000000000000000000000000600082015250565b7f6e6f204e4654732068617665206265656e206d696e7465640000000000000000600082015250565b7f4552433732313a20617070726f76616c20746f2063757272656e74206f776e6560008201527f7200000000000000000000000000000000000000000000000000000000000000602082015250565b50565b7f5472616e73666572206661696c65642e00000000000000000000000000000000600082015250565b7f4552433732313a207472616e736665722063616c6c6572206973206e6f74206f60008201527f776e6572206e6f7220617070726f766564000000000000000000000000000000602082015250565b7f6e6f7420616e206f776e65720000000000000000000000000000000000000000600082015250565b7f73616c6573207472616e73616374696f6e206e6f7420617070726f766564206260008201527f79206f776e657200000000000000000000000000000000000000000000000000602082015250565b7f6e6f7420796f7572207475726e00000000000000000000000000000000000000600082015250565b7f746f6b656e206e6f74206f776e656420627920636f6e74726163740000000000600082015250565b61583a81614e0c565b811461584557600080fd5b50565b61585181614e1e565b811461585c57600080fd5b50565b61586881614e2a565b811461587357600080fd5b50565b61587f81614e76565b811461588a57600080fd5b5056fea26469706673582212202972af98c9cd81520a3399a353928a4c85a317cb85ce784e4f2dc809ad7e17c264736f6c63430008070033a26469706673582212204a116066681287083e4582dad8093ba47b63fe258877cb538aa65ea122352b4064736f6c63430008070033",
  "immutableReferences": {},
  "source": "// SPDX-License-Identifier: MIT\r\npragma solidity ^0.8.0;\r\n\r\nimport \"./CollaborativeMinter.sol\";\r\n\r\n// Used to launch Collaborative Minter smart contract copies\r\ncontract CollaborativeMinterFactory {\r\n  address[] public collaborativeMinters; // holds all of the addresses of the collaborative minter deployments\r\n  mapping(address => uint[]) public accountToCominters; // holds arrays of collaborative minter index\r\n\r\n  constructor() {}\r\n\r\n  function createCollaborativeMinter(address[] memory _owners) public returns (address) {\r\n    CollaborativeMinter newCollaborativeMinter = new CollaborativeMinter(_owners);\r\n    collaborativeMinters.push(address(newCollaborativeMinter));\r\n    for(uint i = 0; i < _owners.length; i++){ // add minter index for each owner\r\n      accountToCominters[_owners[i]].push(collaborativeMinters.length-1);\r\n    }\r\n    return collaborativeMinters[(collaborativeMinters.length-1)];\r\n  }\r\n\r\n  function getNumberOfCollaborativeMinters(address _account) public view returns(uint256){\r\n    return accountToCominters[_account].length;\r\n  }\r\n\r\n}\r\n",
  "sourcePath": "C:/Users/Gilberto Guadiana/Desktop/BlockchainSummerResearch/SummerResearchGithub/CollaborativeMinter/src/contracts/CollaborativeMinterFactory.sol",
  "compiler": {
    "name": "solc",
    "version": "0.8.7+commit.e28d00a7.Emscripten.clang"
  },
  "schemaVersion": "3.4.1",
  "updatedAt": "2021-08-22T01:26:42.936Z",
  "devdoc": {
    "kind": "dev",
    "methods": {},
    "version": 1
  },
  "userdoc": {
    "kind": "user",
    "methods": {},
    "version": 1
  }
}