{
  "contractName": "CollaborativeMinter",
  "abi": [
    {
      "inputs": [
        {
          "internalType": "address[]",
          "name": "_owners",
          "type": "address[]"
        }
      ],
      "stateMutability": "nonpayable",
      "type": "constructor"
    },
    {
      "anonymous": false,
      "inputs": [
        {
          "indexed": true,
          "internalType": "address",
          "name": "owner",
          "type": "address"
        },
        {
          "indexed": true,
          "internalType": "address",
          "name": "approved",
          "type": "address"
        },
        {
          "indexed": true,
          "internalType": "uint256",
          "name": "tokenId",
          "type": "uint256"
        }
      ],
      "name": "Approval",
      "type": "event"
    },
    {
      "anonymous": false,
      "inputs": [
        {
          "indexed": true,
          "internalType": "address",
          "name": "owner",
          "type": "address"
        },
        {
          "indexed": true,
          "internalType": "address",
          "name": "operator",
          "type": "address"
        },
        {
          "indexed": false,
          "internalType": "bool",
          "name": "approved",
          "type": "bool"
        }
      ],
      "name": "ApprovalForAll",
      "type": "event"
    },
    {
      "anonymous": false,
      "inputs": [
        {
          "indexed": true,
          "internalType": "address",
          "name": "from",
          "type": "address"
        },
        {
          "indexed": true,
          "internalType": "address",
          "name": "to",
          "type": "address"
        },
        {
          "indexed": true,
          "internalType": "uint256",
          "name": "tokenId",
          "type": "uint256"
        }
      ],
      "name": "Transfer",
      "type": "event"
    },
    {
      "inputs": [
        {
          "internalType": "address",
          "name": "to",
          "type": "address"
        },
        {
          "internalType": "uint256",
          "name": "tokenId",
          "type": "uint256"
        }
      ],
      "name": "approve",
      "outputs": [],
      "stateMutability": "nonpayable",
      "type": "function"
    },
    {
      "inputs": [
        {
          "internalType": "address",
          "name": "owner",
          "type": "address"
        }
      ],
      "name": "balanceOf",
      "outputs": [
        {
          "internalType": "uint256",
          "name": "",
          "type": "uint256"
        }
      ],
      "stateMutability": "view",
      "type": "function"
    },
    {
      "inputs": [],
      "name": "currentOwner",
      "outputs": [
        {
          "internalType": "uint256",
          "name": "",
          "type": "uint256"
        }
      ],
      "stateMutability": "view",
      "type": "function"
    },
    {
      "inputs": [
        {
          "internalType": "uint256",
          "name": "tokenId",
          "type": "uint256"
        }
      ],
      "name": "getApproved",
      "outputs": [
        {
          "internalType": "address",
          "name": "",
          "type": "address"
        }
      ],
      "stateMutability": "view",
      "type": "function"
    },
    {
      "inputs": [
        {
          "internalType": "address",
          "name": "owner",
          "type": "address"
        },
        {
          "internalType": "address",
          "name": "operator",
          "type": "address"
        }
      ],
      "name": "isApprovedForAll",
      "outputs": [
        {
          "internalType": "bool",
          "name": "",
          "type": "bool"
        }
      ],
      "stateMutability": "view",
      "type": "function"
    },
    {
      "inputs": [
        {
          "internalType": "address",
          "name": "",
          "type": "address"
        }
      ],
      "name": "isOwner",
      "outputs": [
        {
          "internalType": "bool",
          "name": "",
          "type": "bool"
        }
      ],
      "stateMutability": "view",
      "type": "function"
    },
    {
      "inputs": [],
      "name": "name",
      "outputs": [
        {
          "internalType": "string",
          "name": "",
          "type": "string"
        }
      ],
      "stateMutability": "view",
      "type": "function"
    },
    {
      "inputs": [
        {
          "internalType": "uint256",
          "name": "tokenId",
          "type": "uint256"
        }
      ],
      "name": "ownerOf",
      "outputs": [
        {
          "internalType": "address",
          "name": "",
          "type": "address"
        }
      ],
      "stateMutability": "view",
      "type": "function"
    },
    {
      "inputs": [
        {
          "internalType": "uint256",
          "name": "",
          "type": "uint256"
        }
      ],
      "name": "owners",
      "outputs": [
        {
          "internalType": "address",
          "name": "",
          "type": "address"
        }
      ],
      "stateMutability": "view",
      "type": "function"
    },
    {
      "inputs": [
        {
          "internalType": "address",
          "name": "from",
          "type": "address"
        },
        {
          "internalType": "address",
          "name": "to",
          "type": "address"
        },
        {
          "internalType": "uint256",
          "name": "tokenId",
          "type": "uint256"
        }
      ],
      "name": "safeTransferFrom",
      "outputs": [],
      "stateMutability": "nonpayable",
      "type": "function"
    },
    {
      "inputs": [
        {
          "internalType": "address",
          "name": "from",
          "type": "address"
        },
        {
          "internalType": "address",
          "name": "to",
          "type": "address"
        },
        {
          "internalType": "uint256",
          "name": "tokenId",
          "type": "uint256"
        },
        {
          "internalType": "bytes",
          "name": "_data",
          "type": "bytes"
        }
      ],
      "name": "safeTransferFrom",
      "outputs": [],
      "stateMutability": "nonpayable",
      "type": "function"
    },
    {
      "inputs": [
        {
          "internalType": "address",
          "name": "operator",
          "type": "address"
        },
        {
          "internalType": "bool",
          "name": "approved",
          "type": "bool"
        }
      ],
      "name": "setApprovalForAll",
      "outputs": [],
      "stateMutability": "nonpayable",
      "type": "function"
    },
    {
      "inputs": [
        {
          "internalType": "bytes4",
          "name": "interfaceId",
          "type": "bytes4"
        }
      ],
      "name": "supportsInterface",
      "outputs": [
        {
          "internalType": "bool",
          "name": "",
          "type": "bool"
        }
      ],
      "stateMutability": "view",
      "type": "function"
    },
    {
      "inputs": [],
      "name": "symbol",
      "outputs": [
        {
          "internalType": "string",
          "name": "",
          "type": "string"
        }
      ],
      "stateMutability": "view",
      "type": "function"
    },
    {
      "inputs": [],
      "name": "tokenCounter",
      "outputs": [
        {
          "internalType": "uint256",
          "name": "",
          "type": "uint256"
        }
      ],
      "stateMutability": "view",
      "type": "function"
    },
    {
      "inputs": [
        {
          "internalType": "uint256",
          "name": "tokenId",
          "type": "uint256"
        }
      ],
      "name": "tokenURI",
      "outputs": [
        {
          "internalType": "string",
          "name": "",
          "type": "string"
        }
      ],
      "stateMutability": "view",
      "type": "function"
    },
    {
      "inputs": [
        {
          "internalType": "address",
          "name": "from",
          "type": "address"
        },
        {
          "internalType": "address",
          "name": "to",
          "type": "address"
        },
        {
          "internalType": "uint256",
          "name": "tokenId",
          "type": "uint256"
        }
      ],
      "name": "transferFrom",
      "outputs": [],
      "stateMutability": "nonpayable",
      "type": "function"
    },
    {
      "inputs": [
        {
          "internalType": "string",
          "name": "_tokenURI",
          "type": "string"
        }
      ],
      "name": "collaborativeMint",
      "outputs": [
        {
          "internalType": "uint256",
          "name": "",
          "type": "uint256"
        }
      ],
      "stateMutability": "nonpayable",
      "type": "function"
    }
  ],
  "bytecode": "0x60806040523480156200001157600080fd5b5060405162003552380380620035528339818101604052810190620000379190620003c3565b6040518060400160405280601281526020017f436f6c6c61626f726174697665204d696e7400000000000000000000000000008152506040518060400160405280600681526020017f434f4d494e5400000000000000000000000000000000000000000000000000008152508160009080519060200190620000bb9291906200024e565b508060019080519060200190620000d49291906200024e565b50505060008151116200011e576040517f08c379a000000000000000000000000000000000000000000000000000000000815260040162000115906200043b565b60405180910390fd5b6000600781905550600060088190555060005b8151811015620002465760098282815181106200015357620001526200061c565b5b60200260200101519080600181540180825580915050600190039060005260206000200160009091909190916101000a81548173ffffffffffffffffffffffffffffffffffffffff021916908373ffffffffffffffffffffffffffffffffffffffff1602179055506001600a6000848481518110620001d757620001d66200061c565b5b602002602001015173ffffffffffffffffffffffffffffffffffffffff1673ffffffffffffffffffffffffffffffffffffffff16815260200190815260200160002060006101000a81548160ff02191690831515021790555080806200023d9062000570565b91505062000131565b5050620006e2565b8280546200025c9062000504565b90600052602060002090601f016020900481019282620002805760008555620002cc565b82601f106200029b57805160ff1916838001178555620002cc565b82800160010185558215620002cc579182015b82811115620002cb578251825591602001919060010190620002ae565b5b509050620002db9190620002df565b5090565b5b80821115620002fa576000816000905550600101620002e0565b5090565b6000620003156200030f8462000486565b6200045d565b905080838252602082019050828560208602820111156200033b576200033a6200067f565b5b60005b858110156200036f578162000354888262000379565b8452602084019350602083019250506001810190506200033e565b5050509392505050565b6000815190506200038a81620006c8565b92915050565b600082601f830112620003a857620003a76200067a565b5b8151620003ba848260208601620002fe565b91505092915050565b600060208284031215620003dc57620003db62000689565b5b600082015167ffffffffffffffff811115620003fd57620003fc62000684565b5b6200040b8482850162000390565b91505092915050565b600062000423600f83620004b5565b915062000430826200069f565b602082019050919050565b60006020820190508181036000830152620004568162000414565b9050919050565b6000620004696200047c565b90506200047782826200053a565b919050565b6000604051905090565b600067ffffffffffffffff821115620004a457620004a36200064b565b5b602082029050602081019050919050565b600082825260208201905092915050565b6000620004d382620004da565b9050919050565b600073ffffffffffffffffffffffffffffffffffffffff82169050919050565b6000819050919050565b600060028204905060018216806200051d57607f821691505b60208210811415620005345762000533620005ed565b5b50919050565b62000545826200068e565b810181811067ffffffffffffffff821117156200056757620005666200064b565b5b80604052505050565b60006200057d82620004fa565b91507fffffffffffffffffffffffffffffffffffffffffffffffffffffffffffffffff821415620005b357620005b2620005be565b5b600182019050919050565b7f4e487b7100000000000000000000000000000000000000000000000000000000600052601160045260246000fd5b7f4e487b7100000000000000000000000000000000000000000000000000000000600052602260045260246000fd5b7f4e487b7100000000000000000000000000000000000000000000000000000000600052603260045260246000fd5b7f4e487b7100000000000000000000000000000000000000000000000000000000600052604160045260246000fd5b600080fd5b600080fd5b600080fd5b600080fd5b6000601f19601f8301169050919050565b7f6f776e6572732072657175697265640000000000000000000000000000000000600082015250565b620006d381620004c6565b8114620006df57600080fd5b50565b612e6080620006f26000396000f3fe608060405234801561001057600080fd5b50600436106101165760003560e01c806370a08231116100a2578063b387ef9211610071578063b387ef9214610317578063b88d4fde14610335578063c87b56dd14610351578063d082e38114610381578063e985e9c51461039f57610116565b806370a082311461027d5780637724a692146102ad57806395d89b41146102dd578063a22cb465146102fb57610116565b8063095ea7b3116100e9578063095ea7b3146101c957806323b872dd146101e55780632f54bf6e1461020157806342842e0e146102315780636352211e1461024d57610116565b806301ffc9a71461011b578063025e7c271461014b57806306fdde031461017b578063081812fc14610199575b600080fd5b61013560048036038101906101309190611e09565b6103cf565b6040516101429190612287565b60405180910390f35b61016560048036038101906101609190611eac565b6104b1565b6040516101729190612220565b60405180910390f35b6101836104f0565b60405161019091906122a2565b60405180910390f35b6101b360048036038101906101ae9190611eac565b610582565b6040516101c09190612220565b60405180910390f35b6101e360048036038101906101de9190611dc9565b610607565b005b6101ff60048036038101906101fa9190611cb3565b61071f565b005b61021b60048036038101906102169190611c46565b61077f565b6040516102289190612287565b60405180910390f35b61024b60048036038101906102469190611cb3565b61079f565b005b61026760048036038101906102629190611eac565b6107bf565b6040516102749190612220565b60405180910390f35b61029760048036038101906102929190611c46565b610871565b6040516102a491906124e4565b60405180910390f35b6102c760048036038101906102c29190611e63565b610929565b6040516102d491906124e4565b60405180910390f35b6102e5610a3d565b6040516102f291906122a2565b60405180910390f35b61031560048036038101906103109190611d89565b610acf565b005b61031f610c50565b60405161032c91906124e4565b60405180910390f35b61034f600480360381019061034a9190611d06565b610c56565b005b61036b60048036038101906103669190611eac565b610cb8565b60405161037891906122a2565b60405180910390f35b610389610e0a565b60405161039691906124e4565b60405180910390f35b6103b960048036038101906103b49190611c73565b610e10565b6040516103c69190612287565b60405180910390f35b60007f80ac58cd000000000000000000000000000000000000000000000000000000007bffffffffffffffffffffffffffffffffffffffffffffffffffffffff1916827bffffffffffffffffffffffffffffffffffffffffffffffffffffffff1916148061049a57507f5b5e139f000000000000000000000000000000000000000000000000000000007bffffffffffffffffffffffffffffffffffffffffffffffffffffffff1916827bffffffffffffffffffffffffffffffffffffffffffffffffffffffff1916145b806104aa57506104a982610ea4565b5b9050919050565b600981815481106104c157600080fd5b906000526020600020016000915054906101000a900473ffffffffffffffffffffffffffffffffffffffff1681565b6060600080546104ff9061273a565b80601f016020809104026020016040519081016040528092919081815260200182805461052b9061273a565b80156105785780601f1061054d57610100808354040283529160200191610578565b820191906000526020600020905b81548152906001019060200180831161055b57829003601f168201915b5050505050905090565b600061058d82610f0e565b6105cc576040517f08c379a00000000000000000000000000000000000000000000000000000000081526004016105c390612424565b60405180910390fd5b6004600083815260200190815260200160002060009054906101000a900473ffffffffffffffffffffffffffffffffffffffff169050919050565b6000610612826107bf565b90508073ffffffffffffffffffffffffffffffffffffffff168373ffffffffffffffffffffffffffffffffffffffff161415610683576040517f08c379a000000000000000000000000000000000000000000000000000000000815260040161067a90612484565b60405180910390fd5b8073ffffffffffffffffffffffffffffffffffffffff166106a2610f7a565b73ffffffffffffffffffffffffffffffffffffffff1614806106d157506106d0816106cb610f7a565b610e10565b5b610710576040517f08c379a000000000000000000000000000000000000000000000000000000000815260040161070790612364565b60405180910390fd5b61071a8383610f82565b505050565b61073061072a610f7a565b8261103b565b61076f576040517f08c379a0000000000000000000000000000000000000000000000000000000008152600401610766906124a4565b60405180910390fd5b61077a838383611119565b505050565b600a6020528060005260406000206000915054906101000a900460ff1681565b6107ba83838360405180602001604052806000815250610c56565b505050565b6000806002600084815260200190815260200160002060009054906101000a900473ffffffffffffffffffffffffffffffffffffffff169050600073ffffffffffffffffffffffffffffffffffffffff168173ffffffffffffffffffffffffffffffffffffffff161415610868576040517f08c379a000000000000000000000000000000000000000000000000000000000815260040161085f906123a4565b60405180910390fd5b80915050919050565b60008073ffffffffffffffffffffffffffffffffffffffff168273ffffffffffffffffffffffffffffffffffffffff1614156108e2576040517f08c379a00000000000000000000000000000000000000000000000000000000081526004016108d990612384565b60405180910390fd5b600360008373ffffffffffffffffffffffffffffffffffffffff1673ffffffffffffffffffffffffffffffffffffffff168152602001908152602001600020549050919050565b6000600960085481548110610941576109406128a4565b5b9060005260206000200160009054906101000a900473ffffffffffffffffffffffffffffffffffffffff1673ffffffffffffffffffffffffffffffffffffffff163373ffffffffffffffffffffffffffffffffffffffff16146109d9576040517f08c379a00000000000000000000000000000000000000000000000000000000081526004016109d0906124c4565b60405180910390fd5b600060075490506109ea3082611375565b6109f48184611393565b6001600754610a0391906125c9565b60078190555060006009805490506001600854610a2091906125c9565b610a2a91906127e6565b9050806008819055508192505050919050565b606060018054610a4c9061273a565b80601f0160208091040260200160405190810160405280929190818152602001828054610a789061273a565b8015610ac55780601f10610a9a57610100808354040283529160200191610ac5565b820191906000526020600020905b815481529060010190602001808311610aa857829003601f168201915b5050505050905090565b610ad7610f7a565b73ffffffffffffffffffffffffffffffffffffffff168273ffffffffffffffffffffffffffffffffffffffff161415610b45576040517f08c379a0000000000000000000000000000000000000000000000000000000008152600401610b3c90612324565b60405180910390fd5b8060056000610b52610f7a565b73ffffffffffffffffffffffffffffffffffffffff1673ffffffffffffffffffffffffffffffffffffffff16815260200190815260200160002060008473ffffffffffffffffffffffffffffffffffffffff1673ffffffffffffffffffffffffffffffffffffffff16815260200190815260200160002060006101000a81548160ff0219169083151502179055508173ffffffffffffffffffffffffffffffffffffffff16610bff610f7a565b73ffffffffffffffffffffffffffffffffffffffff167f17307eab39ab6107e8899845ad3d59bd9653f200f220920489ca2b5937696c3183604051610c449190612287565b60405180910390a35050565b60085481565b610c67610c61610f7a565b8361103b565b610ca6576040517f08c379a0000000000000000000000000000000000000000000000000000000008152600401610c9d906124a4565b60405180910390fd5b610cb284848484611407565b50505050565b6060610cc382610f0e565b610d02576040517f08c379a0000000000000000000000000000000000000000000000000000000008152600401610cf990612404565b60405180910390fd5b6000600660008481526020019081526020016000208054610d229061273a565b80601f0160208091040260200160405190810160405280929190818152602001828054610d4e9061273a565b8015610d9b5780601f10610d7057610100808354040283529160200191610d9b565b820191906000526020600020905b815481529060010190602001808311610d7e57829003601f168201915b505050505090506000610dac611463565b9050600081511415610dc2578192505050610e05565b600082511115610df7578082604051602001610ddf9291906121fc565b60405160208183030381529060405292505050610e05565b610e008461147a565b925050505b919050565b60075481565b6000600560008473ffffffffffffffffffffffffffffffffffffffff1673ffffffffffffffffffffffffffffffffffffffff16815260200190815260200160002060008373ffffffffffffffffffffffffffffffffffffffff1673ffffffffffffffffffffffffffffffffffffffff16815260200190815260200160002060009054906101000a900460ff16905092915050565b60007f01ffc9a7000000000000000000000000000000000000000000000000000000007bffffffffffffffffffffffffffffffffffffffffffffffffffffffff1916827bffffffffffffffffffffffffffffffffffffffffffffffffffffffff1916149050919050565b60008073ffffffffffffffffffffffffffffffffffffffff166002600084815260200190815260200160002060009054906101000a900473ffffffffffffffffffffffffffffffffffffffff1673ffffffffffffffffffffffffffffffffffffffff1614159050919050565b600033905090565b816004600083815260200190815260200160002060006101000a81548173ffffffffffffffffffffffffffffffffffffffff021916908373ffffffffffffffffffffffffffffffffffffffff160217905550808273ffffffffffffffffffffffffffffffffffffffff16610ff5836107bf565b73ffffffffffffffffffffffffffffffffffffffff167f8c5be1e5ebec7d5bd14f71427d1e84f3dd0314c0f7b2291e5b200ac8c7c3b92560405160405180910390a45050565b600061104682610f0e565b611085576040517f08c379a000000000000000000000000000000000000000000000000000000000815260040161107c90612344565b60405180910390fd5b6000611090836107bf565b90508073ffffffffffffffffffffffffffffffffffffffff168473ffffffffffffffffffffffffffffffffffffffff1614806110ff57508373ffffffffffffffffffffffffffffffffffffffff166110e784610582565b73ffffffffffffffffffffffffffffffffffffffff16145b80611110575061110f8185610e10565b5b91505092915050565b8273ffffffffffffffffffffffffffffffffffffffff16611139826107bf565b73ffffffffffffffffffffffffffffffffffffffff161461118f576040517f08c379a000000000000000000000000000000000000000000000000000000000815260040161118690612444565b60405180910390fd5b600073ffffffffffffffffffffffffffffffffffffffff168273ffffffffffffffffffffffffffffffffffffffff1614156111ff576040517f08c379a00000000000000000000000000000000000000000000000000000000081526004016111f690612304565b60405180910390fd5b61120a838383611521565b611215600082610f82565b6001600360008573ffffffffffffffffffffffffffffffffffffffff1673ffffffffffffffffffffffffffffffffffffffff16815260200190815260200160002060008282546112659190612650565b925050819055506001600360008473ffffffffffffffffffffffffffffffffffffffff1673ffffffffffffffffffffffffffffffffffffffff16815260200190815260200160002060008282546112bc91906125c9565b92505081905550816002600083815260200190815260200160002060006101000a81548173ffffffffffffffffffffffffffffffffffffffff021916908373ffffffffffffffffffffffffffffffffffffffff160217905550808273ffffffffffffffffffffffffffffffffffffffff168473ffffffffffffffffffffffffffffffffffffffff167fddf252ad1be2c89b69c2b068fc378daa952ba7f163c4a11628f55a4df523b3ef60405160405180910390a4505050565b61138f828260405180602001604052806000815250611526565b5050565b61139c82610f0e565b6113db576040517f08c379a00000000000000000000000000000000000000000000000000000000081526004016113d2906123c4565b60405180910390fd5b80600660008481526020019081526020016000209080519060200190611402929190611a5a565b505050565b611412848484611119565b61141e84848484611581565b61145d576040517f08c379a0000000000000000000000000000000000000000000000000000000008152600401611454906122c4565b60405180910390fd5b50505050565b606060405180602001604052806000815250905090565b606061148582610f0e565b6114c4576040517f08c379a00000000000000000000000000000000000000000000000000000000081526004016114bb90612464565b60405180910390fd5b60006114ce611463565b905060008151116114ee5760405180602001604052806000815250611519565b806114f884611718565b6040516020016115099291906121fc565b6040516020818303038152906040525b915050919050565b505050565b6115308383611879565b61153d6000848484611581565b61157c576040517f08c379a0000000000000000000000000000000000000000000000000000000008152600401611573906122c4565b60405180910390fd5b505050565b60006115a28473ffffffffffffffffffffffffffffffffffffffff16611a47565b1561170b578373ffffffffffffffffffffffffffffffffffffffff1663150b7a026115cb610f7a565b8786866040518563ffffffff1660e01b81526004016115ed949392919061223b565b602060405180830381600087803b15801561160757600080fd5b505af192505050801561163857506040513d601f19601f820116820180604052508101906116359190611e36565b60015b6116bb573d8060008114611668576040519150601f19603f3d011682016040523d82523d6000602084013e61166d565b606091505b506000815114156116b3576040517f08c379a00000000000000000000000000000000000000000000000000000000081526004016116aa906122c4565b60405180910390fd5b805181602001fd5b63150b7a0260e01b7bffffffffffffffffffffffffffffffffffffffffffffffffffffffff1916817bffffffffffffffffffffffffffffffffffffffffffffffffffffffff191614915050611710565b600190505b949350505050565b60606000821415611760576040518060400160405280600181526020017f30000000000000000000000000000000000000000000000000000000000000008152509050611874565b600082905060005b6000821461179257808061177b9061279d565b915050600a8261178b919061261f565b9150611768565b60008167ffffffffffffffff8111156117ae576117ad6128d3565b5b6040519080825280601f01601f1916602001820160405280156117e05781602001600182028036833780820191505090505b5090505b6000851461186d576001826117f99190612650565b9150600a8561180891906127e6565b603061181491906125c9565b60f81b81838151811061182a576118296128a4565b5b60200101907effffffffffffffffffffffffffffffffffffffffffffffffffffffffffffff1916908160001a905350600a85611866919061261f565b94506117e4565b8093505050505b919050565b600073ffffffffffffffffffffffffffffffffffffffff168273ffffffffffffffffffffffffffffffffffffffff1614156118e9576040517f08c379a00000000000000000000000000000000000000000000000000000000081526004016118e0906123e4565b60405180910390fd5b6118f281610f0e565b15611932576040517f08c379a0000000000000000000000000000000000000000000000000000000008152600401611929906122e4565b60405180910390fd5b61193e60008383611521565b6001600360008473ffffffffffffffffffffffffffffffffffffffff1673ffffffffffffffffffffffffffffffffffffffff168152602001908152602001600020600082825461198e91906125c9565b92505081905550816002600083815260200190815260200160002060006101000a81548173ffffffffffffffffffffffffffffffffffffffff021916908373ffffffffffffffffffffffffffffffffffffffff160217905550808273ffffffffffffffffffffffffffffffffffffffff16600073ffffffffffffffffffffffffffffffffffffffff167fddf252ad1be2c89b69c2b068fc378daa952ba7f163c4a11628f55a4df523b3ef60405160405180910390a45050565b600080823b905060008111915050919050565b828054611a669061273a565b90600052602060002090601f016020900481019282611a885760008555611acf565b82601f10611aa157805160ff1916838001178555611acf565b82800160010185558215611acf579182015b82811115611ace578251825591602001919060010190611ab3565b5b509050611adc9190611ae0565b5090565b5b80821115611af9576000816000905550600101611ae1565b5090565b6000611b10611b0b84612524565b6124ff565b905082815260208101848484011115611b2c57611b2b612907565b5b611b378482856126f8565b509392505050565b6000611b52611b4d84612555565b6124ff565b905082815260208101848484011115611b6e57611b6d612907565b5b611b798482856126f8565b509392505050565b600081359050611b9081612dce565b92915050565b600081359050611ba581612de5565b92915050565b600081359050611bba81612dfc565b92915050565b600081519050611bcf81612dfc565b92915050565b600082601f830112611bea57611be9612902565b5b8135611bfa848260208601611afd565b91505092915050565b600082601f830112611c1857611c17612902565b5b8135611c28848260208601611b3f565b91505092915050565b600081359050611c4081612e13565b92915050565b600060208284031215611c5c57611c5b612911565b5b6000611c6a84828501611b81565b91505092915050565b60008060408385031215611c8a57611c89612911565b5b6000611c9885828601611b81565b9250506020611ca985828601611b81565b9150509250929050565b600080600060608486031215611ccc57611ccb612911565b5b6000611cda86828701611b81565b9350506020611ceb86828701611b81565b9250506040611cfc86828701611c31565b9150509250925092565b60008060008060808587031215611d2057611d1f612911565b5b6000611d2e87828801611b81565b9450506020611d3f87828801611b81565b9350506040611d5087828801611c31565b925050606085013567ffffffffffffffff811115611d7157611d7061290c565b5b611d7d87828801611bd5565b91505092959194509250565b60008060408385031215611da057611d9f612911565b5b6000611dae85828601611b81565b9250506020611dbf85828601611b96565b9150509250929050565b60008060408385031215611de057611ddf612911565b5b6000611dee85828601611b81565b9250506020611dff85828601611c31565b9150509250929050565b600060208284031215611e1f57611e1e612911565b5b6000611e2d84828501611bab565b91505092915050565b600060208284031215611e4c57611e4b612911565b5b6000611e5a84828501611bc0565b91505092915050565b600060208284031215611e7957611e78612911565b5b600082013567ffffffffffffffff811115611e9757611e9661290c565b5b611ea384828501611c03565b91505092915050565b600060208284031215611ec257611ec1612911565b5b6000611ed084828501611c31565b91505092915050565b611ee281612684565b82525050565b611ef181612696565b82525050565b6000611f0282612586565b611f0c818561259c565b9350611f1c818560208601612707565b611f2581612916565b840191505092915050565b6000611f3b82612591565b611f4581856125ad565b9350611f55818560208601612707565b611f5e81612916565b840191505092915050565b6000611f7482612591565b611f7e81856125be565b9350611f8e818560208601612707565b80840191505092915050565b6000611fa76032836125ad565b9150611fb282612927565b604082019050919050565b6000611fca601c836125ad565b9150611fd582612976565b602082019050919050565b6000611fed6024836125ad565b9150611ff88261299f565b604082019050919050565b60006120106019836125ad565b915061201b826129ee565b602082019050919050565b6000612033602c836125ad565b915061203e82612a17565b604082019050919050565b60006120566038836125ad565b915061206182612a66565b604082019050919050565b6000612079602a836125ad565b915061208482612ab5565b604082019050919050565b600061209c6029836125ad565b91506120a782612b04565b604082019050919050565b60006120bf602e836125ad565b91506120ca82612b53565b604082019050919050565b60006120e26020836125ad565b91506120ed82612ba2565b602082019050919050565b60006121056031836125ad565b915061211082612bcb565b604082019050919050565b6000612128602c836125ad565b915061213382612c1a565b604082019050919050565b600061214b6029836125ad565b915061215682612c69565b604082019050919050565b600061216e602f836125ad565b915061217982612cb8565b604082019050919050565b60006121916021836125ad565b915061219c82612d07565b604082019050919050565b60006121b46031836125ad565b91506121bf82612d56565b604082019050919050565b60006121d7600d836125ad565b91506121e282612da5565b602082019050919050565b6121f6816126ee565b82525050565b60006122088285611f69565b91506122148284611f69565b91508190509392505050565b60006020820190506122356000830184611ed9565b92915050565b60006080820190506122506000830187611ed9565b61225d6020830186611ed9565b61226a60408301856121ed565b818103606083015261227c8184611ef7565b905095945050505050565b600060208201905061229c6000830184611ee8565b92915050565b600060208201905081810360008301526122bc8184611f30565b905092915050565b600060208201905081810360008301526122dd81611f9a565b9050919050565b600060208201905081810360008301526122fd81611fbd565b9050919050565b6000602082019050818103600083015261231d81611fe0565b9050919050565b6000602082019050818103600083015261233d81612003565b9050919050565b6000602082019050818103600083015261235d81612026565b9050919050565b6000602082019050818103600083015261237d81612049565b9050919050565b6000602082019050818103600083015261239d8161206c565b9050919050565b600060208201905081810360008301526123bd8161208f565b9050919050565b600060208201905081810360008301526123dd816120b2565b9050919050565b600060208201905081810360008301526123fd816120d5565b9050919050565b6000602082019050818103600083015261241d816120f8565b9050919050565b6000602082019050818103600083015261243d8161211b565b9050919050565b6000602082019050818103600083015261245d8161213e565b9050919050565b6000602082019050818103600083015261247d81612161565b9050919050565b6000602082019050818103600083015261249d81612184565b9050919050565b600060208201905081810360008301526124bd816121a7565b9050919050565b600060208201905081810360008301526124dd816121ca565b9050919050565b60006020820190506124f960008301846121ed565b92915050565b600061250961251a565b9050612515828261276c565b919050565b6000604051905090565b600067ffffffffffffffff82111561253f5761253e6128d3565b5b61254882612916565b9050602081019050919050565b600067ffffffffffffffff8211156125705761256f6128d3565b5b61257982612916565b9050602081019050919050565b600081519050919050565b600081519050919050565b600082825260208201905092915050565b600082825260208201905092915050565b600081905092915050565b60006125d4826126ee565b91506125df836126ee565b9250827fffffffffffffffffffffffffffffffffffffffffffffffffffffffffffffffff0382111561261457612613612817565b5b828201905092915050565b600061262a826126ee565b9150612635836126ee565b92508261264557612644612846565b5b828204905092915050565b600061265b826126ee565b9150612666836126ee565b92508282101561267957612678612817565b5b828203905092915050565b600061268f826126ce565b9050919050565b60008115159050919050565b60007fffffffff0000000000000000000000000000000000000000000000000000000082169050919050565b600073ffffffffffffffffffffffffffffffffffffffff82169050919050565b6000819050919050565b82818337600083830152505050565b60005b8381101561272557808201518184015260208101905061270a565b83811115612734576000848401525b50505050565b6000600282049050600182168061275257607f821691505b6020821081141561276657612765612875565b5b50919050565b61277582612916565b810181811067ffffffffffffffff82111715612794576127936128d3565b5b80604052505050565b60006127a8826126ee565b91507fffffffffffffffffffffffffffffffffffffffffffffffffffffffffffffffff8214156127db576127da612817565b5b600182019050919050565b60006127f1826126ee565b91506127fc836126ee565b92508261280c5761280b612846565b5b828206905092915050565b7f4e487b7100000000000000000000000000000000000000000000000000000000600052601160045260246000fd5b7f4e487b7100000000000000000000000000000000000000000000000000000000600052601260045260246000fd5b7f4e487b7100000000000000000000000000000000000000000000000000000000600052602260045260246000fd5b7f4e487b7100000000000000000000000000000000000000000000000000000000600052603260045260246000fd5b7f4e487b7100000000000000000000000000000000000000000000000000000000600052604160045260246000fd5b600080fd5b600080fd5b600080fd5b600080fd5b6000601f19601f8301169050919050565b7f4552433732313a207472616e7366657220746f206e6f6e20455243373231526560008201527f63656976657220696d706c656d656e7465720000000000000000000000000000602082015250565b7f4552433732313a20746f6b656e20616c7265616479206d696e74656400000000600082015250565b7f4552433732313a207472616e7366657220746f20746865207a65726f2061646460008201527f7265737300000000000000000000000000000000000000000000000000000000602082015250565b7f4552433732313a20617070726f766520746f2063616c6c657200000000000000600082015250565b7f4552433732313a206f70657261746f7220717565727920666f72206e6f6e657860008201527f697374656e7420746f6b656e0000000000000000000000000000000000000000602082015250565b7f4552433732313a20617070726f76652063616c6c6572206973206e6f74206f7760008201527f6e6572206e6f7220617070726f76656420666f7220616c6c0000000000000000602082015250565b7f4552433732313a2062616c616e636520717565727920666f7220746865207a6560008201527f726f206164647265737300000000000000000000000000000000000000000000602082015250565b7f4552433732313a206f776e657220717565727920666f72206e6f6e657869737460008201527f656e7420746f6b656e0000000000000000000000000000000000000000000000602082015250565b7f45524337323155524953746f726167653a2055524920736574206f66206e6f6e60008201527f6578697374656e7420746f6b656e000000000000000000000000000000000000602082015250565b7f4552433732313a206d696e7420746f20746865207a65726f2061646472657373600082015250565b7f45524337323155524953746f726167653a2055524920717565727920666f722060008201527f6e6f6e6578697374656e7420746f6b656e000000000000000000000000000000602082015250565b7f4552433732313a20617070726f76656420717565727920666f72206e6f6e657860008201527f697374656e7420746f6b656e0000000000000000000000000000000000000000602082015250565b7f4552433732313a207472616e73666572206f6620746f6b656e2074686174206960008201527f73206e6f74206f776e0000000000000000000000000000000000000000000000602082015250565b7f4552433732314d657461646174613a2055524920717565727920666f72206e6f60008201527f6e6578697374656e7420746f6b656e0000000000000000000000000000000000602082015250565b7f4552433732313a20617070726f76616c20746f2063757272656e74206f776e6560008201527f7200000000000000000000000000000000000000000000000000000000000000602082015250565b7f4552433732313a207472616e736665722063616c6c6572206973206e6f74206f60008201527f776e6572206e6f7220617070726f766564000000000000000000000000000000602082015250565b7f6e6f7420796f7572207475726e00000000000000000000000000000000000000600082015250565b612dd781612684565b8114612de257600080fd5b50565b612dee81612696565b8114612df957600080fd5b50565b612e05816126a2565b8114612e1057600080fd5b50565b612e1c816126ee565b8114612e2757600080fd5b5056fea26469706673582212208d5defee618aa263301c4844f10e9453e4c86b46514d9b6c43286ec7c33d658064736f6c63430008060033",
  "immutableReferences": {},
  "source": "// SPDX-License-Identifier: MIT\r\npragma solidity ^0.8.0;\r\n\r\n// ERC721URIStorage allows you to set tokenURI after minting\r\n// ERC721Burnable allows you to burn the NFT if you so choose\r\nimport \"@openzeppelin/contracts/token/ERC721/extensions/ERC721URIStorage.sol\";\r\n// import \"@openzeppelin/contracts/token/ERC721/extensions/ERC721Burnable.sol\";\r\n\r\n// NFT Smart Contract Constructor\r\ncontract CollaborativeMinter is ERC721URIStorage {\r\n    uint256 public tokenCounter;\r\n    uint256 public currentOwner; // define whose turn it is at the current time with owners index\r\n    address[] public owners; // keep track of all owners of the NFT\r\n    mapping(address => bool) public isOwner; // used to check if someone is an owner\r\n\r\n    constructor (address[] memory _owners) public ERC721 (\"Collaborative Mint\", \"COMINT\"){\r\n      require(_owners.length > 0, \"owners required\");\r\n      tokenCounter = 0;\r\n      currentOwner = 0; // define the first owner to have an active turn\r\n      for(uint i = 0; i < _owners.length; i++){ // define the owners\r\n        owners.push(_owners[i]);\r\n        isOwner[_owners[i]] = true;\r\n      }\r\n    }\r\n\r\n    modifier onlyCurrentOwner { // restrict to only the active owner\r\n      require(msg.sender == owners[currentOwner], \"not your turn\");\r\n      _;\r\n    }\r\n\r\n    modifier onlyOwner { // restrict to only owners\r\n      require(isOwner[msg.sender],'not an owner');\r\n      _;\r\n    }\r\n\r\n    // NFT minting function where only the current owner can mint\r\n    function collaborativeMint(string memory _tokenURI) public onlyCurrentOwner returns (uint256) {\r\n        uint256 newItemId = tokenCounter;\r\n        _safeMint(address(this), newItemId); // the owner of the NFT is this smart contract\r\n        _setTokenURI(newItemId, _tokenURI);\r\n        tokenCounter = tokenCounter + 1;\r\n        uint256 nextOwnerId = (currentOwner + 1) % owners.length; // set up the next turn by getting the following ID\r\n        currentOwner = nextOwnerId; // update whose turn it is\r\n        return newItemId;\r\n    }\r\n\r\n}\r\n",
  "sourcePath": "C:\\Users\\Gilberto Guadiana\\Desktop\\BlockchainSummerResearch\\SummerResearchGithub\\CollaborativeMinter\\src\\contracts\\CollaborativeMinter.sol",
  "compiler": {
    "name": "solc",
    "version": "0.8.6+commit.11564f7e.Emscripten.clang"
  },
  "schemaVersion": "3.4.1",
  "updatedAt": "2021-08-06T19:12:57.539Z",
  "devdoc": {
    "kind": "dev",
    "methods": {
      "approve(address,uint256)": {
        "details": "See {IERC721-approve}."
      },
      "balanceOf(address)": {
        "details": "See {IERC721-balanceOf}."
      },
      "getApproved(uint256)": {
        "details": "See {IERC721-getApproved}."
      },
      "isApprovedForAll(address,address)": {
        "details": "See {IERC721-isApprovedForAll}."
      },
      "name()": {
        "details": "See {IERC721Metadata-name}."
      },
      "ownerOf(uint256)": {
        "details": "See {IERC721-ownerOf}."
      },
      "safeTransferFrom(address,address,uint256)": {
        "details": "See {IERC721-safeTransferFrom}."
      },
      "safeTransferFrom(address,address,uint256,bytes)": {
        "details": "See {IERC721-safeTransferFrom}."
      },
      "setApprovalForAll(address,bool)": {
        "details": "See {IERC721-setApprovalForAll}."
      },
      "supportsInterface(bytes4)": {
        "details": "See {IERC165-supportsInterface}."
      },
      "symbol()": {
        "details": "See {IERC721Metadata-symbol}."
      },
      "tokenURI(uint256)": {
        "details": "See {IERC721Metadata-tokenURI}."
      },
      "transferFrom(address,address,uint256)": {
        "details": "See {IERC721-transferFrom}."
      }
    },
    "version": 1
  },
  "userdoc": {
    "kind": "user",
    "methods": {},
    "version": 1
  }
}