{
  "contractName": "CollaborativeMinter",
  "abi": [
    {
      "inputs": [
        {
          "internalType": "address[]",
          "name": "_owners",
          "type": "address[]"
        }
      ],
      "stateMutability": "nonpayable",
      "type": "constructor"
    },
    {
      "anonymous": false,
      "inputs": [
        {
          "indexed": true,
          "internalType": "address",
          "name": "owner",
          "type": "address"
        },
        {
          "indexed": true,
          "internalType": "address",
          "name": "approved",
          "type": "address"
        },
        {
          "indexed": true,
          "internalType": "uint256",
          "name": "tokenId",
          "type": "uint256"
        }
      ],
      "name": "Approval",
      "type": "event"
    },
    {
      "anonymous": false,
      "inputs": [
        {
          "indexed": true,
          "internalType": "address",
          "name": "owner",
          "type": "address"
        },
        {
          "indexed": true,
          "internalType": "address",
          "name": "operator",
          "type": "address"
        },
        {
          "indexed": false,
          "internalType": "bool",
          "name": "approved",
          "type": "bool"
        }
      ],
      "name": "ApprovalForAll",
      "type": "event"
    },
    {
      "anonymous": false,
      "inputs": [
        {
          "indexed": true,
          "internalType": "address",
          "name": "from",
          "type": "address"
        },
        {
          "indexed": true,
          "internalType": "address",
          "name": "to",
          "type": "address"
        },
        {
          "indexed": true,
          "internalType": "uint256",
          "name": "tokenId",
          "type": "uint256"
        }
      ],
      "name": "Transfer",
      "type": "event"
    },
    {
      "inputs": [
        {
          "internalType": "address",
          "name": "to",
          "type": "address"
        },
        {
          "internalType": "uint256",
          "name": "tokenId",
          "type": "uint256"
        }
      ],
      "name": "approve",
      "outputs": [],
      "stateMutability": "nonpayable",
      "type": "function"
    },
    {
      "inputs": [
        {
          "internalType": "address",
          "name": "owner",
          "type": "address"
        }
      ],
      "name": "balanceOf",
      "outputs": [
        {
          "internalType": "uint256",
          "name": "",
          "type": "uint256"
        }
      ],
      "stateMutability": "view",
      "type": "function"
    },
    {
      "inputs": [],
      "name": "currentOwner",
      "outputs": [
        {
          "internalType": "uint256",
          "name": "",
          "type": "uint256"
        }
      ],
      "stateMutability": "view",
      "type": "function"
    },
    {
      "inputs": [
        {
          "internalType": "uint256",
          "name": "tokenId",
          "type": "uint256"
        }
      ],
      "name": "getApproved",
      "outputs": [
        {
          "internalType": "address",
          "name": "",
          "type": "address"
        }
      ],
      "stateMutability": "view",
      "type": "function"
    },
    {
      "inputs": [
        {
          "internalType": "address",
          "name": "owner",
          "type": "address"
        },
        {
          "internalType": "address",
          "name": "operator",
          "type": "address"
        }
      ],
      "name": "isApprovedForAll",
      "outputs": [
        {
          "internalType": "bool",
          "name": "",
          "type": "bool"
        }
      ],
      "stateMutability": "view",
      "type": "function"
    },
    {
      "inputs": [
        {
          "internalType": "address",
          "name": "",
          "type": "address"
        }
      ],
      "name": "isOwner",
      "outputs": [
        {
          "internalType": "bool",
          "name": "",
          "type": "bool"
        }
      ],
      "stateMutability": "view",
      "type": "function"
    },
    {
      "inputs": [],
      "name": "name",
      "outputs": [
        {
          "internalType": "string",
          "name": "",
          "type": "string"
        }
      ],
      "stateMutability": "view",
      "type": "function"
    },
    {
      "inputs": [],
      "name": "numberOfOwners",
      "outputs": [
        {
          "internalType": "uint256",
          "name": "",
          "type": "uint256"
        }
      ],
      "stateMutability": "view",
      "type": "function"
    },
    {
      "inputs": [
        {
          "internalType": "address",
          "name": "",
          "type": "address"
        },
        {
          "internalType": "address",
          "name": "",
          "type": "address"
        },
        {
          "internalType": "uint256",
          "name": "",
          "type": "uint256"
        },
        {
          "internalType": "bytes",
          "name": "",
          "type": "bytes"
        }
      ],
      "name": "onERC721Received",
      "outputs": [
        {
          "internalType": "bytes4",
          "name": "",
          "type": "bytes4"
        }
      ],
      "stateMutability": "nonpayable",
      "type": "function"
    },
    {
      "inputs": [
        {
          "internalType": "uint256",
          "name": "tokenId",
          "type": "uint256"
        }
      ],
      "name": "ownerOf",
      "outputs": [
        {
          "internalType": "address",
          "name": "",
          "type": "address"
        }
      ],
      "stateMutability": "view",
      "type": "function"
    },
    {
      "inputs": [
        {
          "internalType": "uint256",
          "name": "",
          "type": "uint256"
        }
      ],
      "name": "owners",
      "outputs": [
        {
          "internalType": "address",
          "name": "",
          "type": "address"
        }
      ],
      "stateMutability": "view",
      "type": "function"
    },
    {
      "inputs": [
        {
          "internalType": "address",
          "name": "from",
          "type": "address"
        },
        {
          "internalType": "address",
          "name": "to",
          "type": "address"
        },
        {
          "internalType": "uint256",
          "name": "tokenId",
          "type": "uint256"
        }
      ],
      "name": "safeTransferFrom",
      "outputs": [],
      "stateMutability": "nonpayable",
      "type": "function"
    },
    {
      "inputs": [
        {
          "internalType": "address",
          "name": "from",
          "type": "address"
        },
        {
          "internalType": "address",
          "name": "to",
          "type": "address"
        },
        {
          "internalType": "uint256",
          "name": "tokenId",
          "type": "uint256"
        },
        {
          "internalType": "bytes",
          "name": "_data",
          "type": "bytes"
        }
      ],
      "name": "safeTransferFrom",
      "outputs": [],
      "stateMutability": "nonpayable",
      "type": "function"
    },
    {
      "inputs": [
        {
          "internalType": "address",
          "name": "operator",
          "type": "address"
        },
        {
          "internalType": "bool",
          "name": "approved",
          "type": "bool"
        }
      ],
      "name": "setApprovalForAll",
      "outputs": [],
      "stateMutability": "nonpayable",
      "type": "function"
    },
    {
      "inputs": [
        {
          "internalType": "bytes4",
          "name": "interfaceId",
          "type": "bytes4"
        }
      ],
      "name": "supportsInterface",
      "outputs": [
        {
          "internalType": "bool",
          "name": "",
          "type": "bool"
        }
      ],
      "stateMutability": "view",
      "type": "function"
    },
    {
      "inputs": [],
      "name": "symbol",
      "outputs": [
        {
          "internalType": "string",
          "name": "",
          "type": "string"
        }
      ],
      "stateMutability": "view",
      "type": "function"
    },
    {
      "inputs": [],
      "name": "tokenCounter",
      "outputs": [
        {
          "internalType": "uint256",
          "name": "",
          "type": "uint256"
        }
      ],
      "stateMutability": "view",
      "type": "function"
    },
    {
      "inputs": [
        {
          "internalType": "uint256",
          "name": "tokenId",
          "type": "uint256"
        }
      ],
      "name": "tokenURI",
      "outputs": [
        {
          "internalType": "string",
          "name": "",
          "type": "string"
        }
      ],
      "stateMutability": "view",
      "type": "function"
    },
    {
      "inputs": [
        {
          "internalType": "address",
          "name": "from",
          "type": "address"
        },
        {
          "internalType": "address",
          "name": "to",
          "type": "address"
        },
        {
          "internalType": "uint256",
          "name": "tokenId",
          "type": "uint256"
        }
      ],
      "name": "transferFrom",
      "outputs": [],
      "stateMutability": "nonpayable",
      "type": "function"
    },
    {
      "inputs": [
        {
          "internalType": "string",
          "name": "_tokenURI",
          "type": "string"
        }
      ],
      "name": "collaborativeMint",
      "outputs": [
        {
          "internalType": "uint256",
          "name": "",
          "type": "uint256"
        }
      ],
      "stateMutability": "nonpayable",
      "type": "function"
    }
  ],
  "bytecode": "0x60806040523480156200001157600080fd5b5060405162003602380380620036028339818101604052810190620000379190620003cb565b6040518060400160405280601281526020017f436f6c6c61626f726174697665204d696e7400000000000000000000000000008152506040518060400160405280600681526020017f434f4d494e5400000000000000000000000000000000000000000000000000008152508160009080519060200190620000bb92919062000256565b508060019080519060200190620000d492919062000256565b50505060008151116200011e576040517f08c379a0000000000000000000000000000000000000000000000000000000008152600401620001159062000443565b60405180910390fd5b60006007819055508051600981905550600060088190555060005b81518110156200024e57600a8282815181106200015b576200015a62000624565b5b60200260200101519080600181540180825580915050600190039060005260206000200160009091909190916101000a81548173ffffffffffffffffffffffffffffffffffffffff021916908373ffffffffffffffffffffffffffffffffffffffff1602179055506001600b6000848481518110620001df57620001de62000624565b5b602002602001015173ffffffffffffffffffffffffffffffffffffffff1673ffffffffffffffffffffffffffffffffffffffff16815260200190815260200160002060006101000a81548160ff0219169083151502179055508080620002459062000578565b91505062000139565b5050620006ea565b82805462000264906200050c565b90600052602060002090601f016020900481019282620002885760008555620002d4565b82601f10620002a357805160ff1916838001178555620002d4565b82800160010185558215620002d4579182015b82811115620002d3578251825591602001919060010190620002b6565b5b509050620002e39190620002e7565b5090565b5b8082111562000302576000816000905550600101620002e8565b5090565b60006200031d62000317846200048e565b62000465565b9050808382526020820190508285602086028201111562000343576200034262000687565b5b60005b858110156200037757816200035c888262000381565b84526020840193506020830192505060018101905062000346565b5050509392505050565b6000815190506200039281620006d0565b92915050565b600082601f830112620003b057620003af62000682565b5b8151620003c284826020860162000306565b91505092915050565b600060208284031215620003e457620003e362000691565b5b600082015167ffffffffffffffff8111156200040557620004046200068c565b5b620004138482850162000398565b91505092915050565b60006200042b600f83620004bd565b91506200043882620006a7565b602082019050919050565b600060208201905081810360008301526200045e816200041c565b9050919050565b60006200047162000484565b90506200047f828262000542565b919050565b6000604051905090565b600067ffffffffffffffff821115620004ac57620004ab62000653565b5b602082029050602081019050919050565b600082825260208201905092915050565b6000620004db82620004e2565b9050919050565b600073ffffffffffffffffffffffffffffffffffffffff82169050919050565b6000819050919050565b600060028204905060018216806200052557607f821691505b602082108114156200053c576200053b620005f5565b5b50919050565b6200054d8262000696565b810181811067ffffffffffffffff821117156200056f576200056e62000653565b5b80604052505050565b6000620005858262000502565b91507fffffffffffffffffffffffffffffffffffffffffffffffffffffffffffffffff821415620005bb57620005ba620005c6565b5b600182019050919050565b7f4e487b7100000000000000000000000000000000000000000000000000000000600052601160045260246000fd5b7f4e487b7100000000000000000000000000000000000000000000000000000000600052602260045260246000fd5b7f4e487b7100000000000000000000000000000000000000000000000000000000600052603260045260246000fd5b7f4e487b7100000000000000000000000000000000000000000000000000000000600052604160045260246000fd5b600080fd5b600080fd5b600080fd5b600080fd5b6000601f19601f8301169050919050565b7f6f776e6572732072657175697265640000000000000000000000000000000000600082015250565b620006db81620004ce565b8114620006e757600080fd5b50565b612f0880620006fa6000396000f3fe608060405234801561001057600080fd5b506004361061012c5760003560e01c806370a08231116100ad578063b387ef9211610071578063b387ef921461037b578063b88d4fde14610399578063c87b56dd146103b5578063d082e381146103e5578063e985e9c5146104035761012c565b806370a08231146102c35780637724a692146102f357806393fd18441461032357806395d89b4114610341578063a22cb4651461035f5761012c565b8063150b7a02116100f4578063150b7a02146101fb57806323b872dd1461022b5780632f54bf6e1461024757806342842e0e146102775780636352211e146102935761012c565b806301ffc9a714610131578063025e7c271461016157806306fdde0314610191578063081812fc146101af578063095ea7b3146101df575b600080fd5b61014b60048036038101906101469190611e87565b610433565b6040516101589190612314565b60405180910390f35b61017b60048036038101906101769190611f2a565b610515565b60405161018891906122ad565b60405180910390f35b610199610554565b6040516101a6919061234a565b60405180910390f35b6101c960048036038101906101c49190611f2a565b6105e6565b6040516101d691906122ad565b60405180910390f35b6101f960048036038101906101f49190611e47565b61066b565b005b61021560048036038101906102109190611d84565b610783565b604051610222919061232f565b60405180910390f35b61024560048036038101906102409190611d31565b610797565b005b610261600480360381019061025c9190611cc4565b6107f7565b60405161026e9190612314565b60405180910390f35b610291600480360381019061028c9190611d31565b610817565b005b6102ad60048036038101906102a89190611f2a565b610837565b6040516102ba91906122ad565b60405180910390f35b6102dd60048036038101906102d89190611cc4565b6108e9565b6040516102ea919061258c565b60405180910390f35b61030d60048036038101906103089190611ee1565b6109a1565b60405161031a919061258c565b60405180910390f35b61032b610ab5565b604051610338919061258c565b60405180910390f35b610349610abb565b604051610356919061234a565b60405180910390f35b61037960048036038101906103749190611e07565b610b4d565b005b610383610cce565b604051610390919061258c565b60405180910390f35b6103b360048036038101906103ae9190611d84565b610cd4565b005b6103cf60048036038101906103ca9190611f2a565b610d36565b6040516103dc919061234a565b60405180910390f35b6103ed610e88565b6040516103fa919061258c565b60405180910390f35b61041d60048036038101906104189190611cf1565b610e8e565b60405161042a9190612314565b60405180910390f35b60007f80ac58cd000000000000000000000000000000000000000000000000000000007bffffffffffffffffffffffffffffffffffffffffffffffffffffffff1916827bffffffffffffffffffffffffffffffffffffffffffffffffffffffff191614806104fe57507f5b5e139f000000000000000000000000000000000000000000000000000000007bffffffffffffffffffffffffffffffffffffffffffffffffffffffff1916827bffffffffffffffffffffffffffffffffffffffffffffffffffffffff1916145b8061050e575061050d82610f22565b5b9050919050565b600a818154811061052557600080fd5b906000526020600020016000915054906101000a900473ffffffffffffffffffffffffffffffffffffffff1681565b606060008054610563906127e2565b80601f016020809104026020016040519081016040528092919081815260200182805461058f906127e2565b80156105dc5780601f106105b1576101008083540402835291602001916105dc565b820191906000526020600020905b8154815290600101906020018083116105bf57829003601f168201915b5050505050905090565b60006105f182610f8c565b610630576040517f08c379a0000000000000000000000000000000000000000000000000000000008152600401610627906124cc565b60405180910390fd5b6004600083815260200190815260200160002060009054906101000a900473ffffffffffffffffffffffffffffffffffffffff169050919050565b600061067682610837565b90508073ffffffffffffffffffffffffffffffffffffffff168373ffffffffffffffffffffffffffffffffffffffff1614156106e7576040517f08c379a00000000000000000000000000000000000000000000000000000000081526004016106de9061252c565b60405180910390fd5b8073ffffffffffffffffffffffffffffffffffffffff16610706610ff8565b73ffffffffffffffffffffffffffffffffffffffff16148061073557506107348161072f610ff8565b610e8e565b5b610774576040517f08c379a000000000000000000000000000000000000000000000000000000000815260040161076b9061240c565b60405180910390fd5b61077e8383611000565b505050565b600063150b7a0260e01b9050949350505050565b6107a86107a2610ff8565b826110b9565b6107e7576040517f08c379a00000000000000000000000000000000000000000000000000000000081526004016107de9061254c565b60405180910390fd5b6107f2838383611197565b505050565b600b6020528060005260406000206000915054906101000a900460ff1681565b61083283838360405180602001604052806000815250610cd4565b505050565b6000806002600084815260200190815260200160002060009054906101000a900473ffffffffffffffffffffffffffffffffffffffff169050600073ffffffffffffffffffffffffffffffffffffffff168173ffffffffffffffffffffffffffffffffffffffff1614156108e0576040517f08c379a00000000000000000000000000000000000000000000000000000000081526004016108d79061244c565b60405180910390fd5b80915050919050565b60008073ffffffffffffffffffffffffffffffffffffffff168273ffffffffffffffffffffffffffffffffffffffff16141561095a576040517f08c379a00000000000000000000000000000000000000000000000000000000081526004016109519061242c565b60405180910390fd5b600360008373ffffffffffffffffffffffffffffffffffffffff1673ffffffffffffffffffffffffffffffffffffffff168152602001908152602001600020549050919050565b6000600a600854815481106109b9576109b861294c565b5b9060005260206000200160009054906101000a900473ffffffffffffffffffffffffffffffffffffffff1673ffffffffffffffffffffffffffffffffffffffff163373ffffffffffffffffffffffffffffffffffffffff1614610a51576040517f08c379a0000000000000000000000000000000000000000000000000000000008152600401610a489061256c565b60405180910390fd5b60006007549050610a6230826113f3565b610a6c8184611411565b6001600754610a7b9190612671565b6007819055506000600a805490506001600854610a989190612671565b610aa2919061288e565b9050806008819055508192505050919050565b60095481565b606060018054610aca906127e2565b80601f0160208091040260200160405190810160405280929190818152602001828054610af6906127e2565b8015610b435780601f10610b1857610100808354040283529160200191610b43565b820191906000526020600020905b815481529060010190602001808311610b2657829003601f168201915b5050505050905090565b610b55610ff8565b73ffffffffffffffffffffffffffffffffffffffff168273ffffffffffffffffffffffffffffffffffffffff161415610bc3576040517f08c379a0000000000000000000000000000000000000000000000000000000008152600401610bba906123cc565b60405180910390fd5b8060056000610bd0610ff8565b73ffffffffffffffffffffffffffffffffffffffff1673ffffffffffffffffffffffffffffffffffffffff16815260200190815260200160002060008473ffffffffffffffffffffffffffffffffffffffff1673ffffffffffffffffffffffffffffffffffffffff16815260200190815260200160002060006101000a81548160ff0219169083151502179055508173ffffffffffffffffffffffffffffffffffffffff16610c7d610ff8565b73ffffffffffffffffffffffffffffffffffffffff167f17307eab39ab6107e8899845ad3d59bd9653f200f220920489ca2b5937696c3183604051610cc29190612314565b60405180910390a35050565b60085481565b610ce5610cdf610ff8565b836110b9565b610d24576040517f08c379a0000000000000000000000000000000000000000000000000000000008152600401610d1b9061254c565b60405180910390fd5b610d3084848484611485565b50505050565b6060610d4182610f8c565b610d80576040517f08c379a0000000000000000000000000000000000000000000000000000000008152600401610d77906124ac565b60405180910390fd5b6000600660008481526020019081526020016000208054610da0906127e2565b80601f0160208091040260200160405190810160405280929190818152602001828054610dcc906127e2565b8015610e195780601f10610dee57610100808354040283529160200191610e19565b820191906000526020600020905b815481529060010190602001808311610dfc57829003601f168201915b505050505090506000610e2a6114e1565b9050600081511415610e40578192505050610e83565b600082511115610e75578082604051602001610e5d929190612289565b60405160208183030381529060405292505050610e83565b610e7e846114f8565b925050505b919050565b60075481565b6000600560008473ffffffffffffffffffffffffffffffffffffffff1673ffffffffffffffffffffffffffffffffffffffff16815260200190815260200160002060008373ffffffffffffffffffffffffffffffffffffffff1673ffffffffffffffffffffffffffffffffffffffff16815260200190815260200160002060009054906101000a900460ff16905092915050565b60007f01ffc9a7000000000000000000000000000000000000000000000000000000007bffffffffffffffffffffffffffffffffffffffffffffffffffffffff1916827bffffffffffffffffffffffffffffffffffffffffffffffffffffffff1916149050919050565b60008073ffffffffffffffffffffffffffffffffffffffff166002600084815260200190815260200160002060009054906101000a900473ffffffffffffffffffffffffffffffffffffffff1673ffffffffffffffffffffffffffffffffffffffff1614159050919050565b600033905090565b816004600083815260200190815260200160002060006101000a81548173ffffffffffffffffffffffffffffffffffffffff021916908373ffffffffffffffffffffffffffffffffffffffff160217905550808273ffffffffffffffffffffffffffffffffffffffff1661107383610837565b73ffffffffffffffffffffffffffffffffffffffff167f8c5be1e5ebec7d5bd14f71427d1e84f3dd0314c0f7b2291e5b200ac8c7c3b92560405160405180910390a45050565b60006110c482610f8c565b611103576040517f08c379a00000000000000000000000000000000000000000000000000000000081526004016110fa906123ec565b60405180910390fd5b600061110e83610837565b90508073ffffffffffffffffffffffffffffffffffffffff168473ffffffffffffffffffffffffffffffffffffffff16148061117d57508373ffffffffffffffffffffffffffffffffffffffff16611165846105e6565b73ffffffffffffffffffffffffffffffffffffffff16145b8061118e575061118d8185610e8e565b5b91505092915050565b8273ffffffffffffffffffffffffffffffffffffffff166111b782610837565b73ffffffffffffffffffffffffffffffffffffffff161461120d576040517f08c379a0000000000000000000000000000000000000000000000000000000008152600401611204906124ec565b60405180910390fd5b600073ffffffffffffffffffffffffffffffffffffffff168273ffffffffffffffffffffffffffffffffffffffff16141561127d576040517f08c379a0000000000000000000000000000000000000000000000000000000008152600401611274906123ac565b60405180910390fd5b61128883838361159f565b611293600082611000565b6001600360008573ffffffffffffffffffffffffffffffffffffffff1673ffffffffffffffffffffffffffffffffffffffff16815260200190815260200160002060008282546112e391906126f8565b925050819055506001600360008473ffffffffffffffffffffffffffffffffffffffff1673ffffffffffffffffffffffffffffffffffffffff168152602001908152602001600020600082825461133a9190612671565b92505081905550816002600083815260200190815260200160002060006101000a81548173ffffffffffffffffffffffffffffffffffffffff021916908373ffffffffffffffffffffffffffffffffffffffff160217905550808273ffffffffffffffffffffffffffffffffffffffff168473ffffffffffffffffffffffffffffffffffffffff167fddf252ad1be2c89b69c2b068fc378daa952ba7f163c4a11628f55a4df523b3ef60405160405180910390a4505050565b61140d8282604051806020016040528060008152506115a4565b5050565b61141a82610f8c565b611459576040517f08c379a00000000000000000000000000000000000000000000000000000000081526004016114509061246c565b60405180910390fd5b80600660008481526020019081526020016000209080519060200190611480929190611ad8565b505050565b611490848484611197565b61149c848484846115ff565b6114db576040517f08c379a00000000000000000000000000000000000000000000000000000000081526004016114d29061236c565b60405180910390fd5b50505050565b606060405180602001604052806000815250905090565b606061150382610f8c565b611542576040517f08c379a00000000000000000000000000000000000000000000000000000000081526004016115399061250c565b60405180910390fd5b600061154c6114e1565b9050600081511161156c5760405180602001604052806000815250611597565b8061157684611796565b604051602001611587929190612289565b6040516020818303038152906040525b915050919050565b505050565b6115ae83836118f7565b6115bb60008484846115ff565b6115fa576040517f08c379a00000000000000000000000000000000000000000000000000000000081526004016115f19061236c565b60405180910390fd5b505050565b60006116208473ffffffffffffffffffffffffffffffffffffffff16611ac5565b15611789578373ffffffffffffffffffffffffffffffffffffffff1663150b7a02611649610ff8565b8786866040518563ffffffff1660e01b815260040161166b94939291906122c8565b602060405180830381600087803b15801561168557600080fd5b505af19250505080156116b657506040513d601f19601f820116820180604052508101906116b39190611eb4565b60015b611739573d80600081146116e6576040519150601f19603f3d011682016040523d82523d6000602084013e6116eb565b606091505b50600081511415611731576040517f08c379a00000000000000000000000000000000000000000000000000000000081526004016117289061236c565b60405180910390fd5b805181602001fd5b63150b7a0260e01b7bffffffffffffffffffffffffffffffffffffffffffffffffffffffff1916817bffffffffffffffffffffffffffffffffffffffffffffffffffffffff19161491505061178e565b600190505b949350505050565b606060008214156117de576040518060400160405280600181526020017f300000000000000000000000000000000000000000000000000000000000000081525090506118f2565b600082905060005b600082146118105780806117f990612845565b915050600a8261180991906126c7565b91506117e6565b60008167ffffffffffffffff81111561182c5761182b61297b565b5b6040519080825280601f01601f19166020018201604052801561185e5781602001600182028036833780820191505090505b5090505b600085146118eb5760018261187791906126f8565b9150600a85611886919061288e565b60306118929190612671565b60f81b8183815181106118a8576118a761294c565b5b60200101907effffffffffffffffffffffffffffffffffffffffffffffffffffffffffffff1916908160001a905350600a856118e491906126c7565b9450611862565b8093505050505b919050565b600073ffffffffffffffffffffffffffffffffffffffff168273ffffffffffffffffffffffffffffffffffffffff161415611967576040517f08c379a000000000000000000000000000000000000000000000000000000000815260040161195e9061248c565b60405180910390fd5b61197081610f8c565b156119b0576040517f08c379a00000000000000000000000000000000000000000000000000000000081526004016119a79061238c565b60405180910390fd5b6119bc6000838361159f565b6001600360008473ffffffffffffffffffffffffffffffffffffffff1673ffffffffffffffffffffffffffffffffffffffff1681526020019081526020016000206000828254611a0c9190612671565b92505081905550816002600083815260200190815260200160002060006101000a81548173ffffffffffffffffffffffffffffffffffffffff021916908373ffffffffffffffffffffffffffffffffffffffff160217905550808273ffffffffffffffffffffffffffffffffffffffff16600073ffffffffffffffffffffffffffffffffffffffff167fddf252ad1be2c89b69c2b068fc378daa952ba7f163c4a11628f55a4df523b3ef60405160405180910390a45050565b600080823b905060008111915050919050565b828054611ae4906127e2565b90600052602060002090601f016020900481019282611b065760008555611b4d565b82601f10611b1f57805160ff1916838001178555611b4d565b82800160010185558215611b4d579182015b82811115611b4c578251825591602001919060010190611b31565b5b509050611b5a9190611b5e565b5090565b5b80821115611b77576000816000905550600101611b5f565b5090565b6000611b8e611b89846125cc565b6125a7565b905082815260208101848484011115611baa57611ba96129af565b5b611bb58482856127a0565b509392505050565b6000611bd0611bcb846125fd565b6125a7565b905082815260208101848484011115611bec57611beb6129af565b5b611bf78482856127a0565b509392505050565b600081359050611c0e81612e76565b92915050565b600081359050611c2381612e8d565b92915050565b600081359050611c3881612ea4565b92915050565b600081519050611c4d81612ea4565b92915050565b600082601f830112611c6857611c676129aa565b5b8135611c78848260208601611b7b565b91505092915050565b600082601f830112611c9657611c956129aa565b5b8135611ca6848260208601611bbd565b91505092915050565b600081359050611cbe81612ebb565b92915050565b600060208284031215611cda57611cd96129b9565b5b6000611ce884828501611bff565b91505092915050565b60008060408385031215611d0857611d076129b9565b5b6000611d1685828601611bff565b9250506020611d2785828601611bff565b9150509250929050565b600080600060608486031215611d4a57611d496129b9565b5b6000611d5886828701611bff565b9350506020611d6986828701611bff565b9250506040611d7a86828701611caf565b9150509250925092565b60008060008060808587031215611d9e57611d9d6129b9565b5b6000611dac87828801611bff565b9450506020611dbd87828801611bff565b9350506040611dce87828801611caf565b925050606085013567ffffffffffffffff811115611def57611dee6129b4565b5b611dfb87828801611c53565b91505092959194509250565b60008060408385031215611e1e57611e1d6129b9565b5b6000611e2c85828601611bff565b9250506020611e3d85828601611c14565b9150509250929050565b60008060408385031215611e5e57611e5d6129b9565b5b6000611e6c85828601611bff565b9250506020611e7d85828601611caf565b9150509250929050565b600060208284031215611e9d57611e9c6129b9565b5b6000611eab84828501611c29565b91505092915050565b600060208284031215611eca57611ec96129b9565b5b6000611ed884828501611c3e565b91505092915050565b600060208284031215611ef757611ef66129b9565b5b600082013567ffffffffffffffff811115611f1557611f146129b4565b5b611f2184828501611c81565b91505092915050565b600060208284031215611f4057611f3f6129b9565b5b6000611f4e84828501611caf565b91505092915050565b611f608161272c565b82525050565b611f6f8161273e565b82525050565b611f7e8161274a565b82525050565b6000611f8f8261262e565b611f998185612644565b9350611fa98185602086016127af565b611fb2816129be565b840191505092915050565b6000611fc882612639565b611fd28185612655565b9350611fe28185602086016127af565b611feb816129be565b840191505092915050565b600061200182612639565b61200b8185612666565b935061201b8185602086016127af565b80840191505092915050565b6000612034603283612655565b915061203f826129cf565b604082019050919050565b6000612057601c83612655565b915061206282612a1e565b602082019050919050565b600061207a602483612655565b915061208582612a47565b604082019050919050565b600061209d601983612655565b91506120a882612a96565b602082019050919050565b60006120c0602c83612655565b91506120cb82612abf565b604082019050919050565b60006120e3603883612655565b91506120ee82612b0e565b604082019050919050565b6000612106602a83612655565b915061211182612b5d565b604082019050919050565b6000612129602983612655565b915061213482612bac565b604082019050919050565b600061214c602e83612655565b915061215782612bfb565b604082019050919050565b600061216f602083612655565b915061217a82612c4a565b602082019050919050565b6000612192603183612655565b915061219d82612c73565b604082019050919050565b60006121b5602c83612655565b91506121c082612cc2565b604082019050919050565b60006121d8602983612655565b91506121e382612d11565b604082019050919050565b60006121fb602f83612655565b915061220682612d60565b604082019050919050565b600061221e602183612655565b915061222982612daf565b604082019050919050565b6000612241603183612655565b915061224c82612dfe565b604082019050919050565b6000612264600d83612655565b915061226f82612e4d565b602082019050919050565b61228381612796565b82525050565b60006122958285611ff6565b91506122a18284611ff6565b91508190509392505050565b60006020820190506122c26000830184611f57565b92915050565b60006080820190506122dd6000830187611f57565b6122ea6020830186611f57565b6122f7604083018561227a565b81810360608301526123098184611f84565b905095945050505050565b60006020820190506123296000830184611f66565b92915050565b60006020820190506123446000830184611f75565b92915050565b600060208201905081810360008301526123648184611fbd565b905092915050565b6000602082019050818103600083015261238581612027565b9050919050565b600060208201905081810360008301526123a58161204a565b9050919050565b600060208201905081810360008301526123c58161206d565b9050919050565b600060208201905081810360008301526123e581612090565b9050919050565b60006020820190508181036000830152612405816120b3565b9050919050565b60006020820190508181036000830152612425816120d6565b9050919050565b60006020820190508181036000830152612445816120f9565b9050919050565b600060208201905081810360008301526124658161211c565b9050919050565b600060208201905081810360008301526124858161213f565b9050919050565b600060208201905081810360008301526124a581612162565b9050919050565b600060208201905081810360008301526124c581612185565b9050919050565b600060208201905081810360008301526124e5816121a8565b9050919050565b60006020820190508181036000830152612505816121cb565b9050919050565b60006020820190508181036000830152612525816121ee565b9050919050565b6000602082019050818103600083015261254581612211565b9050919050565b6000602082019050818103600083015261256581612234565b9050919050565b6000602082019050818103600083015261258581612257565b9050919050565b60006020820190506125a1600083018461227a565b92915050565b60006125b16125c2565b90506125bd8282612814565b919050565b6000604051905090565b600067ffffffffffffffff8211156125e7576125e661297b565b5b6125f0826129be565b9050602081019050919050565b600067ffffffffffffffff8211156126185761261761297b565b5b612621826129be565b9050602081019050919050565b600081519050919050565b600081519050919050565b600082825260208201905092915050565b600082825260208201905092915050565b600081905092915050565b600061267c82612796565b915061268783612796565b9250827fffffffffffffffffffffffffffffffffffffffffffffffffffffffffffffffff038211156126bc576126bb6128bf565b5b828201905092915050565b60006126d282612796565b91506126dd83612796565b9250826126ed576126ec6128ee565b5b828204905092915050565b600061270382612796565b915061270e83612796565b925082821015612721576127206128bf565b5b828203905092915050565b600061273782612776565b9050919050565b60008115159050919050565b60007fffffffff0000000000000000000000000000000000000000000000000000000082169050919050565b600073ffffffffffffffffffffffffffffffffffffffff82169050919050565b6000819050919050565b82818337600083830152505050565b60005b838110156127cd5780820151818401526020810190506127b2565b838111156127dc576000848401525b50505050565b600060028204905060018216806127fa57607f821691505b6020821081141561280e5761280d61291d565b5b50919050565b61281d826129be565b810181811067ffffffffffffffff8211171561283c5761283b61297b565b5b80604052505050565b600061285082612796565b91507fffffffffffffffffffffffffffffffffffffffffffffffffffffffffffffffff821415612883576128826128bf565b5b600182019050919050565b600061289982612796565b91506128a483612796565b9250826128b4576128b36128ee565b5b828206905092915050565b7f4e487b7100000000000000000000000000000000000000000000000000000000600052601160045260246000fd5b7f4e487b7100000000000000000000000000000000000000000000000000000000600052601260045260246000fd5b7f4e487b7100000000000000000000000000000000000000000000000000000000600052602260045260246000fd5b7f4e487b7100000000000000000000000000000000000000000000000000000000600052603260045260246000fd5b7f4e487b7100000000000000000000000000000000000000000000000000000000600052604160045260246000fd5b600080fd5b600080fd5b600080fd5b600080fd5b6000601f19601f8301169050919050565b7f4552433732313a207472616e7366657220746f206e6f6e20455243373231526560008201527f63656976657220696d706c656d656e7465720000000000000000000000000000602082015250565b7f4552433732313a20746f6b656e20616c7265616479206d696e74656400000000600082015250565b7f4552433732313a207472616e7366657220746f20746865207a65726f2061646460008201527f7265737300000000000000000000000000000000000000000000000000000000602082015250565b7f4552433732313a20617070726f766520746f2063616c6c657200000000000000600082015250565b7f4552433732313a206f70657261746f7220717565727920666f72206e6f6e657860008201527f697374656e7420746f6b656e0000000000000000000000000000000000000000602082015250565b7f4552433732313a20617070726f76652063616c6c6572206973206e6f74206f7760008201527f6e6572206e6f7220617070726f76656420666f7220616c6c0000000000000000602082015250565b7f4552433732313a2062616c616e636520717565727920666f7220746865207a6560008201527f726f206164647265737300000000000000000000000000000000000000000000602082015250565b7f4552433732313a206f776e657220717565727920666f72206e6f6e657869737460008201527f656e7420746f6b656e0000000000000000000000000000000000000000000000602082015250565b7f45524337323155524953746f726167653a2055524920736574206f66206e6f6e60008201527f6578697374656e7420746f6b656e000000000000000000000000000000000000602082015250565b7f4552433732313a206d696e7420746f20746865207a65726f2061646472657373600082015250565b7f45524337323155524953746f726167653a2055524920717565727920666f722060008201527f6e6f6e6578697374656e7420746f6b656e000000000000000000000000000000602082015250565b7f4552433732313a20617070726f76656420717565727920666f72206e6f6e657860008201527f697374656e7420746f6b656e0000000000000000000000000000000000000000602082015250565b7f4552433732313a207472616e73666572206f6620746f6b656e2074686174206960008201527f73206e6f74206f776e0000000000000000000000000000000000000000000000602082015250565b7f4552433732314d657461646174613a2055524920717565727920666f72206e6f60008201527f6e6578697374656e7420746f6b656e0000000000000000000000000000000000602082015250565b7f4552433732313a20617070726f76616c20746f2063757272656e74206f776e6560008201527f7200000000000000000000000000000000000000000000000000000000000000602082015250565b7f4552433732313a207472616e736665722063616c6c6572206973206e6f74206f60008201527f776e6572206e6f7220617070726f766564000000000000000000000000000000602082015250565b7f6e6f7420796f7572207475726e00000000000000000000000000000000000000600082015250565b612e7f8161272c565b8114612e8a57600080fd5b50565b612e968161273e565b8114612ea157600080fd5b50565b612ead8161274a565b8114612eb857600080fd5b50565b612ec481612796565b8114612ecf57600080fd5b5056fea26469706673582212205b27a8a3649a8f68ba60690dcb302c779d9c3347620bcb9d903a7fb9392cfd3b64736f6c63430008060033",
  "immutableReferences": {},
  "source": "// SPDX-License-Identifier: MIT\r\npragma solidity ^0.8.0;\r\n\r\n// ERC721URIStorage allows you to set tokenURI after minting\r\n// ERC721Holder ensures that a smart contract can hold NFTs\r\n// ERC721Burnable allows you to burn the NFT if you so choose\r\nimport \"@openzeppelin/contracts/token/ERC721/extensions/ERC721URIStorage.sol\";\r\nimport \"@openzeppelin/contracts/token/ERC721/utils/ERC721Holder.sol\";\r\n// import \"@openzeppelin/contracts/token/ERC721/extensions/ERC721Burnable.sol\";\r\n\r\n\r\n// NFT Smart Contract Constructor\r\ncontract CollaborativeMinter is ERC721URIStorage, ERC721Holder{\r\n    uint256 public tokenCounter;\r\n    uint256 public currentOwner; // define whose turn it is at the current time with owners index\\\r\n    uint256 public numberOfOwners;\r\n    address[] public owners; // keep track of all owners of the NFT\r\n    mapping(address => bool) public isOwner; // used to check if someone is an owner\r\n\r\n    constructor (address[] memory _owners) public ERC721 (\"Collaborative Mint\", \"COMINT\"){\r\n      require(_owners.length > 0, \"owners required\");\r\n      tokenCounter = 0;\r\n      numberOfOwners = _owners.length;\r\n      currentOwner = 0; // define the first owner to have an active turn\r\n      for(uint i = 0; i < _owners.length; i++){ // define the owners\r\n        owners.push(_owners[i]);\r\n        isOwner[_owners[i]] = true;\r\n      }\r\n    }\r\n\r\n    modifier onlyCurrentOwner { // restrict to only the active owner\r\n      require(msg.sender == owners[currentOwner], \"not your turn\");\r\n      _;\r\n    }\r\n\r\n    modifier onlyOwner { // restrict to only owners\r\n      require(isOwner[msg.sender],'not an owner');\r\n      _;\r\n    }\r\n\r\n    // NFT minting function where only the current owner can mint\r\n    function collaborativeMint(string memory _tokenURI) public onlyCurrentOwner returns (uint256) {\r\n        uint256 newItemId = tokenCounter;\r\n        _safeMint(address(this), newItemId); // the owner of the NFT is this smart contract\r\n        _setTokenURI(newItemId, _tokenURI);\r\n        tokenCounter = tokenCounter + 1;\r\n        uint256 nextOwnerId = (currentOwner + 1) % owners.length; // set up the next turn by getting the following ID\r\n        currentOwner = nextOwnerId; // update whose turn it is\r\n        return newItemId;\r\n    }\r\n\r\n}\r\n",
  "sourcePath": "C:\\Users\\Gilberto Guadiana\\Desktop\\BlockchainSummerResearch\\SummerResearchGithub\\CollaborativeMinter\\src\\contracts\\CollaborativeMinter.sol",
  "compiler": {
    "name": "solc",
    "version": "0.8.6+commit.11564f7e.Emscripten.clang"
  },
  "schemaVersion": "3.4.1",
  "updatedAt": "2021-08-09T21:52:11.542Z",
  "devdoc": {
    "kind": "dev",
    "methods": {
      "approve(address,uint256)": {
        "details": "See {IERC721-approve}."
      },
      "balanceOf(address)": {
        "details": "See {IERC721-balanceOf}."
      },
      "getApproved(uint256)": {
        "details": "See {IERC721-getApproved}."
      },
      "isApprovedForAll(address,address)": {
        "details": "See {IERC721-isApprovedForAll}."
      },
      "name()": {
        "details": "See {IERC721Metadata-name}."
      },
      "onERC721Received(address,address,uint256,bytes)": {
        "details": "See {IERC721Receiver-onERC721Received}. Always returns `IERC721Receiver.onERC721Received.selector`."
      },
      "ownerOf(uint256)": {
        "details": "See {IERC721-ownerOf}."
      },
      "safeTransferFrom(address,address,uint256)": {
        "details": "See {IERC721-safeTransferFrom}."
      },
      "safeTransferFrom(address,address,uint256,bytes)": {
        "details": "See {IERC721-safeTransferFrom}."
      },
      "setApprovalForAll(address,bool)": {
        "details": "See {IERC721-setApprovalForAll}."
      },
      "supportsInterface(bytes4)": {
        "details": "See {IERC165-supportsInterface}."
      },
      "symbol()": {
        "details": "See {IERC721Metadata-symbol}."
      },
      "tokenURI(uint256)": {
        "details": "See {IERC721Metadata-tokenURI}."
      },
      "transferFrom(address,address,uint256)": {
        "details": "See {IERC721-transferFrom}."
      }
    },
    "version": 1
  },
  "userdoc": {
    "kind": "user",
    "methods": {},
    "version": 1
  }
}