{
  "contractName": "CollaborativeMinter",
  "abi": [
    {
      "inputs": [
        {
          "internalType": "address[]",
          "name": "_owners",
          "type": "address[]"
        }
      ],
      "stateMutability": "nonpayable",
      "type": "constructor"
    },
    {
      "anonymous": false,
      "inputs": [
        {
          "indexed": true,
          "internalType": "address",
          "name": "owner",
          "type": "address"
        },
        {
          "indexed": true,
          "internalType": "address",
          "name": "approved",
          "type": "address"
        },
        {
          "indexed": true,
          "internalType": "uint256",
          "name": "tokenId",
          "type": "uint256"
        }
      ],
      "name": "Approval",
      "type": "event"
    },
    {
      "anonymous": false,
      "inputs": [
        {
          "indexed": true,
          "internalType": "address",
          "name": "owner",
          "type": "address"
        },
        {
          "indexed": true,
          "internalType": "address",
          "name": "operator",
          "type": "address"
        },
        {
          "indexed": false,
          "internalType": "bool",
          "name": "approved",
          "type": "bool"
        }
      ],
      "name": "ApprovalForAll",
      "type": "event"
    },
    {
      "anonymous": false,
      "inputs": [
        {
          "indexed": true,
          "internalType": "address",
          "name": "from",
          "type": "address"
        },
        {
          "indexed": true,
          "internalType": "address",
          "name": "to",
          "type": "address"
        },
        {
          "indexed": true,
          "internalType": "uint256",
          "name": "tokenId",
          "type": "uint256"
        }
      ],
      "name": "Transfer",
      "type": "event"
    },
    {
      "inputs": [
        {
          "internalType": "address",
          "name": "to",
          "type": "address"
        },
        {
          "internalType": "uint256",
          "name": "tokenId",
          "type": "uint256"
        }
      ],
      "name": "approve",
      "outputs": [],
      "stateMutability": "nonpayable",
      "type": "function"
    },
    {
      "inputs": [
        {
          "internalType": "address",
          "name": "owner",
          "type": "address"
        }
      ],
      "name": "balanceOf",
      "outputs": [
        {
          "internalType": "uint256",
          "name": "",
          "type": "uint256"
        }
      ],
      "stateMutability": "view",
      "type": "function"
    },
    {
      "inputs": [],
      "name": "currentOwner",
      "outputs": [
        {
          "internalType": "uint256",
          "name": "",
          "type": "uint256"
        }
      ],
      "stateMutability": "view",
      "type": "function"
    },
    {
      "inputs": [
        {
          "internalType": "uint256",
          "name": "tokenId",
          "type": "uint256"
        }
      ],
      "name": "getApproved",
      "outputs": [
        {
          "internalType": "address",
          "name": "",
          "type": "address"
        }
      ],
      "stateMutability": "view",
      "type": "function"
    },
    {
      "inputs": [
        {
          "internalType": "address",
          "name": "owner",
          "type": "address"
        },
        {
          "internalType": "address",
          "name": "operator",
          "type": "address"
        }
      ],
      "name": "isApprovedForAll",
      "outputs": [
        {
          "internalType": "bool",
          "name": "",
          "type": "bool"
        }
      ],
      "stateMutability": "view",
      "type": "function"
    },
    {
      "inputs": [],
      "name": "isMerged",
      "outputs": [
        {
          "internalType": "bool",
          "name": "",
          "type": "bool"
        }
      ],
      "stateMutability": "view",
      "type": "function"
    },
    {
      "inputs": [
        {
          "internalType": "address",
          "name": "",
          "type": "address"
        }
      ],
      "name": "isOwner",
      "outputs": [
        {
          "internalType": "bool",
          "name": "",
          "type": "bool"
        }
      ],
      "stateMutability": "view",
      "type": "function"
    },
    {
      "inputs": [],
      "name": "name",
      "outputs": [
        {
          "internalType": "string",
          "name": "",
          "type": "string"
        }
      ],
      "stateMutability": "view",
      "type": "function"
    },
    {
      "inputs": [],
      "name": "numberOfOwners",
      "outputs": [
        {
          "internalType": "uint256",
          "name": "",
          "type": "uint256"
        }
      ],
      "stateMutability": "view",
      "type": "function"
    },
    {
      "inputs": [
        {
          "internalType": "address",
          "name": "",
          "type": "address"
        },
        {
          "internalType": "address",
          "name": "",
          "type": "address"
        },
        {
          "internalType": "uint256",
          "name": "",
          "type": "uint256"
        },
        {
          "internalType": "bytes",
          "name": "",
          "type": "bytes"
        }
      ],
      "name": "onERC721Received",
      "outputs": [
        {
          "internalType": "bytes4",
          "name": "",
          "type": "bytes4"
        }
      ],
      "stateMutability": "nonpayable",
      "type": "function"
    },
    {
      "inputs": [
        {
          "internalType": "uint256",
          "name": "tokenId",
          "type": "uint256"
        }
      ],
      "name": "ownerOf",
      "outputs": [
        {
          "internalType": "address",
          "name": "",
          "type": "address"
        }
      ],
      "stateMutability": "view",
      "type": "function"
    },
    {
      "inputs": [
        {
          "internalType": "uint256",
          "name": "",
          "type": "uint256"
        }
      ],
      "name": "owners",
      "outputs": [
        {
          "internalType": "address",
          "name": "",
          "type": "address"
        }
      ],
      "stateMutability": "view",
      "type": "function"
    },
    {
      "inputs": [
        {
          "internalType": "uint256",
          "name": "",
          "type": "uint256"
        }
      ],
      "name": "salesTransactions",
      "outputs": [
        {
          "internalType": "address",
          "name": "from",
          "type": "address"
        },
        {
          "internalType": "address",
          "name": "to",
          "type": "address"
        },
        {
          "internalType": "uint256",
          "name": "value",
          "type": "uint256"
        },
        {
          "internalType": "bool",
          "name": "secondarySale",
          "type": "bool"
        },
        {
          "internalType": "bool",
          "name": "revoked",
          "type": "bool"
        },
        {
          "internalType": "bool",
          "name": "executed",
          "type": "bool"
        },
        {
          "internalType": "uint256",
          "name": "numConfirmations",
          "type": "uint256"
        }
      ],
      "stateMutability": "view",
      "type": "function"
    },
    {
      "inputs": [
        {
          "internalType": "address",
          "name": "operator",
          "type": "address"
        },
        {
          "internalType": "bool",
          "name": "approved",
          "type": "bool"
        }
      ],
      "name": "setApprovalForAll",
      "outputs": [],
      "stateMutability": "nonpayable",
      "type": "function"
    },
    {
      "inputs": [
        {
          "internalType": "bytes4",
          "name": "interfaceId",
          "type": "bytes4"
        }
      ],
      "name": "supportsInterface",
      "outputs": [
        {
          "internalType": "bool",
          "name": "",
          "type": "bool"
        }
      ],
      "stateMutability": "view",
      "type": "function"
    },
    {
      "inputs": [],
      "name": "symbol",
      "outputs": [
        {
          "internalType": "string",
          "name": "",
          "type": "string"
        }
      ],
      "stateMutability": "view",
      "type": "function"
    },
    {
      "inputs": [],
      "name": "tokenCounter",
      "outputs": [
        {
          "internalType": "uint256",
          "name": "",
          "type": "uint256"
        }
      ],
      "stateMutability": "view",
      "type": "function"
    },
    {
      "inputs": [
        {
          "internalType": "uint256",
          "name": "tokenId",
          "type": "uint256"
        }
      ],
      "name": "tokenURI",
      "outputs": [
        {
          "internalType": "string",
          "name": "",
          "type": "string"
        }
      ],
      "stateMutability": "view",
      "type": "function"
    },
    {
      "stateMutability": "payable",
      "type": "receive"
    },
    {
      "inputs": [
        {
          "internalType": "string",
          "name": "_tokenURI",
          "type": "string"
        }
      ],
      "name": "collaborativeMint",
      "outputs": [
        {
          "internalType": "uint256",
          "name": "",
          "type": "uint256"
        }
      ],
      "stateMutability": "nonpayable",
      "type": "function"
    },
    {
      "inputs": [
        {
          "internalType": "string",
          "name": "_tokenURI",
          "type": "string"
        }
      ],
      "name": "mergeCollaborativeMint",
      "outputs": [
        {
          "internalType": "bool",
          "name": "",
          "type": "bool"
        }
      ],
      "stateMutability": "nonpayable",
      "type": "function"
    },
    {
      "inputs": [
        {
          "internalType": "address",
          "name": "_to",
          "type": "address"
        },
        {
          "internalType": "uint256[]",
          "name": "_tokenIds",
          "type": "uint256[]"
        }
      ],
      "name": "submitSalesTransaction",
      "outputs": [
        {
          "internalType": "uint256",
          "name": "",
          "type": "uint256"
        }
      ],
      "stateMutability": "payable",
      "type": "function"
    },
    {
      "inputs": [
        {
          "internalType": "address",
          "name": "_to",
          "type": "address"
        },
        {
          "internalType": "uint256[]",
          "name": "_tokenIds",
          "type": "uint256[]"
        },
        {
          "internalType": "uint256",
          "name": "_value",
          "type": "uint256"
        }
      ],
      "name": "submitSecondarySalesTransaction",
      "outputs": [
        {
          "internalType": "uint256",
          "name": "",
          "type": "uint256"
        }
      ],
      "stateMutability": "nonpayable",
      "type": "function"
    },
    {
      "inputs": [
        {
          "internalType": "uint256",
          "name": "_txIndex",
          "type": "uint256"
        }
      ],
      "name": "approveSalesTransaction",
      "outputs": [
        {
          "internalType": "bool",
          "name": "",
          "type": "bool"
        }
      ],
      "stateMutability": "nonpayable",
      "type": "function"
    },
    {
      "inputs": [
        {
          "internalType": "uint256",
          "name": "_txIndex",
          "type": "uint256"
        }
      ],
      "name": "denySalesTransaction",
      "outputs": [
        {
          "internalType": "bool",
          "name": "",
          "type": "bool"
        }
      ],
      "stateMutability": "nonpayable",
      "type": "function"
    },
    {
      "inputs": [
        {
          "internalType": "uint256",
          "name": "_txIndex",
          "type": "uint256"
        }
      ],
      "name": "revokeSalesTransaction",
      "outputs": [
        {
          "internalType": "bool",
          "name": "",
          "type": "bool"
        }
      ],
      "stateMutability": "nonpayable",
      "type": "function"
    },
    {
      "inputs": [
        {
          "internalType": "address",
          "name": "from",
          "type": "address"
        },
        {
          "internalType": "address",
          "name": "to",
          "type": "address"
        },
        {
          "internalType": "uint256",
          "name": "tokenId",
          "type": "uint256"
        }
      ],
      "name": "safeTransferFrom",
      "outputs": [],
      "stateMutability": "nonpayable",
      "type": "function"
    },
    {
      "inputs": [
        {
          "internalType": "address",
          "name": "from",
          "type": "address"
        },
        {
          "internalType": "address",
          "name": "to",
          "type": "address"
        },
        {
          "internalType": "uint256",
          "name": "tokenId",
          "type": "uint256"
        },
        {
          "internalType": "bytes",
          "name": "_data",
          "type": "bytes"
        }
      ],
      "name": "safeTransferFrom",
      "outputs": [],
      "stateMutability": "nonpayable",
      "type": "function"
    },
    {
      "inputs": [
        {
          "internalType": "address",
          "name": "from",
          "type": "address"
        },
        {
          "internalType": "address",
          "name": "to",
          "type": "address"
        },
        {
          "internalType": "uint256",
          "name": "tokenId",
          "type": "uint256"
        }
      ],
      "name": "transferFrom",
      "outputs": [],
      "stateMutability": "nonpayable",
      "type": "function"
    },
    {
      "inputs": [
        {
          "internalType": "uint256",
          "name": "_txIndex",
          "type": "uint256"
        }
      ],
      "name": "getSalesTransaction",
      "outputs": [
        {
          "components": [
            {
              "internalType": "address",
              "name": "from",
              "type": "address"
            },
            {
              "internalType": "address",
              "name": "to",
              "type": "address"
            },
            {
              "internalType": "uint256[]",
              "name": "tokenIds",
              "type": "uint256[]"
            },
            {
              "internalType": "uint256",
              "name": "value",
              "type": "uint256"
            },
            {
              "internalType": "bool",
              "name": "secondarySale",
              "type": "bool"
            },
            {
              "internalType": "bool",
              "name": "revoked",
              "type": "bool"
            },
            {
              "internalType": "bool",
              "name": "executed",
              "type": "bool"
            },
            {
              "internalType": "uint256",
              "name": "numConfirmations",
              "type": "uint256"
            }
          ],
          "internalType": "struct CollaborativeMinter.SalesTransaction",
          "name": "",
          "type": "tuple"
        }
      ],
      "stateMutability": "view",
      "type": "function"
    }
  ],
  "bytecode": "0x60806040523480156200001157600080fd5b5060405162005f6938038062005f698339818101604052810190620000379190620003e6565b6040518060400160405280601281526020017f436f6c6c61626f726174697665204d696e7400000000000000000000000000008152506040518060400160405280600681526020017f434f4d494e5400000000000000000000000000000000000000000000000000008152508160009080519060200190620000bb92919062000271565b508060019080519060200190620000d492919062000271565b50505060008151116200011e576040517f08c379a000000000000000000000000000000000000000000000000000000000815260040162000115906200045e565b60405180910390fd5b6000600781905550805160098190555060006008819055506000600a60006101000a81548160ff02191690831515021790555060005b81518110156200026957600b8282815181106200017657620001756200063f565b5b60200260200101519080600181540180825580915050600190039060005260206000200160009091909190916101000a81548173ffffffffffffffffffffffffffffffffffffffff021916908373ffffffffffffffffffffffffffffffffffffffff1602179055506001600c6000848481518110620001fa57620001f96200063f565b5b602002602001015173ffffffffffffffffffffffffffffffffffffffff1673ffffffffffffffffffffffffffffffffffffffff16815260200190815260200160002060006101000a81548160ff0219169083151502179055508080620002609062000593565b91505062000154565b505062000705565b8280546200027f9062000527565b90600052602060002090601f016020900481019282620002a35760008555620002ef565b82601f10620002be57805160ff1916838001178555620002ef565b82800160010185558215620002ef579182015b82811115620002ee578251825591602001919060010190620002d1565b5b509050620002fe919062000302565b5090565b5b808211156200031d57600081600090555060010162000303565b5090565b6000620003386200033284620004a9565b62000480565b905080838252602082019050828560208602820111156200035e576200035d620006a2565b5b60005b858110156200039257816200037788826200039c565b84526020840193506020830192505060018101905062000361565b5050509392505050565b600081519050620003ad81620006eb565b92915050565b600082601f830112620003cb57620003ca6200069d565b5b8151620003dd84826020860162000321565b91505092915050565b600060208284031215620003ff57620003fe620006ac565b5b600082015167ffffffffffffffff81111562000420576200041f620006a7565b5b6200042e84828501620003b3565b91505092915050565b600062000446600f83620004d8565b91506200045382620006c2565b602082019050919050565b60006020820190508181036000830152620004798162000437565b9050919050565b60006200048c6200049f565b90506200049a82826200055d565b919050565b6000604051905090565b600067ffffffffffffffff821115620004c757620004c66200066e565b5b602082029050602081019050919050565b600082825260208201905092915050565b6000620004f682620004fd565b9050919050565b600073ffffffffffffffffffffffffffffffffffffffff82169050919050565b6000819050919050565b600060028204905060018216806200054057607f821691505b6020821081141562000557576200055662000610565b5b50919050565b6200056882620006b1565b810181811067ffffffffffffffff821117156200058a57620005896200066e565b5b80604052505050565b6000620005a0826200051d565b91507fffffffffffffffffffffffffffffffffffffffffffffffffffffffffffffffff821415620005d657620005d5620005e1565b5b600182019050919050565b7f4e487b7100000000000000000000000000000000000000000000000000000000600052601160045260246000fd5b7f4e487b7100000000000000000000000000000000000000000000000000000000600052602260045260246000fd5b7f4e487b7100000000000000000000000000000000000000000000000000000000600052603260045260246000fd5b7f4e487b7100000000000000000000000000000000000000000000000000000000600052604160045260246000fd5b600080fd5b600080fd5b600080fd5b600080fd5b6000601f19601f8301169050919050565b7f6f776e6572732072657175697265640000000000000000000000000000000000600082015250565b620006f681620004e9565b81146200070257600080fd5b50565b61585480620007156000396000f3fe6080604052600436106101c65760003560e01c80636352211e116100f7578063a22cb46511610095578063c87b56dd11610064578063c87b56dd1461071b578063d082e38114610758578063d80fef1414610783578063e985e9c5146107ae576101d4565b8063a22cb46514610661578063b387ef921461068a578063b88d4fde146106b5578063bc66416c146106de576101d4565b80637724a692116100d15780637724a6921461059e57806379986376146105db57806393fd18441461060b57806395d89b4114610636576101d4565b80636352211e146104e75780636f7153d81461052457806370a0823114610561576101d4565b806323b872dd116101645780632f54bf6e1161013e5780632f54bf6e1461040157806342842e0e1461043e5780634ed09fc5146104675780635ddc9110146104aa576101d4565b806323b872dd1461035e57806326b4d3cd146103875780632d84d08a146103c4576101d4565b8063081812fc116101a0578063081812fc1461027e578063095ea7b3146102bb578063150b7a02146102e45780631cf6079b14610321576101d4565b806301ffc9a7146101d9578063025e7c271461021657806306fdde0314610253576101d4565b366101d45734600d81905550005b600080fd5b3480156101e557600080fd5b5061020060048036038101906101fb9190613f05565b6107eb565b60405161020d9190614753565b60405180910390f35b34801561022257600080fd5b5061023d60048036038101906102389190613fa8565b6108cd565b60405161024a919061467d565b60405180910390f35b34801561025f57600080fd5b5061026861090c565b6040516102759190614789565b60405180910390f35b34801561028a57600080fd5b506102a560048036038101906102a09190613fa8565b61099e565b6040516102b2919061467d565b60405180910390f35b3480156102c757600080fd5b506102e260048036038101906102dd9190613ec5565b610a23565b005b3480156102f057600080fd5b5061030b60048036038101906103069190613d37565b610b3b565b604051610318919061476e565b60405180910390f35b34801561032d57600080fd5b5061034860048036038101906103439190613fa8565b610b4f565b6040516103559190614753565b60405180910390f35b34801561036a57600080fd5b5061038560048036038101906103809190613ce4565b610e5c565b005b34801561039357600080fd5b506103ae60048036038101906103a99190613fa8565b610ef8565b6040516103bb9190614753565b60405180910390f35b3480156103d057600080fd5b506103eb60048036038101906103e69190613f5f565b611246565b6040516103f89190614753565b60405180910390f35b34801561040d57600080fd5b5061042860048036038101906104239190613c77565b61142b565b6040516104359190614753565b60405180910390f35b34801561044a57600080fd5b5061046560048036038101906104609190613ce4565b61144b565b005b34801561047357600080fd5b5061048e60048036038101906104899190613fa8565b611547565b6040516104a19796959493929190614698565b60405180910390f35b3480156104b657600080fd5b506104d160048036038101906104cc9190613e16565b611600565b6040516104de9190614b8d565b60405180910390f35b3480156104f357600080fd5b5061050e60048036038101906105099190613fa8565b6117d2565b60405161051b919061467d565b60405180910390f35b34801561053057600080fd5b5061054b60048036038101906105469190613fa8565b611884565b6040516105589190614753565b60405180910390f35b34801561056d57600080fd5b5061058860048036038101906105839190613c77565b611bce565b6040516105959190614b8d565b60405180910390f35b3480156105aa57600080fd5b506105c560048036038101906105c09190613f5f565b611c86565b6040516105d29190614b8d565b60405180910390f35b6105f560048036038101906105f09190613dba565b611dea565b6040516106029190614b8d565b60405180910390f35b34801561061757600080fd5b5061062061209f565b60405161062d9190614b8d565b60405180910390f35b34801561064257600080fd5b5061064b6120a5565b6040516106589190614789565b60405180910390f35b34801561066d57600080fd5b5061068860048036038101906106839190613e85565b612137565b005b34801561069657600080fd5b5061069f6122b8565b6040516106ac9190614b8d565b60405180910390f35b3480156106c157600080fd5b506106dc60048036038101906106d79190613d37565b6122be565b005b3480156106ea57600080fd5b5061070560048036038101906107009190613fa8565b6123ac565b6040516107129190614b6b565b60405180910390f35b34801561072757600080fd5b50610742600480360381019061073d9190613fa8565b612552565b60405161074f9190614789565b60405180910390f35b34801561076457600080fd5b5061076d6126a4565b60405161077a9190614b8d565b60405180910390f35b34801561078f57600080fd5b506107986126aa565b6040516107a59190614753565b60405180910390f35b3480156107ba57600080fd5b506107d560048036038101906107d09190613ca4565b6126bd565b6040516107e29190614753565b60405180910390f35b60007f80ac58cd000000000000000000000000000000000000000000000000000000007bffffffffffffffffffffffffffffffffffffffffffffffffffffffff1916827bffffffffffffffffffffffffffffffffffffffffffffffffffffffff191614806108b657507f5b5e139f000000000000000000000000000000000000000000000000000000007bffffffffffffffffffffffffffffffffffffffffffffffffffffffff1916827bffffffffffffffffffffffffffffffffffffffffffffffffffffffff1916145b806108c657506108c582612751565b5b9050919050565b600b81815481106108dd57600080fd5b906000526020600020016000915054906101000a900473ffffffffffffffffffffffffffffffffffffffff1681565b60606000805461091b90614e53565b80601f016020809104026020016040519081016040528092919081815260200182805461094790614e53565b80156109945780601f1061096957610100808354040283529160200191610994565b820191906000526020600020905b81548152906001019060200180831161097757829003601f168201915b5050505050905090565b60006109a9826127bb565b6109e8576040517f08c379a00000000000000000000000000000000000000000000000000000000081526004016109df906149cb565b60405180910390fd5b6004600083815260200190815260200160002060009054906101000a900473ffffffffffffffffffffffffffffffffffffffff169050919050565b6000610a2e826117d2565b90508073ffffffffffffffffffffffffffffffffffffffff168373ffffffffffffffffffffffffffffffffffffffff161415610a9f576040517f08c379a0000000000000000000000000000000000000000000000000000000008152600401610a9690614a8b565b60405180910390fd5b8073ffffffffffffffffffffffffffffffffffffffff16610abe612827565b73ffffffffffffffffffffffffffffffffffffffff161480610aed5750610aec81610ae7612827565b6126bd565b5b610b2c576040517f08c379a0000000000000000000000000000000000000000000000000000000008152600401610b23906148cb565b60405180910390fd5b610b36838361282f565b505050565b600063150b7a0260e01b9050949350505050565b6000600c60003373ffffffffffffffffffffffffffffffffffffffff1673ffffffffffffffffffffffffffffffffffffffff16815260200190815260200160002060009054906101000a900460ff16610bdd576040517f08c379a0000000000000000000000000000000000000000000000000000000008152600401610bd490614aeb565b60405180910390fd5b81600e805490508110610c25576040517f08c379a0000000000000000000000000000000000000000000000000000000008152600401610c1c906147cb565b60405180910390fd5b82600e8181548110610c3a57610c39614fbd565b5b906000526020600020906006020160040160029054906101000a900460ff1615610c99576040517f08c379a0000000000000000000000000000000000000000000000000000000008152600401610c90906148eb565b60405180910390fd5b83600e8181548110610cae57610cad614fbd565b5b906000526020600020906006020160040160019054906101000a900460ff1615610d0d576040517f08c379a0000000000000000000000000000000000000000000000000000000008152600401610d049061480b565b60405180910390fd5b600f600086815260200190815260200160002060003373ffffffffffffffffffffffffffffffffffffffff1673ffffffffffffffffffffffffffffffffffffffff16815260200190815260200160002060009054906101000a900460ff16610daa576040517f08c379a0000000000000000000000000000000000000000000000000000000008152600401610da190614b0b565b60405180910390fd5b6000600f600087815260200190815260200160002060003373ffffffffffffffffffffffffffffffffffffffff1673ffffffffffffffffffffffffffffffffffffffff16815260200190815260200160002060006101000a81548160ff0219169083151502179055506001600e8681548110610e2957610e28614fbd565b5b90600052602060002090600602016005016000828254610e499190614d69565b9250508190555060019350505050919050565b6000600167ffffffffffffffff811115610e7957610e78614fec565b5b604051908082528060200260200182016040528015610ea75781602001602082028036833780820191505090505b5090508181600081518110610ebf57610ebe614fbd565b5b6020026020010181815250506000610eda8483600d54611600565b9050610ee78530856128e8565b610ef081612b44565b505050505050565b600081600e805490508110610f42576040517f08c379a0000000000000000000000000000000000000000000000000000000008152600401610f39906147cb565b60405180910390fd5b82600e8181548110610f5757610f56614fbd565b5b906000526020600020906006020160040160029054906101000a900460ff1615610fb6576040517f08c379a0000000000000000000000000000000000000000000000000000000008152600401610fad906148eb565b60405180910390fd5b83600e8181548110610fcb57610fca614fbd565b5b906000526020600020906006020160040160019054906101000a900460ff161561102a576040517f08c379a00000000000000000000000000000000000000000000000000000000081526004016110219061480b565b60405180910390fd5b3373ffffffffffffffffffffffffffffffffffffffff16600e868154811061105557611054614fbd565b5b906000526020600020906006020160000160009054906101000a900473ffffffffffffffffffffffffffffffffffffffff1673ffffffffffffffffffffffffffffffffffffffff16146110dd576040517f08c379a00000000000000000000000000000000000000000000000000000000081526004016110d49061486b565b60405180910390fd5b6000600e86815481106110f3576110f2614fbd565b5b90600052602060002090600602016003015490506000600e878154811061111d5761111c614fbd565b5b906000526020600020906006020160000160009054906101000a900473ffffffffffffffffffffffffffffffffffffffff1673ffffffffffffffffffffffffffffffffffffffff168260405161117290614668565b60006040518083038185875af1925050503d80600081146111af576040519150601f19603f3d011682016040523d82523d6000602084013e6111b4565b606091505b505080915050806111fa576040517f08c379a00000000000000000000000000000000000000000000000000000000081526004016111f190614aab565b60405180910390fd5b6001600e88815481106112105761120f614fbd565b5b906000526020600020906006020160040160016101000a81548160ff021916908315150217905550600195505050505050919050565b6000600c60003373ffffffffffffffffffffffffffffffffffffffff1673ffffffffffffffffffffffffffffffffffffffff16815260200190815260200160002060009054906101000a900460ff166112d4576040517f08c379a00000000000000000000000000000000000000000000000000000000081526004016112cb90614aeb565b60405180910390fd5b600060075411611319576040517f08c379a000000000000000000000000000000000000000000000000000000000815260040161131090614a6b565b60405180910390fd5b600a60009054906101000a900460ff1615611369576040517f08c379a00000000000000000000000000000000000000000000000000000000081526004016113609061498b565b60405180910390fd5b60005b6007548110156113d2576113803082612f88565b6113bf576040517f08c379a00000000000000000000000000000000000000000000000000000000081526004016113b6906149eb565b60405180910390fd5b80806113ca90614eb6565b91505061136c565b506001600a60006101000a81548160ff02191690831515021790555060005b6007548110156114175761140481613066565b808061140f90614eb6565b9150506113f1565b50611421826130b9565b5060019050919050565b600c6020528060005260406000206000915054906101000a900460ff1681565b61145c611456612827565b82612f88565b61149b576040517f08c379a000000000000000000000000000000000000000000000000000000000815260040161149290614acb565b60405180910390fd5b6000600167ffffffffffffffff8111156114b8576114b7614fec565b5b6040519080825280602002602001820160405280156114e65781602001602082028036833780820191505090505b50905081816000815181106114fe576114fd614fbd565b5b60200260200101818152505060006115198483600d54611600565b9050611536853085604051806020016040528060008152506130f3565b61153f81612b44565b505050505050565b600e818154811061155757600080fd5b90600052602060002090600602016000915090508060000160009054906101000a900473ffffffffffffffffffffffffffffffffffffffff16908060010160009054906101000a900473ffffffffffffffffffffffffffffffffffffffff16908060030154908060040160009054906101000a900460ff16908060040160019054906101000a900460ff16908060040160029054906101000a900460ff16908060050154905087565b600080600e805490509050600e6040518061010001604052803373ffffffffffffffffffffffffffffffffffffffff1681526020018773ffffffffffffffffffffffffffffffffffffffff1681526020018681526020018581526020016001151581526020016000151581526020016000151581526020016000815250908060018154018082558091505060019003906000526020600020906006020160009091909190915060008201518160000160006101000a81548173ffffffffffffffffffffffffffffffffffffffff021916908373ffffffffffffffffffffffffffffffffffffffff16021790555060208201518160010160006101000a81548173ffffffffffffffffffffffffffffffffffffffff021916908373ffffffffffffffffffffffffffffffffffffffff16021790555060408201518160020190805190602001906117509291906138e9565b506060820151816003015560808201518160040160006101000a81548160ff02191690831515021790555060a08201518160040160016101000a81548160ff02191690831515021790555060c08201518160040160026101000a81548160ff02191690831515021790555060e082015181600501555050809150509392505050565b6000806002600084815260200190815260200160002060009054906101000a900473ffffffffffffffffffffffffffffffffffffffff169050600073ffffffffffffffffffffffffffffffffffffffff168173ffffffffffffffffffffffffffffffffffffffff16141561187b576040517f08c379a00000000000000000000000000000000000000000000000000000000081526004016118729061492b565b60405180910390fd5b80915050919050565b6000600c60003373ffffffffffffffffffffffffffffffffffffffff1673ffffffffffffffffffffffffffffffffffffffff16815260200190815260200160002060009054906101000a900460ff16611912576040517f08c379a000000000000000000000000000000000000000000000000000000000815260040161190990614aeb565b60405180910390fd5b81600e80549050811061195a576040517f08c379a0000000000000000000000000000000000000000000000000000000008152600401611951906147cb565b60405180910390fd5b82600e818154811061196f5761196e614fbd565b5b906000526020600020906006020160040160029054906101000a900460ff16156119ce576040517f08c379a00000000000000000000000000000000000000000000000000000000081526004016119c5906148eb565b60405180910390fd5b83600f600082815260200190815260200160002060003373ffffffffffffffffffffffffffffffffffffffff1673ffffffffffffffffffffffffffffffffffffffff16815260200190815260200160002060009054906101000a900460ff1615611a6d576040517f08c379a0000000000000000000000000000000000000000000000000000000008152600401611a64906148ab565b60405180910390fd5b84600e8181548110611a8257611a81614fbd565b5b906000526020600020906006020160040160019054906101000a900460ff1615611ae1576040517f08c379a0000000000000000000000000000000000000000000000000000000008152600401611ad89061480b565b60405180910390fd5b6001600f600088815260200190815260200160002060003373ffffffffffffffffffffffffffffffffffffffff1673ffffffffffffffffffffffffffffffffffffffff16815260200190815260200160002060006101000a81548160ff0219169083151502179055506001600e8781548110611b6057611b5f614fbd565b5b90600052602060002090600602016005016000828254611b809190614ce2565b92505081905550600954600e8781548110611b9e57611b9d614fbd565b5b9060005260206000209060060201600501541415611bc157611bbf86612b44565b505b6001945050505050919050565b60008073ffffffffffffffffffffffffffffffffffffffff168273ffffffffffffffffffffffffffffffffffffffff161415611c3f576040517f08c379a0000000000000000000000000000000000000000000000000000000008152600401611c369061490b565b60405180910390fd5b600360008373ffffffffffffffffffffffffffffffffffffffff1673ffffffffffffffffffffffffffffffffffffffff168152602001908152602001600020549050919050565b6000600b60085481548110611c9e57611c9d614fbd565b5b9060005260206000200160009054906101000a900473ffffffffffffffffffffffffffffffffffffffff1673ffffffffffffffffffffffffffffffffffffffff163373ffffffffffffffffffffffffffffffffffffffff1614611d36576040517f08c379a0000000000000000000000000000000000000000000000000000000008152600401611d2d90614b2b565b60405180910390fd5b600a60009054906101000a900460ff1615611d86576040517f08c379a0000000000000000000000000000000000000000000000000000000008152600401611d7d9061498b565b60405180910390fd5b60006007549050611d97308261314f565b611da1818461316d565b6001600754611db09190614ce2565b6007819055506000600b805490506001600854611dcd9190614ce2565b611dd79190614eff565b9050806008819055508192505050919050565b60008160005b8151811015611ecd57600754828281518110611e0f57611e0e614fbd565b5b602002602001015110611e57576040517f08c379a0000000000000000000000000000000000000000000000000000000008152600401611e4e90614a4b565b60405180910390fd5b611e7b30838381518110611e6e57611e6d614fbd565b5b6020026020010151612f88565b611eba576040517f08c379a0000000000000000000000000000000000000000000000000000000008152600401611eb190614b4b565b60405180910390fd5b8080611ec590614eb6565b915050611df0565b506000600e805490509050600e6040518061010001604052803373ffffffffffffffffffffffffffffffffffffffff1681526020018773ffffffffffffffffffffffffffffffffffffffff1681526020018681526020013481526020016000151581526020016000151581526020016000151581526020016000815250908060018154018082558091505060019003906000526020600020906006020160009091909190915060008201518160000160006101000a81548173ffffffffffffffffffffffffffffffffffffffff021916908373ffffffffffffffffffffffffffffffffffffffff16021790555060208201518160010160006101000a81548173ffffffffffffffffffffffffffffffffffffffff021916908373ffffffffffffffffffffffffffffffffffffffff160217905550604082015181600201908051906020019061201d9291906138e9565b506060820151816003015560808201518160040160006101000a81548160ff02191690831515021790555060a08201518160040160016101000a81548160ff02191690831515021790555060c08201518160040160026101000a81548160ff02191690831515021790555060e082015181600501555050809250505092915050565b60095481565b6060600180546120b490614e53565b80601f01602080910402602001604051908101604052809291908181526020018280546120e090614e53565b801561212d5780601f106121025761010080835404028352916020019161212d565b820191906000526020600020905b81548152906001019060200180831161211057829003601f168201915b5050505050905090565b61213f612827565b73ffffffffffffffffffffffffffffffffffffffff168273ffffffffffffffffffffffffffffffffffffffff1614156121ad576040517f08c379a00000000000000000000000000000000000000000000000000000000081526004016121a49061484b565b60405180910390fd5b80600560006121ba612827565b73ffffffffffffffffffffffffffffffffffffffff1673ffffffffffffffffffffffffffffffffffffffff16815260200190815260200160002060008473ffffffffffffffffffffffffffffffffffffffff1673ffffffffffffffffffffffffffffffffffffffff16815260200190815260200160002060006101000a81548160ff0219169083151502179055508173ffffffffffffffffffffffffffffffffffffffff16612267612827565b73ffffffffffffffffffffffffffffffffffffffff167f17307eab39ab6107e8899845ad3d59bd9653f200f220920489ca2b5937696c31836040516122ac9190614753565b60405180910390a35050565b60085481565b6122cf6122c9612827565b83612f88565b61230e576040517f08c379a000000000000000000000000000000000000000000000000000000000815260040161230590614acb565b60405180910390fd5b6000600167ffffffffffffffff81111561232b5761232a614fec565b5b6040519080825280602002602001820160405280156123595781602001602082028036833780820191505090505b509050828160008151811061237157612370614fbd565b5b602002602001018181525050600061238c8583600d54611600565b905061239a863086866130f3565b6123a381612b44565b50505050505050565b6123b4613936565b600e82815481106123c8576123c7614fbd565b5b9060005260206000209060060201604051806101000160405290816000820160009054906101000a900473ffffffffffffffffffffffffffffffffffffffff1673ffffffffffffffffffffffffffffffffffffffff1673ffffffffffffffffffffffffffffffffffffffff1681526020016001820160009054906101000a900473ffffffffffffffffffffffffffffffffffffffff1673ffffffffffffffffffffffffffffffffffffffff1673ffffffffffffffffffffffffffffffffffffffff168152602001600282018054806020026020016040519081016040528092919081815260200182805480156124dd57602002820191906000526020600020905b8154815260200190600101908083116124c9575b50505050508152602001600382015481526020016004820160009054906101000a900460ff161515151581526020016004820160019054906101000a900460ff161515151581526020016004820160029054906101000a900460ff161515151581526020016005820154815250509050919050565b606061255d826127bb565b61259c576040517f08c379a0000000000000000000000000000000000000000000000000000000008152600401612593906149ab565b60405180910390fd5b60006006600084815260200190815260200160002080546125bc90614e53565b80601f01602080910402602001604051908101604052809291908181526020018280546125e890614e53565b80156126355780601f1061260a57610100808354040283529160200191612635565b820191906000526020600020905b81548152906001019060200180831161261857829003601f168201915b5050505050905060006126466131e1565b905060008151141561265c57819250505061269f565b600082511115612691578082604051602001612679929190614644565b6040516020818303038152906040529250505061269f565b61269a846131f8565b925050505b919050565b60075481565b600a60009054906101000a900460ff1681565b6000600560008473ffffffffffffffffffffffffffffffffffffffff1673ffffffffffffffffffffffffffffffffffffffff16815260200190815260200160002060008373ffffffffffffffffffffffffffffffffffffffff1673ffffffffffffffffffffffffffffffffffffffff16815260200190815260200160002060009054906101000a900460ff16905092915050565b60007f01ffc9a7000000000000000000000000000000000000000000000000000000007bffffffffffffffffffffffffffffffffffffffffffffffffffffffff1916827bffffffffffffffffffffffffffffffffffffffffffffffffffffffff1916149050919050565b60008073ffffffffffffffffffffffffffffffffffffffff166002600084815260200190815260200160002060009054906101000a900473ffffffffffffffffffffffffffffffffffffffff1673ffffffffffffffffffffffffffffffffffffffff1614159050919050565b600033905090565b816004600083815260200190815260200160002060006101000a81548173ffffffffffffffffffffffffffffffffffffffff021916908373ffffffffffffffffffffffffffffffffffffffff160217905550808273ffffffffffffffffffffffffffffffffffffffff166128a2836117d2565b73ffffffffffffffffffffffffffffffffffffffff167f8c5be1e5ebec7d5bd14f71427d1e84f3dd0314c0f7b2291e5b200ac8c7c3b92560405160405180910390a45050565b8273ffffffffffffffffffffffffffffffffffffffff16612908826117d2565b73ffffffffffffffffffffffffffffffffffffffff161461295e576040517f08c379a000000000000000000000000000000000000000000000000000000000815260040161295590614a0b565b60405180910390fd5b600073ffffffffffffffffffffffffffffffffffffffff168273ffffffffffffffffffffffffffffffffffffffff1614156129ce576040517f08c379a00000000000000000000000000000000000000000000000000000000081526004016129c59061482b565b60405180910390fd5b6129d983838361329f565b6129e460008261282f565b6001600360008573ffffffffffffffffffffffffffffffffffffffff1673ffffffffffffffffffffffffffffffffffffffff1681526020019081526020016000206000828254612a349190614d69565b925050819055506001600360008473ffffffffffffffffffffffffffffffffffffffff1673ffffffffffffffffffffffffffffffffffffffff1681526020019081526020016000206000828254612a8b9190614ce2565b92505081905550816002600083815260200190815260200160002060006101000a81548173ffffffffffffffffffffffffffffffffffffffff021916908373ffffffffffffffffffffffffffffffffffffffff160217905550808273ffffffffffffffffffffffffffffffffffffffff168473ffffffffffffffffffffffffffffffffffffffff167fddf252ad1be2c89b69c2b068fc378daa952ba7f163c4a11628f55a4df523b3ef60405160405180910390a4505050565b600080600e8381548110612b5b57612b5a614fbd565b5b9060005260206000209060060201600201805480602002602001604051908101604052809291908181526020018280548015612bb657602002820191906000526020600020905b815481526020019060010190808311612ba2575b5050505050905060001515600e8481548110612bd557612bd4614fbd565b5b906000526020600020906006020160040160009054906101000a900460ff1615151415612d4a576000600954600e8581548110612c1557612c14614fbd565b5b906000526020600020906006020160030154612c319190614d38565b9050600080600090505b600954811015612d4257600b8181548110612c5957612c58614fbd565b5b9060005260206000200160009054906101000a900473ffffffffffffffffffffffffffffffffffffffff1673ffffffffffffffffffffffffffffffffffffffff1683604051612ca790614668565b60006040518083038185875af1925050503d8060008114612ce4576040519150601f19603f3d011682016040523d82523d6000602084013e612ce9565b606091505b50508092505081612d2f576040517f08c379a0000000000000000000000000000000000000000000000000000000008152600401612d2690614aab565b60405180910390fd5b8080612d3a90614eb6565b915050612c3b565b505050612ea6565b6000600a600e8581548110612d6257612d61614fbd565b5b906000526020600020906006020160030154612d7e9190614d38565b9050600060095482612d909190614d38565b9050600080600090505b600954811015612ea157600b8181548110612db857612db7614fbd565b5b9060005260206000200160009054906101000a900473ffffffffffffffffffffffffffffffffffffffff1673ffffffffffffffffffffffffffffffffffffffff1683604051612e0690614668565b60006040518083038185875af1925050503d8060008114612e43576040519150601f19603f3d011682016040523d82523d6000602084013e612e48565b606091505b50508092505081612e8e576040517f08c379a0000000000000000000000000000000000000000000000000000000008152600401612e8590614aab565b60405180910390fd5b8080612e9990614eb6565b915050612d9a565b505050505b60005b8151811015612f3f57612f2c30600e8681548110612eca57612ec9614fbd565b5b906000526020600020906006020160010160009054906101000a900473ffffffffffffffffffffffffffffffffffffffff16848481518110612f0f57612f0e614fbd565b5b6020026020010151604051806020016040528060008152506130f3565b8080612f3790614eb6565b915050612ea9565b506001600e8481548110612f5657612f55614fbd565b5b906000526020600020906006020160040160026101000a81548160ff0219169083151502179055506001915050919050565b6000612f93826127bb565b612fd2576040517f08c379a0000000000000000000000000000000000000000000000000000000008152600401612fc99061488b565b60405180910390fd5b6000612fdd836117d2565b90508073ffffffffffffffffffffffffffffffffffffffff168473ffffffffffffffffffffffffffffffffffffffff16148061304c57508373ffffffffffffffffffffffffffffffffffffffff166130348461099e565b73ffffffffffffffffffffffffffffffffffffffff16145b8061305d575061305c81856126bd565b5b91505092915050565b61306f816132a4565b600060066000838152602001908152602001600020805461308f90614e53565b9050146130b6576006600082815260200190815260200160002060006130b591906139ad565b5b50565b60008060075490506130cb308261314f565b6130d5818461316d565b60016007546130e49190614ce2565b60078190555080915050919050565b6130fe8484846128e8565b61310a848484846133b5565b613149576040517f08c379a0000000000000000000000000000000000000000000000000000000008152600401613140906147ab565b60405180910390fd5b50505050565b61316982826040518060200160405280600081525061354c565b5050565b613176826127bb565b6131b5576040517f08c379a00000000000000000000000000000000000000000000000000000000081526004016131ac9061494b565b60405180910390fd5b806006600084815260200190815260200160002090805190602001906131dc9291906139ed565b505050565b606060405180602001604052806000815250905090565b6060613203826127bb565b613242576040517f08c379a000000000000000000000000000000000000000000000000000000000815260040161323990614a2b565b60405180910390fd5b600061324c6131e1565b9050600081511161326c5760405180602001604052806000815250613297565b80613276846135a7565b604051602001613287929190614644565b6040516020818303038152906040525b915050919050565b505050565b60006132af826117d2565b90506132bd8160008461329f565b6132c860008361282f565b6001600360008373ffffffffffffffffffffffffffffffffffffffff1673ffffffffffffffffffffffffffffffffffffffff16815260200190815260200160002060008282546133189190614d69565b925050819055506002600083815260200190815260200160002060006101000a81549073ffffffffffffffffffffffffffffffffffffffff021916905581600073ffffffffffffffffffffffffffffffffffffffff168273ffffffffffffffffffffffffffffffffffffffff167fddf252ad1be2c89b69c2b068fc378daa952ba7f163c4a11628f55a4df523b3ef60405160405180910390a45050565b60006133d68473ffffffffffffffffffffffffffffffffffffffff16613708565b1561353f578373ffffffffffffffffffffffffffffffffffffffff1663150b7a026133ff612827565b8786866040518563ffffffff1660e01b81526004016134219493929190614707565b602060405180830381600087803b15801561343b57600080fd5b505af192505050801561346c57506040513d601f19601f820116820180604052508101906134699190613f32565b60015b6134ef573d806000811461349c576040519150601f19603f3d011682016040523d82523d6000602084013e6134a1565b606091505b506000815114156134e7576040517f08c379a00000000000000000000000000000000000000000000000000000000081526004016134de906147ab565b60405180910390fd5b805181602001fd5b63150b7a0260e01b7bffffffffffffffffffffffffffffffffffffffffffffffffffffffff1916817bffffffffffffffffffffffffffffffffffffffffffffffffffffffff191614915050613544565b600190505b949350505050565b613556838361371b565b61356360008484846133b5565b6135a2576040517f08c379a0000000000000000000000000000000000000000000000000000000008152600401613599906147ab565b60405180910390fd5b505050565b606060008214156135ef576040518060400160405280600181526020017f30000000000000000000000000000000000000000000000000000000000000008152509050613703565b600082905060005b6000821461362157808061360a90614eb6565b915050600a8261361a9190614d38565b91506135f7565b60008167ffffffffffffffff81111561363d5761363c614fec565b5b6040519080825280601f01601f19166020018201604052801561366f5781602001600182028036833780820191505090505b5090505b600085146136fc576001826136889190614d69565b9150600a856136979190614eff565b60306136a39190614ce2565b60f81b8183815181106136b9576136b8614fbd565b5b60200101907effffffffffffffffffffffffffffffffffffffffffffffffffffffffffffff1916908160001a905350600a856136f59190614d38565b9450613673565b8093505050505b919050565b600080823b905060008111915050919050565b600073ffffffffffffffffffffffffffffffffffffffff168273ffffffffffffffffffffffffffffffffffffffff16141561378b576040517f08c379a00000000000000000000000000000000000000000000000000000000081526004016137829061496b565b60405180910390fd5b613794816127bb565b156137d4576040517f08c379a00000000000000000000000000000000000000000000000000000000081526004016137cb906147eb565b60405180910390fd5b6137e06000838361329f565b6001600360008473ffffffffffffffffffffffffffffffffffffffff1673ffffffffffffffffffffffffffffffffffffffff16815260200190815260200160002060008282546138309190614ce2565b92505081905550816002600083815260200190815260200160002060006101000a81548173ffffffffffffffffffffffffffffffffffffffff021916908373ffffffffffffffffffffffffffffffffffffffff160217905550808273ffffffffffffffffffffffffffffffffffffffff16600073ffffffffffffffffffffffffffffffffffffffff167fddf252ad1be2c89b69c2b068fc378daa952ba7f163c4a11628f55a4df523b3ef60405160405180910390a45050565b828054828255906000526020600020908101928215613925579160200282015b82811115613924578251825591602001919060010190613909565b5b5090506139329190613a73565b5090565b604051806101000160405280600073ffffffffffffffffffffffffffffffffffffffff168152602001600073ffffffffffffffffffffffffffffffffffffffff1681526020016060815260200160008152602001600015158152602001600015158152602001600015158152602001600081525090565b5080546139b990614e53565b6000825580601f106139cb57506139ea565b601f0160209004906000526020600020908101906139e99190613a73565b5b50565b8280546139f990614e53565b90600052602060002090601f016020900481019282613a1b5760008555613a62565b82601f10613a3457805160ff1916838001178555613a62565b82800160010185558215613a62579182015b82811115613a61578251825591602001919060010190613a46565b5b509050613a6f9190613a73565b5090565b5b80821115613a8c576000816000905550600101613a74565b5090565b6000613aa3613a9e84614bcd565b614ba8565b90508083825260208201905082856020860282011115613ac657613ac5615020565b5b60005b85811015613af65781613adc8882613c62565b845260208401935060208301925050600181019050613ac9565b5050509392505050565b6000613b13613b0e84614bf9565b614ba8565b905082815260208101848484011115613b2f57613b2e615025565b5b613b3a848285614e11565b509392505050565b6000613b55613b5084614c2a565b614ba8565b905082815260208101848484011115613b7157613b70615025565b5b613b7c848285614e11565b509392505050565b600081359050613b93816157c2565b92915050565b600082601f830112613bae57613bad61501b565b5b8135613bbe848260208601613a90565b91505092915050565b600081359050613bd6816157d9565b92915050565b600081359050613beb816157f0565b92915050565b600081519050613c00816157f0565b92915050565b600082601f830112613c1b57613c1a61501b565b5b8135613c2b848260208601613b00565b91505092915050565b600082601f830112613c4957613c4861501b565b5b8135613c59848260208601613b42565b91505092915050565b600081359050613c7181615807565b92915050565b600060208284031215613c8d57613c8c61502f565b5b6000613c9b84828501613b84565b91505092915050565b60008060408385031215613cbb57613cba61502f565b5b6000613cc985828601613b84565b9250506020613cda85828601613b84565b9150509250929050565b600080600060608486031215613cfd57613cfc61502f565b5b6000613d0b86828701613b84565b9350506020613d1c86828701613b84565b9250506040613d2d86828701613c62565b9150509250925092565b60008060008060808587031215613d5157613d5061502f565b5b6000613d5f87828801613b84565b9450506020613d7087828801613b84565b9350506040613d8187828801613c62565b925050606085013567ffffffffffffffff811115613da257613da161502a565b5b613dae87828801613c06565b91505092959194509250565b60008060408385031215613dd157613dd061502f565b5b6000613ddf85828601613b84565b925050602083013567ffffffffffffffff811115613e0057613dff61502a565b5b613e0c85828601613b99565b9150509250929050565b600080600060608486031215613e2f57613e2e61502f565b5b6000613e3d86828701613b84565b935050602084013567ffffffffffffffff811115613e5e57613e5d61502a565b5b613e6a86828701613b99565b9250506040613e7b86828701613c62565b9150509250925092565b60008060408385031215613e9c57613e9b61502f565b5b6000613eaa85828601613b84565b9250506020613ebb85828601613bc7565b9150509250929050565b60008060408385031215613edc57613edb61502f565b5b6000613eea85828601613b84565b9250506020613efb85828601613c62565b9150509250929050565b600060208284031215613f1b57613f1a61502f565b5b6000613f2984828501613bdc565b91505092915050565b600060208284031215613f4857613f4761502f565b5b6000613f5684828501613bf1565b91505092915050565b600060208284031215613f7557613f7461502f565b5b600082013567ffffffffffffffff811115613f9357613f9261502a565b5b613f9f84828501613c34565b91505092915050565b600060208284031215613fbe57613fbd61502f565b5b6000613fcc84828501613c62565b91505092915050565b6000613fe18383614626565b60208301905092915050565b613ff681614d9d565b82525050565b61400581614d9d565b82525050565b600061401682614c6b565b6140208185614c99565b935061402b83614c5b565b8060005b8381101561405c5781516140438882613fd5565b975061404e83614c8c565b92505060018101905061402f565b5085935050505092915050565b61407281614daf565b82525050565b61408181614daf565b82525050565b61409081614dbb565b82525050565b60006140a182614c76565b6140ab8185614caa565b93506140bb818560208601614e20565b6140c481615034565b840191505092915050565b60006140da82614c81565b6140e48185614cc6565b93506140f4818560208601614e20565b6140fd81615034565b840191505092915050565b600061411382614c81565b61411d8185614cd7565b935061412d818560208601614e20565b80840191505092915050565b6000614146603283614cc6565b915061415182615045565b604082019050919050565b6000614169602083614cc6565b915061417482615094565b602082019050919050565b600061418c601c83614cc6565b9150614197826150bd565b602082019050919050565b60006141af602483614cc6565b91506141ba826150e6565b604082019050919050565b60006141d2602483614cc6565b91506141dd82615135565b604082019050919050565b60006141f5601983614cc6565b915061420082615184565b602082019050919050565b6000614218603083614cc6565b9150614223826151ad565b604082019050919050565b600061423b602c83614cc6565b9150614246826151fc565b604082019050919050565b600061425e602683614cc6565b91506142698261524b565b604082019050919050565b6000614281603883614cc6565b915061428c8261529a565b604082019050919050565b60006142a4602583614cc6565b91506142af826152e9565b604082019050919050565b60006142c7602a83614cc6565b91506142d282615338565b604082019050919050565b60006142ea602983614cc6565b91506142f582615387565b604082019050919050565b600061430d602e83614cc6565b9150614318826153d6565b604082019050919050565b6000614330602083614cc6565b915061433b82615425565b602082019050919050565b6000614353601c83614cc6565b915061435e8261544e565b602082019050919050565b6000614376603183614cc6565b915061438182615477565b604082019050919050565b6000614399602c83614cc6565b91506143a4826154c6565b604082019050919050565b60006143bc602083614cc6565b91506143c782615515565b602082019050919050565b60006143df602983614cc6565b91506143ea8261553e565b604082019050919050565b6000614402602f83614cc6565b915061440d8261558d565b604082019050919050565b6000614425601083614cc6565b9150614430826155dc565b602082019050919050565b6000614448601883614cc6565b915061445382615605565b602082019050919050565b600061446b602183614cc6565b91506144768261562e565b604082019050919050565b600061448e600083614cbb565b91506144998261567d565b600082019050919050565b60006144b1601083614cc6565b91506144bc82615680565b602082019050919050565b60006144d4603183614cc6565b91506144df826156a9565b604082019050919050565b60006144f7600c83614cc6565b9150614502826156f8565b602082019050919050565b600061451a602783614cc6565b915061452582615721565b604082019050919050565b600061453d600d83614cc6565b915061454882615770565b602082019050919050565b6000614560601b83614cc6565b915061456b82615799565b602082019050919050565b60006101008301600083015161458f6000860182613fed565b5060208301516145a26020860182613fed565b50604083015184820360408601526145ba828261400b565b91505060608301516145cf6060860182614626565b5060808301516145e26080860182614069565b5060a08301516145f560a0860182614069565b5060c083015161460860c0860182614069565b5060e083015161461b60e0860182614626565b508091505092915050565b61462f81614e07565b82525050565b61463e81614e07565b82525050565b60006146508285614108565b915061465c8284614108565b91508190509392505050565b600061467382614481565b9150819050919050565b60006020820190506146926000830184613ffc565b92915050565b600060e0820190506146ad600083018a613ffc565b6146ba6020830189613ffc565b6146c76040830188614635565b6146d46060830187614078565b6146e16080830186614078565b6146ee60a0830185614078565b6146fb60c0830184614635565b98975050505050505050565b600060808201905061471c6000830187613ffc565b6147296020830186613ffc565b6147366040830185614635565b81810360608301526147488184614096565b905095945050505050565b60006020820190506147686000830184614078565b92915050565b60006020820190506147836000830184614087565b92915050565b600060208201905081810360008301526147a381846140cf565b905092915050565b600060208201905081810360008301526147c481614139565b9050919050565b600060208201905081810360008301526147e48161415c565b9050919050565b600060208201905081810360008301526148048161417f565b9050919050565b60006020820190508181036000830152614824816141a2565b9050919050565b60006020820190508181036000830152614844816141c5565b9050919050565b60006020820190508181036000830152614864816141e8565b9050919050565b600060208201905081810360008301526148848161420b565b9050919050565b600060208201905081810360008301526148a48161422e565b9050919050565b600060208201905081810360008301526148c481614251565b9050919050565b600060208201905081810360008301526148e481614274565b9050919050565b6000602082019050818103600083015261490481614297565b9050919050565b60006020820190508181036000830152614924816142ba565b9050919050565b60006020820190508181036000830152614944816142dd565b9050919050565b6000602082019050818103600083015261496481614300565b9050919050565b6000602082019050818103600083015261498481614323565b9050919050565b600060208201905081810360008301526149a481614346565b9050919050565b600060208201905081810360008301526149c481614369565b9050919050565b600060208201905081810360008301526149e48161438c565b9050919050565b60006020820190508181036000830152614a04816143af565b9050919050565b60006020820190508181036000830152614a24816143d2565b9050919050565b60006020820190508181036000830152614a44816143f5565b9050919050565b60006020820190508181036000830152614a6481614418565b9050919050565b60006020820190508181036000830152614a848161443b565b9050919050565b60006020820190508181036000830152614aa48161445e565b9050919050565b60006020820190508181036000830152614ac4816144a4565b9050919050565b60006020820190508181036000830152614ae4816144c7565b9050919050565b60006020820190508181036000830152614b04816144ea565b9050919050565b60006020820190508181036000830152614b248161450d565b9050919050565b60006020820190508181036000830152614b4481614530565b9050919050565b60006020820190508181036000830152614b6481614553565b9050919050565b60006020820190508181036000830152614b858184614576565b905092915050565b6000602082019050614ba26000830184614635565b92915050565b6000614bb2614bc3565b9050614bbe8282614e85565b919050565b6000604051905090565b600067ffffffffffffffff821115614be857614be7614fec565b5b602082029050602081019050919050565b600067ffffffffffffffff821115614c1457614c13614fec565b5b614c1d82615034565b9050602081019050919050565b600067ffffffffffffffff821115614c4557614c44614fec565b5b614c4e82615034565b9050602081019050919050565b6000819050602082019050919050565b600081519050919050565b600081519050919050565b600081519050919050565b6000602082019050919050565b600082825260208201905092915050565b600082825260208201905092915050565b600081905092915050565b600082825260208201905092915050565b600081905092915050565b6000614ced82614e07565b9150614cf883614e07565b9250827fffffffffffffffffffffffffffffffffffffffffffffffffffffffffffffffff03821115614d2d57614d2c614f30565b5b828201905092915050565b6000614d4382614e07565b9150614d4e83614e07565b925082614d5e57614d5d614f5f565b5b828204905092915050565b6000614d7482614e07565b9150614d7f83614e07565b925082821015614d9257614d91614f30565b5b828203905092915050565b6000614da882614de7565b9050919050565b60008115159050919050565b60007fffffffff0000000000000000000000000000000000000000000000000000000082169050919050565b600073ffffffffffffffffffffffffffffffffffffffff82169050919050565b6000819050919050565b82818337600083830152505050565b60005b83811015614e3e578082015181840152602081019050614e23565b83811115614e4d576000848401525b50505050565b60006002820490506001821680614e6b57607f821691505b60208210811415614e7f57614e7e614f8e565b5b50919050565b614e8e82615034565b810181811067ffffffffffffffff82111715614ead57614eac614fec565b5b80604052505050565b6000614ec182614e07565b91507fffffffffffffffffffffffffffffffffffffffffffffffffffffffffffffffff821415614ef457614ef3614f30565b5b600182019050919050565b6000614f0a82614e07565b9150614f1583614e07565b925082614f2557614f24614f5f565b5b828206905092915050565b7f4e487b7100000000000000000000000000000000000000000000000000000000600052601160045260246000fd5b7f4e487b7100000000000000000000000000000000000000000000000000000000600052601260045260246000fd5b7f4e487b7100000000000000000000000000000000000000000000000000000000600052602260045260246000fd5b7f4e487b7100000000000000000000000000000000000000000000000000000000600052603260045260246000fd5b7f4e487b7100000000000000000000000000000000000000000000000000000000600052604160045260246000fd5b600080fd5b600080fd5b600080fd5b600080fd5b600080fd5b6000601f19601f8301169050919050565b7f4552433732313a207472616e7366657220746f206e6f6e20455243373231526560008201527f63656976657220696d706c656d656e7465720000000000000000000000000000602082015250565b7f73616c6573207472616e73616374696f6e20646f6573206e6f74206578697374600082015250565b7f4552433732313a20746f6b656e20616c7265616479206d696e74656400000000600082015250565b7f73616c6573207472616e73616374696f6e20697320616c72656164792072657660008201527f6f6b656400000000000000000000000000000000000000000000000000000000602082015250565b7f4552433732313a207472616e7366657220746f20746865207a65726f2061646460008201527f7265737300000000000000000000000000000000000000000000000000000000602082015250565b7f4552433732313a20617070726f766520746f2063616c6c657200000000000000600082015250565b7f6d757374206265206163636f756e742074686174207375626d6974746564207360008201527f616c6573207472616e73616374696f6e00000000000000000000000000000000602082015250565b7f4552433732313a206f70657261746f7220717565727920666f72206e6f6e657860008201527f697374656e7420746f6b656e0000000000000000000000000000000000000000602082015250565b7f73616c6573207472616e73616374696f6e20697320616c726561647920636f6e60008201527f6669726d65640000000000000000000000000000000000000000000000000000602082015250565b7f4552433732313a20617070726f76652063616c6c6572206973206e6f74206f7760008201527f6e6572206e6f7220617070726f76656420666f7220616c6c0000000000000000602082015250565b7f73616c6573207472616e73616374696f6e20697320616c72656164792065786560008201527f6375746564000000000000000000000000000000000000000000000000000000602082015250565b7f4552433732313a2062616c616e636520717565727920666f7220746865207a6560008201527f726f206164647265737300000000000000000000000000000000000000000000602082015250565b7f4552433732313a206f776e657220717565727920666f72206e6f6e657869737460008201527f656e7420746f6b656e0000000000000000000000000000000000000000000000602082015250565b7f45524337323155524953746f726167653a2055524920736574206f66206e6f6e60008201527f6578697374656e7420746f6b656e000000000000000000000000000000000000602082015250565b7f4552433732313a206d696e7420746f20746865207a65726f2061646472657373600082015250565b7f4e4654206973206120636f6d706c6574656420636f6d706f7369746500000000600082015250565b7f45524337323155524953746f726167653a2055524920717565727920666f722060008201527f6e6f6e6578697374656e7420746f6b656e000000000000000000000000000000602082015250565b7f4552433732313a20617070726f76656420717565727920666f72206e6f6e657860008201527f697374656e7420746f6b656e0000000000000000000000000000000000000000602082015250565b7f6e6f7420616c6c20746f6b656e73206f776e656420627920636f6e7472616374600082015250565b7f4552433732313a207472616e73666572206f6620746f6b656e2074686174206960008201527f73206e6f74206f776e0000000000000000000000000000000000000000000000602082015250565b7f4552433732314d657461646174613a2055524920717565727920666f72206e6f60008201527f6e6578697374656e7420746f6b656e0000000000000000000000000000000000602082015250565b7f696e76616c696420746f6b656e20494400000000000000000000000000000000600082015250565b7f6e6f204e4654732068617665206265656e206d696e7465640000000000000000600082015250565b7f4552433732313a20617070726f76616c20746f2063757272656e74206f776e6560008201527f7200000000000000000000000000000000000000000000000000000000000000602082015250565b50565b7f5472616e73666572206661696c65642e00000000000000000000000000000000600082015250565b7f4552433732313a207472616e736665722063616c6c6572206973206e6f74206f60008201527f776e6572206e6f7220617070726f766564000000000000000000000000000000602082015250565b7f6e6f7420616e206f776e65720000000000000000000000000000000000000000600082015250565b7f73616c6573207472616e73616374696f6e206e6f7420617070726f766564206260008201527f79206f776e657200000000000000000000000000000000000000000000000000602082015250565b7f6e6f7420796f7572207475726e00000000000000000000000000000000000000600082015250565b7f746f6b656e206e6f74206f776e656420627920636f6e74726163740000000000600082015250565b6157cb81614d9d565b81146157d657600080fd5b50565b6157e281614daf565b81146157ed57600080fd5b50565b6157f981614dbb565b811461580457600080fd5b50565b61581081614e07565b811461581b57600080fd5b5056fea264697066735822122019824fbd6577a8a214f5fef4bf39323554d5cd3eefe6030641ce017d494dbeba64736f6c63430008070033",
  "immutableReferences": {},
  "source": "// SPDX-License-Identifier: MIT\r\npragma solidity ^0.8.0;\r\n\r\n// ERC721URIStorage allows you to set tokenURI after minting\r\n// ERC721Holder ensures that a smart contract can hold NFTs\r\nimport \"@openzeppelin/contracts/token/ERC721/extensions/ERC721URIStorage.sol\";\r\nimport \"@openzeppelin/contracts/token/ERC721/utils/ERC721Holder.sol\";\r\n\r\n// NFT Smart Contract Constructor\r\ncontract CollaborativeMinter is ERC721URIStorage, ERC721Holder{\r\n    uint256 public tokenCounter;\r\n    uint256 public currentOwner; // define whose turn it is at the current time with owners index\\\r\n    uint256 public numberOfOwners;\r\n    bool public isMerged; // defines whether we have a composite NFT\r\n    address[] public owners; // keep track of all owners of the NFT\r\n    mapping(address => bool) public isOwner; // used to check if someone is an owner\r\n\r\n    uint256 internal latestReceived; // used to get the msg.value for secondary sales\r\n\r\n    struct SalesTransaction {\r\n      address from; // buyer\r\n      address to; // recipient of token\r\n      uint256[] tokenIds; // tokens for sale\r\n      uint256 value; // price for token\r\n      bool secondarySale; // check if we have a secondary sale\r\n      bool revoked;\r\n      bool executed;\r\n      uint256 numConfirmations;\r\n    }\r\n\r\n    SalesTransaction[] public salesTransactions;\r\n\r\n    mapping(uint => mapping(address => bool)) isConfirmed; // check if a transaction is confirmed by an owner\r\n\r\n    constructor (address[] memory _owners) ERC721 (\"Collaborative Mint\", \"COMINT\"){\r\n      require(_owners.length > 0, \"owners required\");\r\n      tokenCounter = 0;\r\n      numberOfOwners = _owners.length;\r\n      currentOwner = 0; // define the first owner to have an active turn\r\n      isMerged = false;\r\n      for(uint256 i = 0; i < _owners.length; i++){ // define the owners\r\n        owners.push(_owners[i]);\r\n        isOwner[_owners[i]] = true;\r\n      }\r\n    }\r\n\r\n    modifier onlyCurrentOwner { // restrict to only the active owner\r\n      require(msg.sender == owners[currentOwner], \"not your turn\");\r\n      _;\r\n    }\r\n\r\n    modifier onlyOwner { // restrict to only owners\r\n      require(isOwner[msg.sender],'not an owner');\r\n      _;\r\n    }\r\n\r\n    modifier salesTransactionExists(uint256 _txIndex) { // restrict only to transactions that exist\r\n      require(_txIndex < salesTransactions.length, \"sales transaction does not exist\");\r\n      _;\r\n    }\r\n\r\n    modifier salesTransactionNotExecuted(uint256 _txIndex) { // restrict only to transactions that are not executed\r\n      require(!salesTransactions[_txIndex].executed, \"sales transaction is already executed\");\r\n      _;\r\n    }\r\n\r\n    modifier salesTransactionNotConfirmed(uint256 _txIndex) { // restrict only to transactions that are not confirmed by caller\r\n      require(!isConfirmed[_txIndex][msg.sender], \"sales transaction is already confirmed\");\r\n      _;\r\n    }\r\n\r\n    modifier salesTransactionNotRevoked(uint256 _txIndex) {\r\n      require(!salesTransactions[_txIndex].revoked, \"sales transaction is already revoked\");\r\n      _;\r\n    }\r\n\r\n    modifier onlySalesTransactionSender(uint256 _txIndex) { // restrict to the sender of the sales transaction\r\n      require(salesTransactions[_txIndex].from == msg.sender, \"not the sales transaction sender\");\r\n      _;\r\n    }\r\n\r\n    modifier ownedByContract(uint256[] memory _tokenIds) { // check if token IDs are valid and are owned by contract\r\n      for(uint256 i = 0; i < _tokenIds.length; i++){\r\n        require(_tokenIds[i] < tokenCounter, \"invalid token ID\");\r\n        require(_isApprovedOrOwner(address(this),_tokenIds[i]),\"token not owned by contract\");\r\n      }\r\n      _;\r\n    }\r\n\r\n    modifier allOwnedByContract() { // check if all NFTs are owned by the contract\r\n      for(uint256 i = 0; i < tokenCounter; i++){\r\n        require(_isApprovedOrOwner(address(this),i),\"not all tokens owned by contract\");\r\n      }\r\n      _;\r\n    }\r\n\r\n    modifier isNotMerged() { // check if we have a composite NFT\r\n      require(!isMerged, \"NFT is a completed composite\");\r\n      _;\r\n    }\r\n\r\n    modifier hasBeenMinted(){ // check if an NFT has been minted\r\n      require(tokenCounter > 0, \"no NFTs have been minted\");\r\n      _;\r\n    }\r\n\r\n    // NFT minting function where only the current owner can mint. Smart contract holds NFTs upon minting\r\n    function collaborativeMint(string memory _tokenURI) public onlyCurrentOwner isNotMerged returns (uint256) {\r\n      uint256 newItemId = tokenCounter;\r\n      _safeMint(address(this), newItemId); // the owner of the NFT is this smart contract\r\n      _setTokenURI(newItemId, _tokenURI);\r\n      tokenCounter = tokenCounter + 1;\r\n      uint256 nextOwnerId = (currentOwner + 1) % owners.length; // set up the next turn by getting the following ID\r\n      currentOwner = nextOwnerId; // update whose turn it is\r\n      return newItemId;\r\n    }\r\n\r\n    // NFT minting function where only the current owner can mint. Smart contract holds NFTs upon minting\r\n    function _collaborativeMint(string memory _tokenURI) private returns (uint256) {\r\n      uint256 newItemId = tokenCounter;\r\n      _safeMint(address(this), newItemId); // the owner of the NFT is this smart contract\r\n      _setTokenURI(newItemId, _tokenURI);\r\n      tokenCounter = tokenCounter + 1;\r\n      return newItemId;\r\n    }\r\n\r\n    // merge all collaborative mints and create a composite NFT\r\n    function mergeCollaborativeMint(string memory _tokenURI) public onlyOwner\r\n      hasBeenMinted\r\n      isNotMerged\r\n      allOwnedByContract\r\n      returns (bool)\r\n    {\r\n      isMerged = true;\r\n\r\n      // burn all collaborative mints\r\n      for(uint256 i = 0; i < tokenCounter; i++) {\r\n        _burn(i);\r\n      }\r\n\r\n      // create a composite NFT\r\n      _collaborativeMint(_tokenURI);\r\n      return true;\r\n    }\r\n\r\n    receive() external payable {\r\n      latestReceived = msg.value;\r\n    }\r\n\r\n    function submitSalesTransaction(address _to, uint256[] memory _tokenIds)\r\n      payable ownedByContract(_tokenIds) public returns (uint256)\r\n    { // buyer sends sales transaction, returns transaction index\r\n      uint256 txIndex = salesTransactions.length;\r\n\r\n      salesTransactions.push(SalesTransaction({\r\n        from: msg.sender,\r\n        to: _to,\r\n        tokenIds: _tokenIds,\r\n        value: msg.value,\r\n        secondarySale: false,\r\n        revoked: false,\r\n        executed: false,\r\n        numConfirmations: 0\r\n      }));\r\n\r\n      return txIndex;\r\n    }\r\n\r\n    function submitSecondarySalesTransaction(address _to, uint256[] memory _tokenIds, uint256 _value)\r\n      public returns (uint256)\r\n    { // buyer sends sales transaction, returns transaction index\r\n      uint256 txIndex = salesTransactions.length;\r\n\r\n      salesTransactions.push(SalesTransaction({\r\n        from: msg.sender,\r\n        to: _to,\r\n        tokenIds: _tokenIds,\r\n        value: _value,\r\n        secondarySale: true,\r\n        revoked: false,\r\n        executed: false,\r\n        numConfirmations: 0\r\n      }));\r\n\r\n      return txIndex;\r\n    }\r\n\r\n    function approveSalesTransaction(uint256 _txIndex) onlyOwner\r\n      salesTransactionExists(_txIndex)\r\n      salesTransactionNotExecuted(_txIndex)\r\n      salesTransactionNotConfirmed(_txIndex)\r\n      salesTransactionNotRevoked(_txIndex)\r\n      public returns (bool)\r\n    { // owner approves sales transaction\r\n      // update confirmations and number of confirmations\r\n      isConfirmed[_txIndex][msg.sender] = true;\r\n      salesTransactions[_txIndex].numConfirmations += 1;\r\n\r\n      if(salesTransactions[_txIndex].numConfirmations == numberOfOwners){ // execute if approved by all owners\r\n        executeSalesTransaction(_txIndex);\r\n      }\r\n      return true;\r\n    }\r\n\r\n    function denySalesTransaction(uint256 _txIndex) onlyOwner\r\n      salesTransactionExists(_txIndex)\r\n      salesTransactionNotExecuted(_txIndex)\r\n      salesTransactionNotRevoked(_txIndex)\r\n      public returns (bool)\r\n    { // owner denies sales transaction\r\n      // update confirmations and number of confirmations\r\n      require(isConfirmed[_txIndex][msg.sender], \"sales transaction not approved by owner\");\r\n      isConfirmed[_txIndex][msg.sender] = false;\r\n      salesTransactions[_txIndex].numConfirmations -= 1;\r\n      return true;\r\n    }\r\n\r\n    // sender revoke sales transaction to get ETH back\r\n    function revokeSalesTransaction(uint256 _txIndex) public\r\n      salesTransactionExists(_txIndex)\r\n      salesTransactionNotExecuted(_txIndex)\r\n      salesTransactionNotRevoked(_txIndex)\r\n      returns (bool)\r\n    {\r\n      require(salesTransactions[_txIndex].from == msg.sender, \"must be account that submitted sales transaction\");\r\n      uint256 amountToPay = salesTransactions[_txIndex].value;\r\n      bool success;\r\n      (success, ) = salesTransactions[_txIndex].from.call{value: amountToPay}(\"\");\r\n      require(success, \"Transfer failed.\");\r\n      salesTransactions[_txIndex].revoked = true;\r\n      return true;\r\n    }\r\n\r\n    function executeSalesTransaction(uint _txIndex) private returns (bool) {\r\n      uint256[] memory tokens = salesTransactions[_txIndex].tokenIds;\r\n\r\n      if(salesTransactions[_txIndex].secondarySale == false) { // initial sale\r\n        // send ETH to each owner\r\n        uint256 amountToPay = salesTransactions[_txIndex].value / numberOfOwners;\r\n        bool success;\r\n        // pay each owner\r\n        for(uint256 i = 0; i < numberOfOwners; i++){\r\n          (success, ) = owners[i].call{value:amountToPay}(\"\");\r\n          require(success, \"Transfer failed.\");\r\n        }\r\n      }\r\n      else { // secondary sale\r\n        // apply secondary sale fee and send ETH to each owner\r\n        uint256 secondarySaleValue = salesTransactions[_txIndex].value / 10; // 10% goes to owners\r\n        uint256 amountToPay = secondarySaleValue / numberOfOwners;\r\n        bool success;\r\n        // pay each owner\r\n        for(uint256 i = 0; i < numberOfOwners; i++){\r\n          (success, ) = owners[i].call{value:amountToPay}(\"\");\r\n          require(success, \"Transfer failed.\");\r\n        }\r\n      }\r\n\r\n      // send each NFT from this smart contract to the new owner\r\n      for(uint256 i = 0; i < tokens.length; i++){\r\n        _safeTransfer(address(this), salesTransactions[_txIndex].to, tokens[i], \"\");\r\n      }\r\n\r\n      salesTransactions[_txIndex].executed = true;\r\n      return true;\r\n    }\r\n\r\n    // Override safeTransferFrom to allow for royalties from secondary sales\r\n    function safeTransferFrom(\r\n        address from,\r\n        address to,\r\n        uint256 tokenId\r\n    ) public virtual override {\r\n      require(_isApprovedOrOwner(_msgSender(), tokenId), \"ERC721: transfer caller is not owner nor approved\");\r\n      // create a secondary sales transaction, send NFT to contract, execute secondary sale\r\n      uint256[] memory tokenIdArray = new uint256[](1);\r\n      tokenIdArray[0] = tokenId;\r\n      uint256 secondarySaleId = submitSecondarySalesTransaction(to, tokenIdArray, latestReceived);\r\n      _safeTransfer(from, address(this), tokenId, \"\");\r\n      executeSalesTransaction(secondarySaleId);\r\n    }\r\n\r\n    // Override safeTransferFrom to allow for royalties from secondary sales\r\n    function safeTransferFrom(\r\n        address from,\r\n        address to,\r\n        uint256 tokenId,\r\n        bytes memory _data\r\n    ) public virtual override {\r\n        require(_isApprovedOrOwner(_msgSender(), tokenId), \"ERC721: transfer caller is not owner nor approved\");\r\n        // create a secondary sales transaction, send NFT to contract, execute secondary sale\r\n        uint256[] memory tokenIdArray = new uint256[](1);\r\n        tokenIdArray[0] = tokenId;\r\n        uint256 secondarySaleId = submitSecondarySalesTransaction(to, tokenIdArray, latestReceived);\r\n        _safeTransfer(from, address(this), tokenId, _data);\r\n        executeSalesTransaction(secondarySaleId);\r\n    }\r\n\r\n    // Override transferFrom to allow for royalties from secondary sales\r\n    function transferFrom(\r\n        address from,\r\n        address to,\r\n        uint256 tokenId\r\n    ) public virtual override {\r\n        // create a secondary sales transaction, send NFT to contract, execute secondary sale\r\n        uint256[] memory tokenIdArray = new uint256[](1);\r\n        tokenIdArray[0] = tokenId;\r\n        uint256 secondarySaleId = submitSecondarySalesTransaction(to, tokenIdArray, latestReceived);\r\n        _transfer(from, address(this), tokenId);\r\n        executeSalesTransaction(secondarySaleId);\r\n    }\r\n\r\n    function getSalesTransaction(uint256 _txIndex) public view returns (SalesTransaction memory) {\r\n      return salesTransactions[_txIndex];\r\n    }\r\n\r\n}\r\n",
  "sourcePath": "C:/Users/Gilberto Guadiana/Desktop/BlockchainSummerResearch/SummerResearchGithub/CollaborativeMinter/src/contracts/CollaborativeMinter.sol",
  "compiler": {
    "name": "solc",
    "version": "0.8.7+commit.e28d00a7.Emscripten.clang"
  },
  "schemaVersion": "3.4.1",
  "updatedAt": "2021-08-22T01:32:59.551Z",
  "devdoc": {
    "kind": "dev",
    "methods": {
      "approve(address,uint256)": {
        "details": "See {IERC721-approve}."
      },
      "balanceOf(address)": {
        "details": "See {IERC721-balanceOf}."
      },
      "getApproved(uint256)": {
        "details": "See {IERC721-getApproved}."
      },
      "isApprovedForAll(address,address)": {
        "details": "See {IERC721-isApprovedForAll}."
      },
      "name()": {
        "details": "See {IERC721Metadata-name}."
      },
      "onERC721Received(address,address,uint256,bytes)": {
        "details": "See {IERC721Receiver-onERC721Received}. Always returns `IERC721Receiver.onERC721Received.selector`."
      },
      "ownerOf(uint256)": {
        "details": "See {IERC721-ownerOf}."
      },
      "safeTransferFrom(address,address,uint256)": {
        "details": "See {IERC721-safeTransferFrom}."
      },
      "safeTransferFrom(address,address,uint256,bytes)": {
        "details": "See {IERC721-safeTransferFrom}."
      },
      "setApprovalForAll(address,bool)": {
        "details": "See {IERC721-setApprovalForAll}."
      },
      "supportsInterface(bytes4)": {
        "details": "See {IERC165-supportsInterface}."
      },
      "symbol()": {
        "details": "See {IERC721Metadata-symbol}."
      },
      "tokenURI(uint256)": {
        "details": "See {IERC721Metadata-tokenURI}."
      },
      "transferFrom(address,address,uint256)": {
        "details": "See {IERC721-transferFrom}."
      }
    },
    "version": 1
  },
  "userdoc": {
    "kind": "user",
    "methods": {},
    "version": 1
  }
}