{
  "contractName": "SimpleCollectible",
  "abi": [
    {
      "inputs": [],
      "stateMutability": "nonpayable",
      "type": "constructor"
    },
    {
      "anonymous": false,
      "inputs": [
        {
          "indexed": true,
          "internalType": "address",
          "name": "owner",
          "type": "address"
        },
        {
          "indexed": true,
          "internalType": "address",
          "name": "approved",
          "type": "address"
        },
        {
          "indexed": true,
          "internalType": "uint256",
          "name": "tokenId",
          "type": "uint256"
        }
      ],
      "name": "Approval",
      "type": "event"
    },
    {
      "anonymous": false,
      "inputs": [
        {
          "indexed": true,
          "internalType": "address",
          "name": "owner",
          "type": "address"
        },
        {
          "indexed": true,
          "internalType": "address",
          "name": "operator",
          "type": "address"
        },
        {
          "indexed": false,
          "internalType": "bool",
          "name": "approved",
          "type": "bool"
        }
      ],
      "name": "ApprovalForAll",
      "type": "event"
    },
    {
      "anonymous": false,
      "inputs": [
        {
          "indexed": true,
          "internalType": "address",
          "name": "from",
          "type": "address"
        },
        {
          "indexed": true,
          "internalType": "address",
          "name": "to",
          "type": "address"
        },
        {
          "indexed": true,
          "internalType": "uint256",
          "name": "tokenId",
          "type": "uint256"
        }
      ],
      "name": "Transfer",
      "type": "event"
    },
    {
      "inputs": [
        {
          "internalType": "address",
          "name": "to",
          "type": "address"
        },
        {
          "internalType": "uint256",
          "name": "tokenId",
          "type": "uint256"
        }
      ],
      "name": "approve",
      "outputs": [],
      "stateMutability": "nonpayable",
      "type": "function"
    },
    {
      "inputs": [
        {
          "internalType": "address",
          "name": "owner",
          "type": "address"
        }
      ],
      "name": "balanceOf",
      "outputs": [
        {
          "internalType": "uint256",
          "name": "",
          "type": "uint256"
        }
      ],
      "stateMutability": "view",
      "type": "function",
      "constant": true
    },
    {
      "inputs": [
        {
          "internalType": "uint256",
          "name": "tokenId",
          "type": "uint256"
        }
      ],
      "name": "getApproved",
      "outputs": [
        {
          "internalType": "address",
          "name": "",
          "type": "address"
        }
      ],
      "stateMutability": "view",
      "type": "function",
      "constant": true
    },
    {
      "inputs": [
        {
          "internalType": "address",
          "name": "owner",
          "type": "address"
        },
        {
          "internalType": "address",
          "name": "operator",
          "type": "address"
        }
      ],
      "name": "isApprovedForAll",
      "outputs": [
        {
          "internalType": "bool",
          "name": "",
          "type": "bool"
        }
      ],
      "stateMutability": "view",
      "type": "function",
      "constant": true
    },
    {
      "inputs": [],
      "name": "name",
      "outputs": [
        {
          "internalType": "string",
          "name": "",
          "type": "string"
        }
      ],
      "stateMutability": "view",
      "type": "function",
      "constant": true
    },
    {
      "inputs": [
        {
          "internalType": "uint256",
          "name": "tokenId",
          "type": "uint256"
        }
      ],
      "name": "ownerOf",
      "outputs": [
        {
          "internalType": "address",
          "name": "",
          "type": "address"
        }
      ],
      "stateMutability": "view",
      "type": "function",
      "constant": true
    },
    {
      "inputs": [
        {
          "internalType": "address",
          "name": "from",
          "type": "address"
        },
        {
          "internalType": "address",
          "name": "to",
          "type": "address"
        },
        {
          "internalType": "uint256",
          "name": "tokenId",
          "type": "uint256"
        }
      ],
      "name": "safeTransferFrom",
      "outputs": [],
      "stateMutability": "nonpayable",
      "type": "function"
    },
    {
      "inputs": [
        {
          "internalType": "address",
          "name": "from",
          "type": "address"
        },
        {
          "internalType": "address",
          "name": "to",
          "type": "address"
        },
        {
          "internalType": "uint256",
          "name": "tokenId",
          "type": "uint256"
        },
        {
          "internalType": "bytes",
          "name": "_data",
          "type": "bytes"
        }
      ],
      "name": "safeTransferFrom",
      "outputs": [],
      "stateMutability": "nonpayable",
      "type": "function"
    },
    {
      "inputs": [
        {
          "internalType": "address",
          "name": "operator",
          "type": "address"
        },
        {
          "internalType": "bool",
          "name": "approved",
          "type": "bool"
        }
      ],
      "name": "setApprovalForAll",
      "outputs": [],
      "stateMutability": "nonpayable",
      "type": "function"
    },
    {
      "inputs": [
        {
          "internalType": "bytes4",
          "name": "interfaceId",
          "type": "bytes4"
        }
      ],
      "name": "supportsInterface",
      "outputs": [
        {
          "internalType": "bool",
          "name": "",
          "type": "bool"
        }
      ],
      "stateMutability": "view",
      "type": "function",
      "constant": true
    },
    {
      "inputs": [],
      "name": "symbol",
      "outputs": [
        {
          "internalType": "string",
          "name": "",
          "type": "string"
        }
      ],
      "stateMutability": "view",
      "type": "function",
      "constant": true
    },
    {
      "inputs": [],
      "name": "tokenCounter",
      "outputs": [
        {
          "internalType": "uint256",
          "name": "",
          "type": "uint256"
        }
      ],
      "stateMutability": "view",
      "type": "function",
      "constant": true
    },
    {
      "inputs": [
        {
          "internalType": "uint256",
          "name": "tokenId",
          "type": "uint256"
        }
      ],
      "name": "tokenURI",
      "outputs": [
        {
          "internalType": "string",
          "name": "",
          "type": "string"
        }
      ],
      "stateMutability": "view",
      "type": "function",
      "constant": true
    },
    {
      "inputs": [
        {
          "internalType": "address",
          "name": "from",
          "type": "address"
        },
        {
          "internalType": "address",
          "name": "to",
          "type": "address"
        },
        {
          "internalType": "uint256",
          "name": "tokenId",
          "type": "uint256"
        }
      ],
      "name": "transferFrom",
      "outputs": [],
      "stateMutability": "nonpayable",
      "type": "function"
    },
    {
      "inputs": [
        {
          "internalType": "string",
          "name": "tokenURI",
          "type": "string"
        }
      ],
      "name": "createCollectible",
      "outputs": [
        {
          "internalType": "uint256",
          "name": "",
          "type": "uint256"
        }
      ],
      "stateMutability": "nonpayable",
      "type": "function"
    }
  ],
  "bytecode": "0x60806040523480156200001157600080fd5b506040518060400160405280601081526020017f436f6c6c61626f726174697665417274000000000000000000000000000000008152506040518060400160405280600481526020017f4341525400000000000000000000000000000000000000000000000000000000815250816000908051906020019062000096929190620000c0565b508060019080519060200190620000af929190620000c0565b5050506000600781905550620001d5565b828054620000ce9062000170565b90600052602060002090601f016020900481019282620000f257600085556200013e565b82601f106200010d57805160ff19168380011785556200013e565b828001600101855582156200013e579182015b828111156200013d57825182559160200191906001019062000120565b5b5090506200014d919062000151565b5090565b5b808211156200016c57600081600090555060010162000152565b5090565b600060028204905060018216806200018957607f821691505b60208210811415620001a0576200019f620001a6565b5b50919050565b7f4e487b7100000000000000000000000000000000000000000000000000000000600052602260045260246000fd5b612c1680620001e56000396000f3fe608060405234801561001057600080fd5b50600436106100f55760003560e01c80636352211e11610097578063b88d4fde11610066578063b88d4fde14610296578063c87b56dd146102b2578063d082e381146102e2578063e985e9c514610300576100f5565b80636352211e146101fc57806370a082311461022c57806395d89b411461025c578063a22cb4651461027a576100f5565b8063095ea7b3116100d3578063095ea7b31461017857806323b872dd1461019457806331f1f3c3146101b057806342842e0e146101e0576100f5565b806301ffc9a7146100fa57806306fdde031461012a578063081812fc14610148575b600080fd5b610114600480360381019061010f9190611c2b565b610330565b6040516101219190612086565b60405180910390f35b610132610412565b60405161013f91906120a1565b60405180910390f35b610162600480360381019061015d9190611cce565b6104a4565b60405161016f919061201f565b60405180910390f35b610192600480360381019061018d9190611beb565b610529565b005b6101ae60048036038101906101a99190611ad5565b610641565b005b6101ca60048036038101906101c59190611c85565b6106a1565b6040516101d791906122c3565b60405180910390f35b6101fa60048036038101906101f59190611ad5565b6106db565b005b61021660048036038101906102119190611cce565b6106fb565b604051610223919061201f565b60405180910390f35b61024660048036038101906102419190611a68565b6107ad565b60405161025391906122c3565b60405180910390f35b610264610865565b60405161027191906120a1565b60405180910390f35b610294600480360381019061028f9190611bab565b6108f7565b005b6102b060048036038101906102ab9190611b28565b610a78565b005b6102cc60048036038101906102c79190611cce565b610ada565b6040516102d991906120a1565b60405180910390f35b6102ea610c2c565b6040516102f791906122c3565b60405180910390f35b61031a60048036038101906103159190611a95565b610c32565b6040516103279190612086565b60405180910390f35b60007f80ac58cd000000000000000000000000000000000000000000000000000000007bffffffffffffffffffffffffffffffffffffffffffffffffffffffff1916827bffffffffffffffffffffffffffffffffffffffffffffffffffffffff191614806103fb57507f5b5e139f000000000000000000000000000000000000000000000000000000007bffffffffffffffffffffffffffffffffffffffffffffffffffffffff1916827bffffffffffffffffffffffffffffffffffffffffffffffffffffffff1916145b8061040b575061040a82610cc6565b5b9050919050565b60606000805461042190612519565b80601f016020809104026020016040519081016040528092919081815260200182805461044d90612519565b801561049a5780601f1061046f5761010080835404028352916020019161049a565b820191906000526020600020905b81548152906001019060200180831161047d57829003601f168201915b5050505050905090565b60006104af82610d30565b6104ee576040517f08c379a00000000000000000000000000000000000000000000000000000000081526004016104e590612223565b60405180910390fd5b6004600083815260200190815260200160002060009054906101000a900473ffffffffffffffffffffffffffffffffffffffff169050919050565b6000610534826106fb565b90508073ffffffffffffffffffffffffffffffffffffffff168373ffffffffffffffffffffffffffffffffffffffff1614156105a5576040517f08c379a000000000000000000000000000000000000000000000000000000000815260040161059c90612283565b60405180910390fd5b8073ffffffffffffffffffffffffffffffffffffffff166105c4610d9c565b73ffffffffffffffffffffffffffffffffffffffff1614806105f357506105f2816105ed610d9c565b610c32565b5b610632576040517f08c379a000000000000000000000000000000000000000000000000000000000815260040161062990612163565b60405180910390fd5b61063c8383610da4565b505050565b61065261064c610d9c565b82610e5d565b610691576040517f08c379a0000000000000000000000000000000000000000000000000000000008152600401610688906122a3565b60405180910390fd5b61069c838383610f3b565b505050565b60008060075490506106b33382611197565b6106bd81846111b5565b60016007546106cc91906123a8565b60078190555080915050919050565b6106f683838360405180602001604052806000815250610a78565b505050565b6000806002600084815260200190815260200160002060009054906101000a900473ffffffffffffffffffffffffffffffffffffffff169050600073ffffffffffffffffffffffffffffffffffffffff168173ffffffffffffffffffffffffffffffffffffffff1614156107a4576040517f08c379a000000000000000000000000000000000000000000000000000000000815260040161079b906121a3565b60405180910390fd5b80915050919050565b60008073ffffffffffffffffffffffffffffffffffffffff168273ffffffffffffffffffffffffffffffffffffffff16141561081e576040517f08c379a000000000000000000000000000000000000000000000000000000000815260040161081590612183565b60405180910390fd5b600360008373ffffffffffffffffffffffffffffffffffffffff1673ffffffffffffffffffffffffffffffffffffffff168152602001908152602001600020549050919050565b60606001805461087490612519565b80601f01602080910402602001604051908101604052809291908181526020018280546108a090612519565b80156108ed5780601f106108c2576101008083540402835291602001916108ed565b820191906000526020600020905b8154815290600101906020018083116108d057829003601f168201915b5050505050905090565b6108ff610d9c565b73ffffffffffffffffffffffffffffffffffffffff168273ffffffffffffffffffffffffffffffffffffffff16141561096d576040517f08c379a000000000000000000000000000000000000000000000000000000000815260040161096490612123565b60405180910390fd5b806005600061097a610d9c565b73ffffffffffffffffffffffffffffffffffffffff1673ffffffffffffffffffffffffffffffffffffffff16815260200190815260200160002060008473ffffffffffffffffffffffffffffffffffffffff1673ffffffffffffffffffffffffffffffffffffffff16815260200190815260200160002060006101000a81548160ff0219169083151502179055508173ffffffffffffffffffffffffffffffffffffffff16610a27610d9c565b73ffffffffffffffffffffffffffffffffffffffff167f17307eab39ab6107e8899845ad3d59bd9653f200f220920489ca2b5937696c3183604051610a6c9190612086565b60405180910390a35050565b610a89610a83610d9c565b83610e5d565b610ac8576040517f08c379a0000000000000000000000000000000000000000000000000000000008152600401610abf906122a3565b60405180910390fd5b610ad484848484611229565b50505050565b6060610ae582610d30565b610b24576040517f08c379a0000000000000000000000000000000000000000000000000000000008152600401610b1b90612203565b60405180910390fd5b6000600660008481526020019081526020016000208054610b4490612519565b80601f0160208091040260200160405190810160405280929190818152602001828054610b7090612519565b8015610bbd5780601f10610b9257610100808354040283529160200191610bbd565b820191906000526020600020905b815481529060010190602001808311610ba057829003601f168201915b505050505090506000610bce611285565b9050600081511415610be4578192505050610c27565b600082511115610c19578082604051602001610c01929190611ffb565b60405160208183030381529060405292505050610c27565b610c228461129c565b925050505b919050565b60075481565b6000600560008473ffffffffffffffffffffffffffffffffffffffff1673ffffffffffffffffffffffffffffffffffffffff16815260200190815260200160002060008373ffffffffffffffffffffffffffffffffffffffff1673ffffffffffffffffffffffffffffffffffffffff16815260200190815260200160002060009054906101000a900460ff16905092915050565b60007f01ffc9a7000000000000000000000000000000000000000000000000000000007bffffffffffffffffffffffffffffffffffffffffffffffffffffffff1916827bffffffffffffffffffffffffffffffffffffffffffffffffffffffff1916149050919050565b60008073ffffffffffffffffffffffffffffffffffffffff166002600084815260200190815260200160002060009054906101000a900473ffffffffffffffffffffffffffffffffffffffff1673ffffffffffffffffffffffffffffffffffffffff1614159050919050565b600033905090565b816004600083815260200190815260200160002060006101000a81548173ffffffffffffffffffffffffffffffffffffffff021916908373ffffffffffffffffffffffffffffffffffffffff160217905550808273ffffffffffffffffffffffffffffffffffffffff16610e17836106fb565b73ffffffffffffffffffffffffffffffffffffffff167f8c5be1e5ebec7d5bd14f71427d1e84f3dd0314c0f7b2291e5b200ac8c7c3b92560405160405180910390a45050565b6000610e6882610d30565b610ea7576040517f08c379a0000000000000000000000000000000000000000000000000000000008152600401610e9e90612143565b60405180910390fd5b6000610eb2836106fb565b90508073ffffffffffffffffffffffffffffffffffffffff168473ffffffffffffffffffffffffffffffffffffffff161480610f2157508373ffffffffffffffffffffffffffffffffffffffff16610f09846104a4565b73ffffffffffffffffffffffffffffffffffffffff16145b80610f325750610f318185610c32565b5b91505092915050565b8273ffffffffffffffffffffffffffffffffffffffff16610f5b826106fb565b73ffffffffffffffffffffffffffffffffffffffff1614610fb1576040517f08c379a0000000000000000000000000000000000000000000000000000000008152600401610fa890612243565b60405180910390fd5b600073ffffffffffffffffffffffffffffffffffffffff168273ffffffffffffffffffffffffffffffffffffffff161415611021576040517f08c379a000000000000000000000000000000000000000000000000000000000815260040161101890612103565b60405180910390fd5b61102c838383611343565b611037600082610da4565b6001600360008573ffffffffffffffffffffffffffffffffffffffff1673ffffffffffffffffffffffffffffffffffffffff1681526020019081526020016000206000828254611087919061242f565b925050819055506001600360008473ffffffffffffffffffffffffffffffffffffffff1673ffffffffffffffffffffffffffffffffffffffff16815260200190815260200160002060008282546110de91906123a8565b92505081905550816002600083815260200190815260200160002060006101000a81548173ffffffffffffffffffffffffffffffffffffffff021916908373ffffffffffffffffffffffffffffffffffffffff160217905550808273ffffffffffffffffffffffffffffffffffffffff168473ffffffffffffffffffffffffffffffffffffffff167fddf252ad1be2c89b69c2b068fc378daa952ba7f163c4a11628f55a4df523b3ef60405160405180910390a4505050565b6111b1828260405180602001604052806000815250611348565b5050565b6111be82610d30565b6111fd576040517f08c379a00000000000000000000000000000000000000000000000000000000081526004016111f4906121c3565b60405180910390fd5b8060066000848152602001908152602001600020908051906020019061122492919061187c565b505050565b611234848484610f3b565b611240848484846113a3565b61127f576040517f08c379a0000000000000000000000000000000000000000000000000000000008152600401611276906120c3565b60405180910390fd5b50505050565b606060405180602001604052806000815250905090565b60606112a782610d30565b6112e6576040517f08c379a00000000000000000000000000000000000000000000000000000000081526004016112dd90612263565b60405180910390fd5b60006112f0611285565b90506000815111611310576040518060200160405280600081525061133b565b8061131a8461153a565b60405160200161132b929190611ffb565b6040516020818303038152906040525b915050919050565b505050565b611352838361169b565b61135f60008484846113a3565b61139e576040517f08c379a0000000000000000000000000000000000000000000000000000000008152600401611395906120c3565b60405180910390fd5b505050565b60006113c48473ffffffffffffffffffffffffffffffffffffffff16611869565b1561152d578373ffffffffffffffffffffffffffffffffffffffff1663150b7a026113ed610d9c565b8786866040518563ffffffff1660e01b815260040161140f949392919061203a565b602060405180830381600087803b15801561142957600080fd5b505af192505050801561145a57506040513d601f19601f820116820180604052508101906114579190611c58565b60015b6114dd573d806000811461148a576040519150601f19603f3d011682016040523d82523d6000602084013e61148f565b606091505b506000815114156114d5576040517f08c379a00000000000000000000000000000000000000000000000000000000081526004016114cc906120c3565b60405180910390fd5b805181602001fd5b63150b7a0260e01b7bffffffffffffffffffffffffffffffffffffffffffffffffffffffff1916817bffffffffffffffffffffffffffffffffffffffffffffffffffffffff191614915050611532565b600190505b949350505050565b60606000821415611582576040518060400160405280600181526020017f30000000000000000000000000000000000000000000000000000000000000008152509050611696565b600082905060005b600082146115b457808061159d9061257c565b915050600a826115ad91906123fe565b915061158a565b60008167ffffffffffffffff8111156115d0576115cf6126b2565b5b6040519080825280601f01601f1916602001820160405280156116025781602001600182028036833780820191505090505b5090505b6000851461168f5760018261161b919061242f565b9150600a8561162a91906125c5565b603061163691906123a8565b60f81b81838151811061164c5761164b612683565b5b60200101907effffffffffffffffffffffffffffffffffffffffffffffffffffffffffffff1916908160001a905350600a8561168891906123fe565b9450611606565b8093505050505b919050565b600073ffffffffffffffffffffffffffffffffffffffff168273ffffffffffffffffffffffffffffffffffffffff16141561170b576040517f08c379a0000000000000000000000000000000000000000000000000000000008152600401611702906121e3565b60405180910390fd5b61171481610d30565b15611754576040517f08c379a000000000000000000000000000000000000000000000000000000000815260040161174b906120e3565b60405180910390fd5b61176060008383611343565b6001600360008473ffffffffffffffffffffffffffffffffffffffff1673ffffffffffffffffffffffffffffffffffffffff16815260200190815260200160002060008282546117b091906123a8565b92505081905550816002600083815260200190815260200160002060006101000a81548173ffffffffffffffffffffffffffffffffffffffff021916908373ffffffffffffffffffffffffffffffffffffffff160217905550808273ffffffffffffffffffffffffffffffffffffffff16600073ffffffffffffffffffffffffffffffffffffffff167fddf252ad1be2c89b69c2b068fc378daa952ba7f163c4a11628f55a4df523b3ef60405160405180910390a45050565b600080823b905060008111915050919050565b82805461188890612519565b90600052602060002090601f0160209004810192826118aa57600085556118f1565b82601f106118c357805160ff19168380011785556118f1565b828001600101855582156118f1579182015b828111156118f05782518255916020019190600101906118d5565b5b5090506118fe9190611902565b5090565b5b8082111561191b576000816000905550600101611903565b5090565b600061193261192d84612303565b6122de565b90508281526020810184848401111561194e5761194d6126e6565b5b6119598482856124d7565b509392505050565b600061197461196f84612334565b6122de565b9050828152602081018484840111156119905761198f6126e6565b5b61199b8482856124d7565b509392505050565b6000813590506119b281612b84565b92915050565b6000813590506119c781612b9b565b92915050565b6000813590506119dc81612bb2565b92915050565b6000815190506119f181612bb2565b92915050565b600082601f830112611a0c57611a0b6126e1565b5b8135611a1c84826020860161191f565b91505092915050565b600082601f830112611a3a57611a396126e1565b5b8135611a4a848260208601611961565b91505092915050565b600081359050611a6281612bc9565b92915050565b600060208284031215611a7e57611a7d6126f0565b5b6000611a8c848285016119a3565b91505092915050565b60008060408385031215611aac57611aab6126f0565b5b6000611aba858286016119a3565b9250506020611acb858286016119a3565b9150509250929050565b600080600060608486031215611aee57611aed6126f0565b5b6000611afc868287016119a3565b9350506020611b0d868287016119a3565b9250506040611b1e86828701611a53565b9150509250925092565b60008060008060808587031215611b4257611b416126f0565b5b6000611b50878288016119a3565b9450506020611b61878288016119a3565b9350506040611b7287828801611a53565b925050606085013567ffffffffffffffff811115611b9357611b926126eb565b5b611b9f878288016119f7565b91505092959194509250565b60008060408385031215611bc257611bc16126f0565b5b6000611bd0858286016119a3565b9250506020611be1858286016119b8565b9150509250929050565b60008060408385031215611c0257611c016126f0565b5b6000611c10858286016119a3565b9250506020611c2185828601611a53565b9150509250929050565b600060208284031215611c4157611c406126f0565b5b6000611c4f848285016119cd565b91505092915050565b600060208284031215611c6e57611c6d6126f0565b5b6000611c7c848285016119e2565b91505092915050565b600060208284031215611c9b57611c9a6126f0565b5b600082013567ffffffffffffffff811115611cb957611cb86126eb565b5b611cc584828501611a25565b91505092915050565b600060208284031215611ce457611ce36126f0565b5b6000611cf284828501611a53565b91505092915050565b611d0481612463565b82525050565b611d1381612475565b82525050565b6000611d2482612365565b611d2e818561237b565b9350611d3e8185602086016124e6565b611d47816126f5565b840191505092915050565b6000611d5d82612370565b611d67818561238c565b9350611d778185602086016124e6565b611d80816126f5565b840191505092915050565b6000611d9682612370565b611da0818561239d565b9350611db08185602086016124e6565b80840191505092915050565b6000611dc960328361238c565b9150611dd482612706565b604082019050919050565b6000611dec601c8361238c565b9150611df782612755565b602082019050919050565b6000611e0f60248361238c565b9150611e1a8261277e565b604082019050919050565b6000611e3260198361238c565b9150611e3d826127cd565b602082019050919050565b6000611e55602c8361238c565b9150611e60826127f6565b604082019050919050565b6000611e7860388361238c565b9150611e8382612845565b604082019050919050565b6000611e9b602a8361238c565b9150611ea682612894565b604082019050919050565b6000611ebe60298361238c565b9150611ec9826128e3565b604082019050919050565b6000611ee1602e8361238c565b9150611eec82612932565b604082019050919050565b6000611f0460208361238c565b9150611f0f82612981565b602082019050919050565b6000611f2760318361238c565b9150611f32826129aa565b604082019050919050565b6000611f4a602c8361238c565b9150611f55826129f9565b604082019050919050565b6000611f6d60298361238c565b9150611f7882612a48565b604082019050919050565b6000611f90602f8361238c565b9150611f9b82612a97565b604082019050919050565b6000611fb360218361238c565b9150611fbe82612ae6565b604082019050919050565b6000611fd660318361238c565b9150611fe182612b35565b604082019050919050565b611ff5816124cd565b82525050565b60006120078285611d8b565b91506120138284611d8b565b91508190509392505050565b60006020820190506120346000830184611cfb565b92915050565b600060808201905061204f6000830187611cfb565b61205c6020830186611cfb565b6120696040830185611fec565b818103606083015261207b8184611d19565b905095945050505050565b600060208201905061209b6000830184611d0a565b92915050565b600060208201905081810360008301526120bb8184611d52565b905092915050565b600060208201905081810360008301526120dc81611dbc565b9050919050565b600060208201905081810360008301526120fc81611ddf565b9050919050565b6000602082019050818103600083015261211c81611e02565b9050919050565b6000602082019050818103600083015261213c81611e25565b9050919050565b6000602082019050818103600083015261215c81611e48565b9050919050565b6000602082019050818103600083015261217c81611e6b565b9050919050565b6000602082019050818103600083015261219c81611e8e565b9050919050565b600060208201905081810360008301526121bc81611eb1565b9050919050565b600060208201905081810360008301526121dc81611ed4565b9050919050565b600060208201905081810360008301526121fc81611ef7565b9050919050565b6000602082019050818103600083015261221c81611f1a565b9050919050565b6000602082019050818103600083015261223c81611f3d565b9050919050565b6000602082019050818103600083015261225c81611f60565b9050919050565b6000602082019050818103600083015261227c81611f83565b9050919050565b6000602082019050818103600083015261229c81611fa6565b9050919050565b600060208201905081810360008301526122bc81611fc9565b9050919050565b60006020820190506122d86000830184611fec565b92915050565b60006122e86122f9565b90506122f4828261254b565b919050565b6000604051905090565b600067ffffffffffffffff82111561231e5761231d6126b2565b5b612327826126f5565b9050602081019050919050565b600067ffffffffffffffff82111561234f5761234e6126b2565b5b612358826126f5565b9050602081019050919050565b600081519050919050565b600081519050919050565b600082825260208201905092915050565b600082825260208201905092915050565b600081905092915050565b60006123b3826124cd565b91506123be836124cd565b9250827fffffffffffffffffffffffffffffffffffffffffffffffffffffffffffffffff038211156123f3576123f26125f6565b5b828201905092915050565b6000612409826124cd565b9150612414836124cd565b92508261242457612423612625565b5b828204905092915050565b600061243a826124cd565b9150612445836124cd565b925082821015612458576124576125f6565b5b828203905092915050565b600061246e826124ad565b9050919050565b60008115159050919050565b60007fffffffff0000000000000000000000000000000000000000000000000000000082169050919050565b600073ffffffffffffffffffffffffffffffffffffffff82169050919050565b6000819050919050565b82818337600083830152505050565b60005b838110156125045780820151818401526020810190506124e9565b83811115612513576000848401525b50505050565b6000600282049050600182168061253157607f821691505b6020821081141561254557612544612654565b5b50919050565b612554826126f5565b810181811067ffffffffffffffff82111715612573576125726126b2565b5b80604052505050565b6000612587826124cd565b91507fffffffffffffffffffffffffffffffffffffffffffffffffffffffffffffffff8214156125ba576125b96125f6565b5b600182019050919050565b60006125d0826124cd565b91506125db836124cd565b9250826125eb576125ea612625565b5b828206905092915050565b7f4e487b7100000000000000000000000000000000000000000000000000000000600052601160045260246000fd5b7f4e487b7100000000000000000000000000000000000000000000000000000000600052601260045260246000fd5b7f4e487b7100000000000000000000000000000000000000000000000000000000600052602260045260246000fd5b7f4e487b7100000000000000000000000000000000000000000000000000000000600052603260045260246000fd5b7f4e487b7100000000000000000000000000000000000000000000000000000000600052604160045260246000fd5b600080fd5b600080fd5b600080fd5b600080fd5b6000601f19601f8301169050919050565b7f4552433732313a207472616e7366657220746f206e6f6e20455243373231526560008201527f63656976657220696d706c656d656e7465720000000000000000000000000000602082015250565b7f4552433732313a20746f6b656e20616c7265616479206d696e74656400000000600082015250565b7f4552433732313a207472616e7366657220746f20746865207a65726f2061646460008201527f7265737300000000000000000000000000000000000000000000000000000000602082015250565b7f4552433732313a20617070726f766520746f2063616c6c657200000000000000600082015250565b7f4552433732313a206f70657261746f7220717565727920666f72206e6f6e657860008201527f697374656e7420746f6b656e0000000000000000000000000000000000000000602082015250565b7f4552433732313a20617070726f76652063616c6c6572206973206e6f74206f7760008201527f6e6572206e6f7220617070726f76656420666f7220616c6c0000000000000000602082015250565b7f4552433732313a2062616c616e636520717565727920666f7220746865207a6560008201527f726f206164647265737300000000000000000000000000000000000000000000602082015250565b7f4552433732313a206f776e657220717565727920666f72206e6f6e657869737460008201527f656e7420746f6b656e0000000000000000000000000000000000000000000000602082015250565b7f45524337323155524953746f726167653a2055524920736574206f66206e6f6e60008201527f6578697374656e7420746f6b656e000000000000000000000000000000000000602082015250565b7f4552433732313a206d696e7420746f20746865207a65726f2061646472657373600082015250565b7f45524337323155524953746f726167653a2055524920717565727920666f722060008201527f6e6f6e6578697374656e7420746f6b656e000000000000000000000000000000602082015250565b7f4552433732313a20617070726f76656420717565727920666f72206e6f6e657860008201527f697374656e7420746f6b656e0000000000000000000000000000000000000000602082015250565b7f4552433732313a207472616e73666572206f6620746f6b656e2074686174206960008201527f73206e6f74206f776e0000000000000000000000000000000000000000000000602082015250565b7f4552433732314d657461646174613a2055524920717565727920666f72206e6f60008201527f6e6578697374656e7420746f6b656e0000000000000000000000000000000000602082015250565b7f4552433732313a20617070726f76616c20746f2063757272656e74206f776e6560008201527f7200000000000000000000000000000000000000000000000000000000000000602082015250565b7f4552433732313a207472616e736665722063616c6c6572206973206e6f74206f60008201527f776e6572206e6f7220617070726f766564000000000000000000000000000000602082015250565b612b8d81612463565b8114612b9857600080fd5b50565b612ba481612475565b8114612baf57600080fd5b50565b612bbb81612481565b8114612bc657600080fd5b50565b612bd2816124cd565b8114612bdd57600080fd5b5056fea264697066735822122080cdf307ebb7483e216f27e0537faa1c777d0065c0a911a5fd51e29cc41ccf1f64736f6c63430008060033",
  "immutableReferences": {},
  "source": "// SPDX-License-Identifier: MIT\r\n\r\npragma solidity ^0.8.0;\r\n\r\nimport \"@openzeppelin/contracts/token/ERC721/extensions/ERC721URIStorage.sol\";\r\nimport \"@openzeppelin/contracts/token/ERC721/extensions/ERC721Burnable.sol\";\r\n\r\n// NFT Smart Contract Constructor\r\ncontract SimpleCollectible is ERC721URIStorage {\r\n    // ERC721URIStorage allows you to set tokenURI after minting\r\n    // ERC721Burnable allows you to burn the NFT if you so choose\r\n\r\n    uint256 public tokenCounter;\r\n    constructor () public ERC721 (\"CollaborativeArt\", \"CART\"){\r\n        tokenCounter = 0;\r\n    }\r\n\r\n    // NFT deploy function that anyone can call\r\n    function createCollectible(string memory tokenURI) public returns (uint256) { // consider changing from public to owner for higher fidelity\r\n        uint256 newItemId = tokenCounter;\r\n        _safeMint(msg.sender, newItemId);\r\n        _setTokenURI(newItemId, tokenURI);\r\n        tokenCounter = tokenCounter + 1;\r\n        return newItemId;\r\n    }\r\n\r\n}\r\n",
  "sourcePath": "C:/Users/Gilberto Guadiana/Desktop/Blockchain Summer Research/Summer Research Github/CollaborativeArtToolv2/nft/src/contracts/SimpleCollectible.sol",
  "compiler": {
    "name": "solc",
    "version": "0.8.6+commit.11564f7e.Emscripten.clang"
  },
  "schemaVersion": "3.4.1",
  "updatedAt": "2021-07-26T22:14:20.945Z",
  "networkType": "ethereum",
  "devdoc": {
    "kind": "dev",
    "methods": {
      "approve(address,uint256)": {
        "details": "See {IERC721-approve}."
      },
      "balanceOf(address)": {
        "details": "See {IERC721-balanceOf}."
      },
      "getApproved(uint256)": {
        "details": "See {IERC721-getApproved}."
      },
      "isApprovedForAll(address,address)": {
        "details": "See {IERC721-isApprovedForAll}."
      },
      "name()": {
        "details": "See {IERC721Metadata-name}."
      },
      "ownerOf(uint256)": {
        "details": "See {IERC721-ownerOf}."
      },
      "safeTransferFrom(address,address,uint256)": {
        "details": "See {IERC721-safeTransferFrom}."
      },
      "safeTransferFrom(address,address,uint256,bytes)": {
        "details": "See {IERC721-safeTransferFrom}."
      },
      "setApprovalForAll(address,bool)": {
        "details": "See {IERC721-setApprovalForAll}."
      },
      "supportsInterface(bytes4)": {
        "details": "See {IERC165-supportsInterface}."
      },
      "symbol()": {
        "details": "See {IERC721Metadata-symbol}."
      },
      "tokenURI(uint256)": {
        "details": "See {IERC721Metadata-tokenURI}."
      },
      "transferFrom(address,address,uint256)": {
        "details": "See {IERC721-transferFrom}."
      }
    },
    "version": 1
  },
  "userdoc": {
    "kind": "user",
    "methods": {},
    "version": 1
  }
}